{
	"contracts/Recreatelist.sol": {
		"Recreatelist": {
			"abi": [
				{
					"inputs": [
						{
							"internalType": "uint256",
							"name": "_index",
							"type": "uint256"
						}
					],
					"name": "get",
					"outputs": [
						{
							"internalType": "uint256",
							"name": "",
							"type": "uint256"
						}
					],
					"stateMutability": "view",
					"type": "function"
				},
				{
					"inputs": [],
					"name": "getcontract",
					"outputs": [],
					"stateMutability": "nonpayable",
					"type": "function"
				},
				{
					"inputs": [
						{
							"internalType": "uint256",
							"name": "",
							"type": "uint256"
						}
					],
					"name": "simplestorage",
					"outputs": [
						{
							"internalType": "contract SimpleStorage",
							"name": "",
							"type": "address"
						}
					],
					"stateMutability": "view",
					"type": "function"
				},
				{
					"inputs": [
						{
							"internalType": "uint256",
							"name": "_index",
							"type": "uint256"
						},
						{
							"internalType": "uint256",
							"name": "_number",
							"type": "uint256"
						}
					],
					"name": "store",
					"outputs": [],
					"stateMutability": "nonpayable",
					"type": "function"
				}
			],
			"devdoc": {
				"kind": "dev",
				"methods": {},
				"version": 1
			},
			"evm": {
				"assembly": "    /* \"contracts/Recreatelist.sol\":113:613  contract Recreatelist{... */\n  mstore(0x40, 0x80)\n  callvalue\n  dup1\n  iszero\n  tag_1\n  jumpi\n  revert(0x00, 0x00)\ntag_1:\n  pop\n  dataSize(sub_0)\n  dup1\n  dataOffset(sub_0)\n  0x00\n  codecopy\n  0x00\n  return\nstop\n\nsub_0: assembly {\n        /* \"contracts/Recreatelist.sol\":113:613  contract Recreatelist{... */\n      mstore(0x40, 0x80)\n      callvalue\n      dup1\n      iszero\n      tag_1\n      jumpi\n      revert(0x00, 0x00)\n    tag_1:\n      pop\n      jumpi(tag_2, lt(calldatasize, 0x04))\n      shr(0xe0, calldataload(0x00))\n      dup1\n      0x6ed28ed0\n      eq\n      tag_3\n      jumpi\n      dup1\n      0x9507d39a\n      eq\n      tag_4\n      jumpi\n      dup1\n      0xe8940888\n      eq\n      tag_5\n      jumpi\n      dup1\n      0xeaa417ed\n      eq\n      tag_6\n      jumpi\n    tag_2:\n      revert(0x00, 0x00)\n        /* \"contracts/Recreatelist.sol\":379:486  function store(uint256 _index,uint256 _number)public{... */\n    tag_3:\n      tag_7\n      0x04\n      dup1\n      calldatasize\n      sub\n      dup2\n      add\n      swap1\n      tag_8\n      swap2\n      swap1\n      tag_9\n      jump\t// in\n    tag_8:\n      tag_10\n      jump\t// in\n    tag_7:\n      stop\n        /* \"contracts/Recreatelist.sol\":492:606  function get(uint256 _index)public view returns(uint256){... */\n    tag_4:\n      tag_11\n      0x04\n      dup1\n      calldatasize\n      sub\n      dup2\n      add\n      swap1\n      tag_12\n      swap2\n      swap1\n      tag_13\n      jump\t// in\n    tag_12:\n      tag_14\n      jump\t// in\n    tag_11:\n      mload(0x40)\n      tag_15\n      swap2\n      swap1\n      tag_16\n      jump\t// in\n    tag_15:\n      mload(0x40)\n      dup1\n      swap2\n      sub\n      swap1\n      return\n        /* \"contracts/Recreatelist.sol\":226:373  function getcontract()public{... */\n    tag_5:\n      tag_17\n      tag_18\n      jump\t// in\n    tag_17:\n      stop\n        /* \"contracts/Recreatelist.sol\":183:219  SimpleStorage[] public simplestorage */\n    tag_6:\n      tag_19\n      0x04\n      dup1\n      calldatasize\n      sub\n      dup2\n      add\n      swap1\n      tag_20\n      swap2\n      swap1\n      tag_13\n      jump\t// in\n    tag_20:\n      tag_21\n      jump\t// in\n    tag_19:\n      mload(0x40)\n      tag_22\n      swap2\n      swap1\n      tag_23\n      jump\t// in\n    tag_22:\n      mload(0x40)\n      dup1\n      swap2\n      sub\n      swap1\n      return\n        /* \"contracts/Recreatelist.sol\":379:486  function store(uint256 _index,uint256 _number)public{... */\n    tag_10:\n        /* \"contracts/Recreatelist.sol\":442:455  simplestorage */\n      0x00\n        /* \"contracts/Recreatelist.sol\":456:462  _index */\n      dup3\n        /* \"contracts/Recreatelist.sol\":442:463  simplestorage[_index] */\n      dup2\n      sload\n      dup2\n      lt\n      tag_25\n      jumpi\n      tag_26\n      tag_27\n      jump\t// in\n    tag_26:\n    tag_25:\n      swap1\n      0x00\n      mstore\n      keccak256(0x00, 0x20)\n      add\n      0x00\n      swap1\n      sload\n      swap1\n      0x0100\n      exp\n      swap1\n      div\n      0xffffffffffffffffffffffffffffffffffffffff\n      and\n        /* \"contracts/Recreatelist.sol\":442:469  simplestorage[_index].store */\n      0xffffffffffffffffffffffffffffffffffffffff\n      and\n      0x6057361d\n        /* \"contracts/Recreatelist.sol\":470:477  _number */\n      dup3\n        /* \"contracts/Recreatelist.sol\":442:478  simplestorage[_index].store(_number) */\n      mload(0x40)\n      dup3\n      0xffffffff\n      and\n      0xe0\n      shl\n      dup2\n      mstore\n      0x04\n      add\n      tag_29\n      swap2\n      swap1\n      tag_16\n      jump\t// in\n    tag_29:\n      0x00\n      mload(0x40)\n      dup1\n      dup4\n      sub\n      dup2\n      0x00\n      dup8\n      dup1\n      extcodesize\n      iszero\n      dup1\n      iszero\n      tag_30\n      jumpi\n      revert(0x00, 0x00)\n    tag_30:\n      pop\n      gas\n      call\n      iszero\n      dup1\n      iszero\n      tag_32\n      jumpi\n      returndatacopy(0x00, 0x00, returndatasize)\n      revert(0x00, returndatasize)\n    tag_32:\n      pop\n      pop\n      pop\n      pop\n        /* \"contracts/Recreatelist.sol\":379:486  function store(uint256 _index,uint256 _number)public{... */\n      pop\n      pop\n      jump\t// out\n        /* \"contracts/Recreatelist.sol\":492:606  function get(uint256 _index)public view returns(uint256){... */\n    tag_14:\n        /* \"contracts/Recreatelist.sol\":540:547  uint256 */\n      0x00\n        /* \"contracts/Recreatelist.sol\":566:579  simplestorage */\n      0x00\n        /* \"contracts/Recreatelist.sol\":580:586  _index */\n      dup3\n        /* \"contracts/Recreatelist.sol\":566:587  simplestorage[_index] */\n      dup2\n      sload\n      dup2\n      lt\n      tag_34\n      jumpi\n      tag_35\n      tag_27\n      jump\t// in\n    tag_35:\n    tag_34:\n      swap1\n      0x00\n      mstore\n      keccak256(0x00, 0x20)\n      add\n      0x00\n      swap1\n      sload\n      swap1\n      0x0100\n      exp\n      swap1\n      div\n      0xffffffffffffffffffffffffffffffffffffffff\n      and\n        /* \"contracts/Recreatelist.sol\":566:596  simplestorage[_index].retrieve */\n      0xffffffffffffffffffffffffffffffffffffffff\n      and\n      0x2e64cec1\n        /* \"contracts/Recreatelist.sol\":566:598  simplestorage[_index].retrieve() */\n      mload(0x40)\n      dup2\n      0xffffffff\n      and\n      0xe0\n      shl\n      dup2\n      mstore\n      0x04\n      add\n      0x20\n      mload(0x40)\n      dup1\n      dup4\n      sub\n      dup2\n      dup7\n      gas\n      staticcall\n      iszero\n      dup1\n      iszero\n      tag_38\n      jumpi\n      returndatacopy(0x00, 0x00, returndatasize)\n      revert(0x00, returndatasize)\n    tag_38:\n      pop\n      pop\n      pop\n      pop\n      mload(0x40)\n      returndatasize\n      not(0x1f)\n      0x1f\n      dup3\n      add\n      and\n      dup3\n      add\n      dup1\n      0x40\n      mstore\n      pop\n      dup2\n      add\n      swap1\n      tag_39\n      swap2\n      swap1\n      tag_40\n      jump\t// in\n    tag_39:\n        /* \"contracts/Recreatelist.sol\":559:598  return simplestorage[_index].retrieve() */\n      swap1\n      pop\n        /* \"contracts/Recreatelist.sol\":492:606  function get(uint256 _index)public view returns(uint256){... */\n      swap2\n      swap1\n      pop\n      jump\t// out\n        /* \"contracts/Recreatelist.sol\":226:373  function getcontract()public{... */\n    tag_18:\n        /* \"contracts/Recreatelist.sol\":265:296  SimpleStorage  newsimplestorage */\n      0x00\n        /* \"contracts/Recreatelist.sol\":299:318  new SimpleStorage() */\n      mload(0x40)\n      tag_42\n      swap1\n      tag_43\n      jump\t// in\n    tag_42:\n      mload(0x40)\n      dup1\n      swap2\n      sub\n      swap1\n      0x00\n      create\n      dup1\n      iszero\n      dup1\n      iszero\n      tag_44\n      jumpi\n      returndatacopy(0x00, 0x00, returndatasize)\n      revert(0x00, returndatasize)\n    tag_44:\n      pop\n        /* \"contracts/Recreatelist.sol\":265:318  SimpleStorage  newsimplestorage = new SimpleStorage() */\n      swap1\n      pop\n        /* \"contracts/Recreatelist.sol\":329:342  simplestorage */\n      0x00\n        /* \"contracts/Recreatelist.sol\":348:364  newsimplestorage */\n      dup2\n        /* \"contracts/Recreatelist.sol\":329:365  simplestorage.push(newsimplestorage) */\n      swap1\n      dup1\n      0x01\n      dup2\n      sload\n      add\n      dup1\n      dup3\n      sstore\n      dup1\n      swap2\n      pop\n      pop\n      0x01\n      swap1\n      sub\n      swap1\n      0x00\n      mstore\n      keccak256(0x00, 0x20)\n      add\n      0x00\n      swap1\n      swap2\n      swap1\n      swap2\n      swap1\n      swap2\n      0x0100\n      exp\n      dup2\n      sload\n      dup2\n      0xffffffffffffffffffffffffffffffffffffffff\n      mul\n      not\n      and\n      swap1\n      dup4\n      0xffffffffffffffffffffffffffffffffffffffff\n      and\n      mul\n      or\n      swap1\n      sstore\n      pop\n        /* \"contracts/Recreatelist.sol\":254:373  {... */\n      pop\n        /* \"contracts/Recreatelist.sol\":226:373  function getcontract()public{... */\n      jump\t// out\n        /* \"contracts/Recreatelist.sol\":183:219  SimpleStorage[] public simplestorage */\n    tag_21:\n      0x00\n      dup2\n      dup2\n      sload\n      dup2\n      lt\n      tag_46\n      jumpi\n      0x00\n      dup1\n      revert\n    tag_46:\n      swap1\n      0x00\n      mstore\n      keccak256(0x00, 0x20)\n      add\n      0x00\n      swap2\n      pop\n      sload\n      swap1\n      0x0100\n      exp\n      swap1\n      div\n      0xffffffffffffffffffffffffffffffffffffffff\n      and\n      dup2\n      jump\t// out\n    tag_43:\n      dataSize(sub_0)\n      dup1\n      dataOffset(sub_0)\n      dup4\n      codecopy\n      add\n      swap1\n      jump\t// out\n        /* \"#utility.yul\":88:205   */\n    tag_49:\n        /* \"#utility.yul\":197:198   */\n      0x00\n        /* \"#utility.yul\":194:195   */\n      0x00\n        /* \"#utility.yul\":187:199   */\n      revert\n        /* \"#utility.yul\":334:411   */\n    tag_51:\n        /* \"#utility.yul\":371:378   */\n      0x00\n        /* \"#utility.yul\":400:405   */\n      dup2\n        /* \"#utility.yul\":389:405   */\n      swap1\n      pop\n        /* \"#utility.yul\":334:411   */\n      swap2\n      swap1\n      pop\n      jump\t// out\n        /* \"#utility.yul\":417:539   */\n    tag_52:\n        /* \"#utility.yul\":490:514   */\n      tag_68\n        /* \"#utility.yul\":508:513   */\n      dup2\n        /* \"#utility.yul\":490:514   */\n      tag_51\n      jump\t// in\n    tag_68:\n        /* \"#utility.yul\":483:488   */\n      dup2\n        /* \"#utility.yul\":480:515   */\n      eq\n        /* \"#utility.yul\":470:533   */\n      tag_69\n      jumpi\n        /* \"#utility.yul\":529:530   */\n      0x00\n        /* \"#utility.yul\":526:527   */\n      0x00\n        /* \"#utility.yul\":519:531   */\n      revert\n        /* \"#utility.yul\":470:533   */\n    tag_69:\n        /* \"#utility.yul\":417:539   */\n      pop\n      jump\t// out\n        /* \"#utility.yul\":545:684   */\n    tag_53:\n        /* \"#utility.yul\":591:596   */\n      0x00\n        /* \"#utility.yul\":629:635   */\n      dup2\n        /* \"#utility.yul\":616:636   */\n      calldataload\n        /* \"#utility.yul\":607:636   */\n      swap1\n      pop\n        /* \"#utility.yul\":645:678   */\n      tag_71\n        /* \"#utility.yul\":672:677   */\n      dup2\n        /* \"#utility.yul\":645:678   */\n      tag_52\n      jump\t// in\n    tag_71:\n        /* \"#utility.yul\":545:684   */\n      swap3\n      swap2\n      pop\n      pop\n      jump\t// out\n        /* \"#utility.yul\":690:1164   */\n    tag_9:\n        /* \"#utility.yul\":758:764   */\n      0x00\n        /* \"#utility.yul\":766:772   */\n      0x00\n        /* \"#utility.yul\":815:817   */\n      0x40\n        /* \"#utility.yul\":803:812   */\n      dup4\n        /* \"#utility.yul\":794:801   */\n      dup6\n        /* \"#utility.yul\":790:813   */\n      sub\n        /* \"#utility.yul\":786:818   */\n      slt\n        /* \"#utility.yul\":783:902   */\n      iszero\n      tag_73\n      jumpi\n        /* \"#utility.yul\":821:900   */\n      tag_74\n      tag_49\n      jump\t// in\n    tag_74:\n        /* \"#utility.yul\":783:902   */\n    tag_73:\n        /* \"#utility.yul\":941:942   */\n      0x00\n        /* \"#utility.yul\":966:1019   */\n      tag_75\n        /* \"#utility.yul\":1011:1018   */\n      dup6\n        /* \"#utility.yul\":1002:1008   */\n      dup3\n        /* \"#utility.yul\":991:1000   */\n      dup7\n        /* \"#utility.yul\":987:1009   */\n      add\n        /* \"#utility.yul\":966:1019   */\n      tag_53\n      jump\t// in\n    tag_75:\n        /* \"#utility.yul\":956:1019   */\n      swap3\n      pop\n        /* \"#utility.yul\":912:1029   */\n      pop\n        /* \"#utility.yul\":1068:1070   */\n      0x20\n        /* \"#utility.yul\":1094:1147   */\n      tag_76\n        /* \"#utility.yul\":1139:1146   */\n      dup6\n        /* \"#utility.yul\":1130:1136   */\n      dup3\n        /* \"#utility.yul\":1119:1128   */\n      dup7\n        /* \"#utility.yul\":1115:1137   */\n      add\n        /* \"#utility.yul\":1094:1147   */\n      tag_53\n      jump\t// in\n    tag_76:\n        /* \"#utility.yul\":1084:1147   */\n      swap2\n      pop\n        /* \"#utility.yul\":1039:1157   */\n      pop\n        /* \"#utility.yul\":690:1164   */\n      swap3\n      pop\n      swap3\n      swap1\n      pop\n      jump\t// out\n        /* \"#utility.yul\":1170:1499   */\n    tag_13:\n        /* \"#utility.yul\":1229:1235   */\n      0x00\n        /* \"#utility.yul\":1278:1280   */\n      0x20\n        /* \"#utility.yul\":1266:1275   */\n      dup3\n        /* \"#utility.yul\":1257:1264   */\n      dup5\n        /* \"#utility.yul\":1253:1276   */\n      sub\n        /* \"#utility.yul\":1249:1281   */\n      slt\n        /* \"#utility.yul\":1246:1365   */\n      iszero\n      tag_78\n      jumpi\n        /* \"#utility.yul\":1284:1363   */\n      tag_79\n      tag_49\n      jump\t// in\n    tag_79:\n        /* \"#utility.yul\":1246:1365   */\n    tag_78:\n        /* \"#utility.yul\":1404:1405   */\n      0x00\n        /* \"#utility.yul\":1429:1482   */\n      tag_80\n        /* \"#utility.yul\":1474:1481   */\n      dup5\n        /* \"#utility.yul\":1465:1471   */\n      dup3\n        /* \"#utility.yul\":1454:1463   */\n      dup6\n        /* \"#utility.yul\":1450:1472   */\n      add\n        /* \"#utility.yul\":1429:1482   */\n      tag_53\n      jump\t// in\n    tag_80:\n        /* \"#utility.yul\":1419:1482   */\n      swap2\n      pop\n        /* \"#utility.yul\":1375:1492   */\n      pop\n        /* \"#utility.yul\":1170:1499   */\n      swap3\n      swap2\n      pop\n      pop\n      jump\t// out\n        /* \"#utility.yul\":1505:1623   */\n    tag_54:\n        /* \"#utility.yul\":1592:1616   */\n      tag_82\n        /* \"#utility.yul\":1610:1615   */\n      dup2\n        /* \"#utility.yul\":1592:1616   */\n      tag_51\n      jump\t// in\n    tag_82:\n        /* \"#utility.yul\":1587:1590   */\n      dup3\n        /* \"#utility.yul\":1580:1617   */\n      mstore\n        /* \"#utility.yul\":1505:1623   */\n      pop\n      pop\n      jump\t// out\n        /* \"#utility.yul\":1629:1851   */\n    tag_16:\n        /* \"#utility.yul\":1722:1726   */\n      0x00\n        /* \"#utility.yul\":1760:1762   */\n      0x20\n        /* \"#utility.yul\":1749:1758   */\n      dup3\n        /* \"#utility.yul\":1745:1763   */\n      add\n        /* \"#utility.yul\":1737:1763   */\n      swap1\n      pop\n        /* \"#utility.yul\":1773:1844   */\n      tag_84\n        /* \"#utility.yul\":1841:1842   */\n      0x00\n        /* \"#utility.yul\":1830:1839   */\n      dup4\n        /* \"#utility.yul\":1826:1843   */\n      add\n        /* \"#utility.yul\":1817:1823   */\n      dup5\n        /* \"#utility.yul\":1773:1844   */\n      tag_54\n      jump\t// in\n    tag_84:\n        /* \"#utility.yul\":1629:1851   */\n      swap3\n      swap2\n      pop\n      pop\n      jump\t// out\n        /* \"#utility.yul\":1857:1983   */\n    tag_55:\n        /* \"#utility.yul\":1894:1901   */\n      0x00\n        /* \"#utility.yul\":1934:1976   */\n      0xffffffffffffffffffffffffffffffffffffffff\n        /* \"#utility.yul\":1927:1932   */\n      dup3\n        /* \"#utility.yul\":1923:1977   */\n      and\n        /* \"#utility.yul\":1912:1977   */\n      swap1\n      pop\n        /* \"#utility.yul\":1857:1983   */\n      swap2\n      swap1\n      pop\n      jump\t// out\n        /* \"#utility.yul\":1989:2049   */\n    tag_56:\n        /* \"#utility.yul\":2017:2020   */\n      0x00\n        /* \"#utility.yul\":2038:2043   */\n      dup2\n        /* \"#utility.yul\":2031:2043   */\n      swap1\n      pop\n        /* \"#utility.yul\":1989:2049   */\n      swap2\n      swap1\n      pop\n      jump\t// out\n        /* \"#utility.yul\":2055:2197   */\n    tag_57:\n        /* \"#utility.yul\":2105:2114   */\n      0x00\n        /* \"#utility.yul\":2138:2191   */\n      tag_88\n        /* \"#utility.yul\":2156:2190   */\n      tag_89\n        /* \"#utility.yul\":2165:2189   */\n      tag_90\n        /* \"#utility.yul\":2183:2188   */\n      dup5\n        /* \"#utility.yul\":2165:2189   */\n      tag_55\n      jump\t// in\n    tag_90:\n        /* \"#utility.yul\":2156:2190   */\n      tag_56\n      jump\t// in\n    tag_89:\n        /* \"#utility.yul\":2138:2191   */\n      tag_55\n      jump\t// in\n    tag_88:\n        /* \"#utility.yul\":2125:2191   */\n      swap1\n      pop\n        /* \"#utility.yul\":2055:2197   */\n      swap2\n      swap1\n      pop\n      jump\t// out\n        /* \"#utility.yul\":2203:2329   */\n    tag_58:\n        /* \"#utility.yul\":2253:2262   */\n      0x00\n        /* \"#utility.yul\":2286:2323   */\n      tag_92\n        /* \"#utility.yul\":2317:2322   */\n      dup3\n        /* \"#utility.yul\":2286:2323   */\n      tag_57\n      jump\t// in\n    tag_92:\n        /* \"#utility.yul\":2273:2323   */\n      swap1\n      pop\n        /* \"#utility.yul\":2203:2329   */\n      swap2\n      swap1\n      pop\n      jump\t// out\n        /* \"#utility.yul\":2335:2482   */\n    tag_59:\n        /* \"#utility.yul\":2406:2415   */\n      0x00\n        /* \"#utility.yul\":2439:2476   */\n      tag_94\n        /* \"#utility.yul\":2470:2475   */\n      dup3\n        /* \"#utility.yul\":2439:2476   */\n      tag_58\n      jump\t// in\n    tag_94:\n        /* \"#utility.yul\":2426:2476   */\n      swap1\n      pop\n        /* \"#utility.yul\":2335:2482   */\n      swap2\n      swap1\n      pop\n      jump\t// out\n        /* \"#utility.yul\":2488:2661   */\n    tag_60:\n        /* \"#utility.yul\":2596:2654   */\n      tag_96\n        /* \"#utility.yul\":2648:2653   */\n      dup2\n        /* \"#utility.yul\":2596:2654   */\n      tag_59\n      jump\t// in\n    tag_96:\n        /* \"#utility.yul\":2591:2594   */\n      dup3\n        /* \"#utility.yul\":2584:2655   */\n      mstore\n        /* \"#utility.yul\":2488:2661   */\n      pop\n      pop\n      jump\t// out\n        /* \"#utility.yul\":2667:2931   */\n    tag_23:\n        /* \"#utility.yul\":2781:2785   */\n      0x00\n        /* \"#utility.yul\":2819:2821   */\n      0x20\n        /* \"#utility.yul\":2808:2817   */\n      dup3\n        /* \"#utility.yul\":2804:2822   */\n      add\n        /* \"#utility.yul\":2796:2822   */\n      swap1\n      pop\n        /* \"#utility.yul\":2832:2924   */\n      tag_98\n        /* \"#utility.yul\":2921:2922   */\n      0x00\n        /* \"#utility.yul\":2910:2919   */\n      dup4\n        /* \"#utility.yul\":2906:2923   */\n      add\n        /* \"#utility.yul\":2897:2903   */\n      dup5\n        /* \"#utility.yul\":2832:2924   */\n      tag_60\n      jump\t// in\n    tag_98:\n        /* \"#utility.yul\":2667:2931   */\n      swap3\n      swap2\n      pop\n      pop\n      jump\t// out\n        /* \"#utility.yul\":2937:3117   */\n    tag_27:\n        /* \"#utility.yul\":2985:3062   */\n      0x4e487b7100000000000000000000000000000000000000000000000000000000\n        /* \"#utility.yul\":2982:2983   */\n      0x00\n        /* \"#utility.yul\":2975:3063   */\n      mstore\n        /* \"#utility.yul\":3082:3086   */\n      0x32\n        /* \"#utility.yul\":3079:3080   */\n      0x04\n        /* \"#utility.yul\":3072:3087   */\n      mstore\n        /* \"#utility.yul\":3106:3110   */\n      0x24\n        /* \"#utility.yul\":3103:3104   */\n      0x00\n        /* \"#utility.yul\":3096:3111   */\n      revert\n        /* \"#utility.yul\":3123:3266   */\n    tag_61:\n        /* \"#utility.yul\":3180:3185   */\n      0x00\n        /* \"#utility.yul\":3211:3217   */\n      dup2\n        /* \"#utility.yul\":3205:3218   */\n      mload\n        /* \"#utility.yul\":3196:3218   */\n      swap1\n      pop\n        /* \"#utility.yul\":3227:3260   */\n      tag_101\n        /* \"#utility.yul\":3254:3259   */\n      dup2\n        /* \"#utility.yul\":3227:3260   */\n      tag_52\n      jump\t// in\n    tag_101:\n        /* \"#utility.yul\":3123:3266   */\n      swap3\n      swap2\n      pop\n      pop\n      jump\t// out\n        /* \"#utility.yul\":3272:3623   */\n    tag_40:\n        /* \"#utility.yul\":3342:3348   */\n      0x00\n        /* \"#utility.yul\":3391:3393   */\n      0x20\n        /* \"#utility.yul\":3379:3388   */\n      dup3\n        /* \"#utility.yul\":3370:3377   */\n      dup5\n        /* \"#utility.yul\":3366:3389   */\n      sub\n        /* \"#utility.yul\":3362:3394   */\n      slt\n        /* \"#utility.yul\":3359:3478   */\n      iszero\n      tag_103\n      jumpi\n        /* \"#utility.yul\":3397:3476   */\n      tag_104\n      tag_49\n      jump\t// in\n    tag_104:\n        /* \"#utility.yul\":3359:3478   */\n    tag_103:\n        /* \"#utility.yul\":3517:3518   */\n      0x00\n        /* \"#utility.yul\":3542:3606   */\n      tag_105\n        /* \"#utility.yul\":3598:3605   */\n      dup5\n        /* \"#utility.yul\":3589:3595   */\n      dup3\n        /* \"#utility.yul\":3578:3587   */\n      dup6\n        /* \"#utility.yul\":3574:3596   */\n      add\n        /* \"#utility.yul\":3542:3606   */\n      tag_61\n      jump\t// in\n    tag_105:\n        /* \"#utility.yul\":3532:3606   */\n      swap2\n      pop\n        /* \"#utility.yul\":3488:3616   */\n      pop\n        /* \"#utility.yul\":3272:3623   */\n      swap3\n      swap2\n      pop\n      pop\n      jump\t// out\n    stop\n\n    sub_0: assembly {\n            /* \"contracts/Simplestorage.sol\":146:841  contract SimpleStorage {... */\n          mstore(0x40, 0x80)\n          callvalue\n          dup1\n          iszero\n          tag_1\n          jumpi\n          revert(0x00, 0x00)\n        tag_1:\n          pop\n          dataSize(sub_0)\n          dup1\n          dataOffset(sub_0)\n          0x00\n          codecopy\n          0x00\n          return\n        stop\n\n        sub_0: assembly {\n                /* \"contracts/Simplestorage.sol\":146:841  contract SimpleStorage {... */\n              mstore(0x40, 0x80)\n              callvalue\n              dup1\n              iszero\n              tag_1\n              jumpi\n              revert(0x00, 0x00)\n            tag_1:\n              pop\n              jumpi(tag_2, lt(calldatasize, 0x04))\n              shr(0xe0, calldataload(0x00))\n              dup1\n              0x2e64cec1\n              eq\n              tag_3\n              jumpi\n              dup1\n              0x2ebce631\n              eq\n              tag_4\n              jumpi\n              dup1\n              0x6057361d\n              eq\n              tag_5\n              jumpi\n              dup1\n              0x6f760f41\n              eq\n              tag_6\n              jumpi\n              dup1\n              0x8bab8dd5\n              eq\n              tag_7\n              jumpi\n            tag_2:\n              revert(0x00, 0x00)\n                /* \"contracts/Simplestorage.sol\":542:634  function retrieve() public view returns (uint256) {... */\n            tag_3:\n              tag_8\n              tag_9\n              jump\t// in\n            tag_8:\n              mload(0x40)\n              tag_10\n              swap2\n              swap1\n              tag_11\n              jump\t// in\n            tag_10:\n              mload(0x40)\n              dup1\n              swap2\n              sub\n              swap1\n              return\n                /* \"contracts/Simplestorage.sol\":326:354  Person[] public listOfPeople */\n            tag_4:\n              tag_12\n              0x04\n              dup1\n              calldatasize\n              sub\n              dup2\n              add\n              swap1\n              tag_13\n              swap2\n              swap1\n              tag_14\n              jump\t// in\n            tag_13:\n              tag_15\n              jump\t// in\n            tag_12:\n              mload(0x40)\n              tag_16\n              swap3\n              swap2\n              swap1\n              tag_17\n              jump\t// in\n            tag_16:\n              mload(0x40)\n              dup1\n              swap2\n              sub\n              swap1\n              return\n                /* \"contracts/Simplestorage.sol\":426:534  function store(uint256 _favoriteNumber) public virtual {... */\n            tag_5:\n              tag_18\n              0x04\n              dup1\n              calldatasize\n              sub\n              dup2\n              add\n              swap1\n              tag_19\n              swap2\n              swap1\n              tag_14\n              jump\t// in\n            tag_19:\n              tag_20\n              jump\t// in\n            tag_18:\n              stop\n                /* \"contracts/Simplestorage.sol\":642:838  function addPerson(string memory _name, uint256 _favoriteNumber) public {... */\n            tag_6:\n              tag_21\n              0x04\n              dup1\n              calldatasize\n              sub\n              dup2\n              add\n              swap1\n              tag_22\n              swap2\n              swap1\n              tag_23\n              jump\t// in\n            tag_22:\n              tag_24\n              jump\t// in\n            tag_21:\n              stop\n                /* \"contracts/Simplestorage.sol\":363:417  mapping(string => uint256) public nameToFavoriteNumber */\n            tag_7:\n              tag_25\n              0x04\n              dup1\n              calldatasize\n              sub\n              dup2\n              add\n              swap1\n              tag_26\n              swap2\n              swap1\n              tag_27\n              jump\t// in\n            tag_26:\n              tag_28\n              jump\t// in\n            tag_25:\n              mload(0x40)\n              tag_29\n              swap2\n              swap1\n              tag_11\n              jump\t// in\n            tag_29:\n              mload(0x40)\n              dup1\n              swap2\n              sub\n              swap1\n              return\n                /* \"contracts/Simplestorage.sol\":542:634  function retrieve() public view returns (uint256) {... */\n            tag_9:\n                /* \"contracts/Simplestorage.sol\":583:590  uint256 */\n              0x00\n                /* \"contracts/Simplestorage.sol\":610:626  myFavoriteNumber */\n              sload(0x00)\n                /* \"contracts/Simplestorage.sol\":603:626  return myFavoriteNumber */\n              swap1\n              pop\n                /* \"contracts/Simplestorage.sol\":542:634  function retrieve() public view returns (uint256) {... */\n              swap1\n              jump\t// out\n                /* \"contracts/Simplestorage.sol\":326:354  Person[] public listOfPeople */\n            tag_15:\n              0x01\n              dup2\n              dup2\n              sload\n              dup2\n              lt\n              tag_31\n              jumpi\n              0x00\n              dup1\n              revert\n            tag_31:\n              swap1\n              0x00\n              mstore\n              keccak256(0x00, 0x20)\n              swap1\n              0x02\n              mul\n              add\n              0x00\n              swap2\n              pop\n              swap1\n              pop\n              dup1\n              0x00\n              add\n              sload\n              swap1\n              dup1\n              0x01\n              add\n              dup1\n              sload\n              tag_33\n              swap1\n              tag_34\n              jump\t// in\n            tag_33:\n              dup1\n              0x1f\n              add\n              0x20\n              dup1\n              swap2\n              div\n              mul\n              0x20\n              add\n              mload(0x40)\n              swap1\n              dup2\n              add\n              0x40\n              mstore\n              dup1\n              swap3\n              swap2\n              swap1\n              dup2\n              dup2\n              mstore\n              0x20\n              add\n              dup3\n              dup1\n              sload\n              tag_35\n              swap1\n              tag_34\n              jump\t// in\n            tag_35:\n              dup1\n              iszero\n              tag_36\n              jumpi\n              dup1\n              0x1f\n              lt\n              tag_37\n              jumpi\n              0x0100\n              dup1\n              dup4\n              sload\n              div\n              mul\n              dup4\n              mstore\n              swap2\n              0x20\n              add\n              swap2\n              jump(tag_36)\n            tag_37:\n              dup3\n              add\n              swap2\n              swap1\n              0x00\n              mstore\n              keccak256(0x00, 0x20)\n              swap1\n            tag_38:\n              dup2\n              sload\n              dup2\n              mstore\n              swap1\n              0x01\n              add\n              swap1\n              0x20\n              add\n              dup1\n              dup4\n              gt\n              tag_38\n              jumpi\n              dup3\n              swap1\n              sub\n              0x1f\n              and\n              dup3\n              add\n              swap2\n            tag_36:\n              pop\n              pop\n              pop\n              pop\n              pop\n              swap1\n              pop\n              dup3\n              jump\t// out\n                /* \"contracts/Simplestorage.sol\":426:534  function store(uint256 _favoriteNumber) public virtual {... */\n            tag_20:\n                /* \"contracts/Simplestorage.sol\":511:526  _favoriteNumber */\n              dup1\n                /* \"contracts/Simplestorage.sol\":492:508  myFavoriteNumber */\n              0x00\n                /* \"contracts/Simplestorage.sol\":492:526  myFavoriteNumber = _favoriteNumber */\n              dup2\n              swap1\n              sstore\n              pop\n                /* \"contracts/Simplestorage.sol\":426:534  function store(uint256 _favoriteNumber) public virtual {... */\n              pop\n              jump\t// out\n                /* \"contracts/Simplestorage.sol\":642:838  function addPerson(string memory _name, uint256 _favoriteNumber) public {... */\n            tag_24:\n                /* \"contracts/Simplestorage.sol\":725:737  listOfPeople */\n              0x01\n                /* \"contracts/Simplestorage.sol\":743:773  Person(_favoriteNumber, _name) */\n              mload(0x40)\n              dup1\n              0x40\n              add\n              0x40\n              mstore\n              dup1\n                /* \"contracts/Simplestorage.sol\":750:765  _favoriteNumber */\n              dup4\n                /* \"contracts/Simplestorage.sol\":743:773  Person(_favoriteNumber, _name) */\n              dup2\n              mstore\n              0x20\n              add\n                /* \"contracts/Simplestorage.sol\":767:772  _name */\n              dup5\n                /* \"contracts/Simplestorage.sol\":743:773  Person(_favoriteNumber, _name) */\n              dup2\n              mstore\n              pop\n                /* \"contracts/Simplestorage.sol\":725:774  listOfPeople.push(Person(_favoriteNumber, _name)) */\n              swap1\n              dup1\n              0x01\n              dup2\n              sload\n              add\n              dup1\n              dup3\n              sstore\n              dup1\n              swap2\n              pop\n              pop\n              0x01\n              swap1\n              sub\n              swap1\n              0x00\n              mstore\n              keccak256(0x00, 0x20)\n              swap1\n              0x02\n              mul\n              add\n              0x00\n              swap1\n              swap2\n              swap1\n              swap2\n              swap1\n              swap2\n              pop\n              0x00\n              dup3\n              add\n              mload\n              dup2\n              0x00\n              add\n              sstore\n              0x20\n              dup3\n              add\n              mload\n              dup2\n              0x01\n              add\n              swap1\n              dup2\n              tag_42\n              swap2\n              swap1\n              tag_43\n              jump\t// in\n            tag_42:\n              pop\n              pop\n              pop\n                /* \"contracts/Simplestorage.sol\":815:830  _favoriteNumber */\n              dup1\n                /* \"contracts/Simplestorage.sol\":785:805  nameToFavoriteNumber */\n              0x02\n                /* \"contracts/Simplestorage.sol\":806:811  _name */\n              dup4\n                /* \"contracts/Simplestorage.sol\":785:812  nameToFavoriteNumber[_name] */\n              mload(0x40)\n              tag_44\n              swap2\n              swap1\n              tag_45\n              jump\t// in\n            tag_44:\n              swap1\n              dup2\n              mstore\n              0x20\n              add\n              mload(0x40)\n              dup1\n              swap2\n              sub\n              swap1\n              keccak256\n                /* \"contracts/Simplestorage.sol\":785:830  nameToFavoriteNumber[_name] = _favoriteNumber */\n              dup2\n              swap1\n              sstore\n              pop\n                /* \"contracts/Simplestorage.sol\":642:838  function addPerson(string memory _name, uint256 _favoriteNumber) public {... */\n              pop\n              pop\n              jump\t// out\n                /* \"contracts/Simplestorage.sol\":363:417  mapping(string => uint256) public nameToFavoriteNumber */\n            tag_28:\n              0x02\n              dup2\n              dup1\n              mload\n              0x20\n              dup2\n              add\n              dup3\n              add\n              dup1\n              mload\n              dup5\n              dup3\n              mstore\n              0x20\n              dup4\n              add\n              0x20\n              dup6\n              add\n              keccak256\n              dup2\n              dup4\n              mstore\n              dup1\n              swap6\n              pop\n              pop\n              pop\n              pop\n              pop\n              pop\n              0x00\n              swap2\n              pop\n              swap1\n              pop\n              sload\n              dup2\n              jump\t// out\n                /* \"#utility.yul\":7:84   */\n            tag_46:\n                /* \"#utility.yul\":44:51   */\n              0x00\n                /* \"#utility.yul\":73:78   */\n              dup2\n                /* \"#utility.yul\":62:78   */\n              swap1\n              pop\n                /* \"#utility.yul\":7:84   */\n              swap2\n              swap1\n              pop\n              jump\t// out\n                /* \"#utility.yul\":90:208   */\n            tag_47:\n                /* \"#utility.yul\":177:201   */\n              tag_88\n                /* \"#utility.yul\":195:200   */\n              dup2\n                /* \"#utility.yul\":177:201   */\n              tag_46\n              jump\t// in\n            tag_88:\n                /* \"#utility.yul\":172:175   */\n              dup3\n                /* \"#utility.yul\":165:202   */\n              mstore\n                /* \"#utility.yul\":90:208   */\n              pop\n              pop\n              jump\t// out\n                /* \"#utility.yul\":214:436   */\n            tag_11:\n                /* \"#utility.yul\":307:311   */\n              0x00\n                /* \"#utility.yul\":345:347   */\n              0x20\n                /* \"#utility.yul\":334:343   */\n              dup3\n                /* \"#utility.yul\":330:348   */\n              add\n                /* \"#utility.yul\":322:348   */\n              swap1\n              pop\n                /* \"#utility.yul\":358:429   */\n              tag_90\n                /* \"#utility.yul\":426:427   */\n              0x00\n                /* \"#utility.yul\":415:424   */\n              dup4\n                /* \"#utility.yul\":411:428   */\n              add\n                /* \"#utility.yul\":402:408   */\n              dup5\n                /* \"#utility.yul\":358:429   */\n              tag_47\n              jump\t// in\n            tag_90:\n                /* \"#utility.yul\":214:436   */\n              swap3\n              swap2\n              pop\n              pop\n              jump\t// out\n                /* \"#utility.yul\":442:517   */\n            tag_48:\n                /* \"#utility.yul\":475:481   */\n              0x00\n                /* \"#utility.yul\":508:510   */\n              0x40\n                /* \"#utility.yul\":502:511   */\n              mload\n                /* \"#utility.yul\":492:511   */\n              swap1\n              pop\n                /* \"#utility.yul\":442:517   */\n              swap1\n              jump\t// out\n                /* \"#utility.yul\":523:640   */\n            tag_49:\n                /* \"#utility.yul\":632:633   */\n              0x00\n                /* \"#utility.yul\":629:630   */\n              0x00\n                /* \"#utility.yul\":622:634   */\n              revert\n                /* \"#utility.yul\":646:763   */\n            tag_50:\n                /* \"#utility.yul\":755:756   */\n              0x00\n                /* \"#utility.yul\":752:753   */\n              0x00\n                /* \"#utility.yul\":745:757   */\n              revert\n                /* \"#utility.yul\":769:891   */\n            tag_51:\n                /* \"#utility.yul\":842:866   */\n              tag_95\n                /* \"#utility.yul\":860:865   */\n              dup2\n                /* \"#utility.yul\":842:866   */\n              tag_46\n              jump\t// in\n            tag_95:\n                /* \"#utility.yul\":835:840   */\n              dup2\n                /* \"#utility.yul\":832:867   */\n              eq\n                /* \"#utility.yul\":822:885   */\n              tag_96\n              jumpi\n                /* \"#utility.yul\":881:882   */\n              0x00\n                /* \"#utility.yul\":878:879   */\n              0x00\n                /* \"#utility.yul\":871:883   */\n              revert\n                /* \"#utility.yul\":822:885   */\n            tag_96:\n                /* \"#utility.yul\":769:891   */\n              pop\n              jump\t// out\n                /* \"#utility.yul\":897:1036   */\n            tag_52:\n                /* \"#utility.yul\":943:948   */\n              0x00\n                /* \"#utility.yul\":981:987   */\n              dup2\n                /* \"#utility.yul\":968:988   */\n              calldataload\n                /* \"#utility.yul\":959:988   */\n              swap1\n              pop\n                /* \"#utility.yul\":997:1030   */\n              tag_98\n                /* \"#utility.yul\":1024:1029   */\n              dup2\n                /* \"#utility.yul\":997:1030   */\n              tag_51\n              jump\t// in\n            tag_98:\n                /* \"#utility.yul\":897:1036   */\n              swap3\n              swap2\n              pop\n              pop\n              jump\t// out\n                /* \"#utility.yul\":1042:1371   */\n            tag_14:\n                /* \"#utility.yul\":1101:1107   */\n              0x00\n                /* \"#utility.yul\":1150:1152   */\n              0x20\n                /* \"#utility.yul\":1138:1147   */\n              dup3\n                /* \"#utility.yul\":1129:1136   */\n              dup5\n                /* \"#utility.yul\":1125:1148   */\n              sub\n                /* \"#utility.yul\":1121:1153   */\n              slt\n                /* \"#utility.yul\":1118:1237   */\n              iszero\n              tag_100\n              jumpi\n                /* \"#utility.yul\":1156:1235   */\n              tag_101\n              tag_49\n              jump\t// in\n            tag_101:\n                /* \"#utility.yul\":1118:1237   */\n            tag_100:\n                /* \"#utility.yul\":1276:1277   */\n              0x00\n                /* \"#utility.yul\":1301:1354   */\n              tag_102\n                /* \"#utility.yul\":1346:1353   */\n              dup5\n                /* \"#utility.yul\":1337:1343   */\n              dup3\n                /* \"#utility.yul\":1326:1335   */\n              dup6\n                /* \"#utility.yul\":1322:1344   */\n              add\n                /* \"#utility.yul\":1301:1354   */\n              tag_52\n              jump\t// in\n            tag_102:\n                /* \"#utility.yul\":1291:1354   */\n              swap2\n              pop\n                /* \"#utility.yul\":1247:1364   */\n              pop\n                /* \"#utility.yul\":1042:1371   */\n              swap3\n              swap2\n              pop\n              pop\n              jump\t// out\n                /* \"#utility.yul\":1377:1476   */\n            tag_53:\n                /* \"#utility.yul\":1429:1435   */\n              0x00\n                /* \"#utility.yul\":1463:1468   */\n              dup2\n                /* \"#utility.yul\":1457:1469   */\n              mload\n                /* \"#utility.yul\":1447:1469   */\n              swap1\n              pop\n                /* \"#utility.yul\":1377:1476   */\n              swap2\n              swap1\n              pop\n              jump\t// out\n                /* \"#utility.yul\":1482:1651   */\n            tag_54:\n                /* \"#utility.yul\":1566:1577   */\n              0x00\n                /* \"#utility.yul\":1600:1606   */\n              dup3\n                /* \"#utility.yul\":1595:1598   */\n              dup3\n                /* \"#utility.yul\":1588:1607   */\n              mstore\n                /* \"#utility.yul\":1640:1644   */\n              0x20\n                /* \"#utility.yul\":1635:1638   */\n              dup3\n                /* \"#utility.yul\":1631:1645   */\n              add\n                /* \"#utility.yul\":1616:1645   */\n              swap1\n              pop\n                /* \"#utility.yul\":1482:1651   */\n              swap3\n              swap2\n              pop\n              pop\n              jump\t// out\n                /* \"#utility.yul\":1657:1796   */\n            tag_55:\n                /* \"#utility.yul\":1746:1752   */\n              dup3\n                /* \"#utility.yul\":1741:1744   */\n              dup2\n                /* \"#utility.yul\":1736:1739   */\n              dup4\n                /* \"#utility.yul\":1730:1753   */\n              mcopy\n                /* \"#utility.yul\":1787:1788   */\n              0x00\n                /* \"#utility.yul\":1778:1784   */\n              dup4\n                /* \"#utility.yul\":1773:1776   */\n              dup4\n                /* \"#utility.yul\":1769:1785   */\n              add\n                /* \"#utility.yul\":1762:1789   */\n              mstore\n                /* \"#utility.yul\":1657:1796   */\n              pop\n              pop\n              pop\n              jump\t// out\n                /* \"#utility.yul\":1802:1904   */\n            tag_56:\n                /* \"#utility.yul\":1843:1849   */\n              0x00\n                /* \"#utility.yul\":1894:1896   */\n              0x1f\n                /* \"#utility.yul\":1890:1897   */\n              not\n                /* \"#utility.yul\":1885:1887   */\n              0x1f\n                /* \"#utility.yul\":1878:1883   */\n              dup4\n                /* \"#utility.yul\":1874:1888   */\n              add\n                /* \"#utility.yul\":1870:1898   */\n              and\n                /* \"#utility.yul\":1860:1898   */\n              swap1\n              pop\n                /* \"#utility.yul\":1802:1904   */\n              swap2\n              swap1\n              pop\n              jump\t// out\n                /* \"#utility.yul\":1910:2287   */\n            tag_57:\n                /* \"#utility.yul\":1998:2001   */\n              0x00\n                /* \"#utility.yul\":2026:2065   */\n              tag_108\n                /* \"#utility.yul\":2059:2064   */\n              dup3\n                /* \"#utility.yul\":2026:2065   */\n              tag_53\n              jump\t// in\n            tag_108:\n                /* \"#utility.yul\":2081:2152   */\n              tag_109\n                /* \"#utility.yul\":2145:2151   */\n              dup2\n                /* \"#utility.yul\":2140:2143   */\n              dup6\n                /* \"#utility.yul\":2081:2152   */\n              tag_54\n              jump\t// in\n            tag_109:\n                /* \"#utility.yul\":2074:2152   */\n              swap4\n              pop\n                /* \"#utility.yul\":2161:2226   */\n              tag_110\n                /* \"#utility.yul\":2219:2225   */\n              dup2\n                /* \"#utility.yul\":2214:2217   */\n              dup6\n                /* \"#utility.yul\":2207:2211   */\n              0x20\n                /* \"#utility.yul\":2200:2205   */\n              dup7\n                /* \"#utility.yul\":2196:2212   */\n              add\n                /* \"#utility.yul\":2161:2226   */\n              tag_55\n              jump\t// in\n            tag_110:\n                /* \"#utility.yul\":2251:2280   */\n              tag_111\n                /* \"#utility.yul\":2273:2279   */\n              dup2\n                /* \"#utility.yul\":2251:2280   */\n              tag_56\n              jump\t// in\n            tag_111:\n                /* \"#utility.yul\":2246:2249   */\n              dup5\n                /* \"#utility.yul\":2242:2281   */\n              add\n                /* \"#utility.yul\":2235:2281   */\n              swap2\n              pop\n                /* \"#utility.yul\":2002:2287   */\n              pop\n                /* \"#utility.yul\":1910:2287   */\n              swap3\n              swap2\n              pop\n              pop\n              jump\t// out\n                /* \"#utility.yul\":2293:2716   */\n            tag_17:\n                /* \"#utility.yul\":2434:2438   */\n              0x00\n                /* \"#utility.yul\":2472:2474   */\n              0x40\n                /* \"#utility.yul\":2461:2470   */\n              dup3\n                /* \"#utility.yul\":2457:2475   */\n              add\n                /* \"#utility.yul\":2449:2475   */\n              swap1\n              pop\n                /* \"#utility.yul\":2485:2556   */\n              tag_113\n                /* \"#utility.yul\":2553:2554   */\n              0x00\n                /* \"#utility.yul\":2542:2551   */\n              dup4\n                /* \"#utility.yul\":2538:2555   */\n              add\n                /* \"#utility.yul\":2529:2535   */\n              dup6\n                /* \"#utility.yul\":2485:2556   */\n              tag_47\n              jump\t// in\n            tag_113:\n                /* \"#utility.yul\":2603:2612   */\n              dup2\n                /* \"#utility.yul\":2597:2601   */\n              dup2\n                /* \"#utility.yul\":2593:2613   */\n              sub\n                /* \"#utility.yul\":2588:2590   */\n              0x20\n                /* \"#utility.yul\":2577:2586   */\n              dup4\n                /* \"#utility.yul\":2573:2591   */\n              add\n                /* \"#utility.yul\":2566:2614   */\n              mstore\n                /* \"#utility.yul\":2631:2709   */\n              tag_114\n                /* \"#utility.yul\":2704:2708   */\n              dup2\n                /* \"#utility.yul\":2695:2701   */\n              dup5\n                /* \"#utility.yul\":2631:2709   */\n              tag_57\n              jump\t// in\n            tag_114:\n                /* \"#utility.yul\":2623:2709   */\n              swap1\n              pop\n                /* \"#utility.yul\":2293:2716   */\n              swap4\n              swap3\n              pop\n              pop\n              pop\n              jump\t// out\n                /* \"#utility.yul\":2722:2839   */\n            tag_58:\n                /* \"#utility.yul\":2831:2832   */\n              0x00\n                /* \"#utility.yul\":2828:2829   */\n              0x00\n                /* \"#utility.yul\":2821:2833   */\n              revert\n                /* \"#utility.yul\":2845:2962   */\n            tag_59:\n                /* \"#utility.yul\":2954:2955   */\n              0x00\n                /* \"#utility.yul\":2951:2952   */\n              0x00\n                /* \"#utility.yul\":2944:2956   */\n              revert\n                /* \"#utility.yul\":2968:3148   */\n            tag_60:\n                /* \"#utility.yul\":3016:3093   */\n              0x4e487b7100000000000000000000000000000000000000000000000000000000\n                /* \"#utility.yul\":3013:3014   */\n              0x00\n                /* \"#utility.yul\":3006:3094   */\n              mstore\n                /* \"#utility.yul\":3113:3117   */\n              0x41\n                /* \"#utility.yul\":3110:3111   */\n              0x04\n                /* \"#utility.yul\":3103:3118   */\n              mstore\n                /* \"#utility.yul\":3137:3141   */\n              0x24\n                /* \"#utility.yul\":3134:3135   */\n              0x00\n                /* \"#utility.yul\":3127:3142   */\n              revert\n                /* \"#utility.yul\":3154:3435   */\n            tag_61:\n                /* \"#utility.yul\":3237:3264   */\n              tag_119\n                /* \"#utility.yul\":3259:3263   */\n              dup3\n                /* \"#utility.yul\":3237:3264   */\n              tag_56\n              jump\t// in\n            tag_119:\n                /* \"#utility.yul\":3229:3235   */\n              dup2\n                /* \"#utility.yul\":3225:3265   */\n              add\n                /* \"#utility.yul\":3367:3373   */\n              dup2\n                /* \"#utility.yul\":3355:3365   */\n              dup2\n                /* \"#utility.yul\":3352:3374   */\n              lt\n                /* \"#utility.yul\":3331:3349   */\n              0xffffffffffffffff\n                /* \"#utility.yul\":3319:3329   */\n              dup3\n                /* \"#utility.yul\":3316:3350   */\n              gt\n                /* \"#utility.yul\":3313:3375   */\n              or\n                /* \"#utility.yul\":3310:3398   */\n              iszero\n              tag_120\n              jumpi\n                /* \"#utility.yul\":3378:3396   */\n              tag_121\n              tag_60\n              jump\t// in\n            tag_121:\n                /* \"#utility.yul\":3310:3398   */\n            tag_120:\n                /* \"#utility.yul\":3418:3428   */\n              dup1\n                /* \"#utility.yul\":3414:3416   */\n              0x40\n                /* \"#utility.yul\":3407:3429   */\n              mstore\n                /* \"#utility.yul\":3197:3435   */\n              pop\n                /* \"#utility.yul\":3154:3435   */\n              pop\n              pop\n              jump\t// out\n                /* \"#utility.yul\":3441:3570   */\n            tag_62:\n                /* \"#utility.yul\":3475:3481   */\n              0x00\n                /* \"#utility.yul\":3502:3522   */\n              tag_123\n              tag_48\n              jump\t// in\n            tag_123:\n                /* \"#utility.yul\":3492:3522   */\n              swap1\n              pop\n                /* \"#utility.yul\":3531:3564   */\n              tag_124\n                /* \"#utility.yul\":3559:3563   */\n              dup3\n                /* \"#utility.yul\":3551:3557   */\n              dup3\n                /* \"#utility.yul\":3531:3564   */\n              tag_61\n              jump\t// in\n            tag_124:\n                /* \"#utility.yul\":3441:3570   */\n              swap2\n              swap1\n              pop\n              jump\t// out\n                /* \"#utility.yul\":3576:3884   */\n            tag_63:\n                /* \"#utility.yul\":3638:3642   */\n              0x00\n                /* \"#utility.yul\":3728:3746   */\n              0xffffffffffffffff\n                /* \"#utility.yul\":3720:3726   */\n              dup3\n                /* \"#utility.yul\":3717:3747   */\n              gt\n                /* \"#utility.yul\":3714:3770   */\n              iszero\n              tag_126\n              jumpi\n                /* \"#utility.yul\":3750:3768   */\n              tag_127\n              tag_60\n              jump\t// in\n            tag_127:\n                /* \"#utility.yul\":3714:3770   */\n            tag_126:\n                /* \"#utility.yul\":3788:3817   */\n              tag_128\n                /* \"#utility.yul\":3810:3816   */\n              dup3\n                /* \"#utility.yul\":3788:3817   */\n              tag_56\n              jump\t// in\n            tag_128:\n                /* \"#utility.yul\":3780:3817   */\n              swap1\n              pop\n                /* \"#utility.yul\":3872:3876   */\n              0x20\n                /* \"#utility.yul\":3866:3870   */\n              dup2\n                /* \"#utility.yul\":3862:3877   */\n              add\n                /* \"#utility.yul\":3854:3877   */\n              swap1\n              pop\n                /* \"#utility.yul\":3576:3884   */\n              swap2\n              swap1\n              pop\n              jump\t// out\n                /* \"#utility.yul\":3890:4038   */\n            tag_64:\n                /* \"#utility.yul\":3988:3994   */\n              dup3\n                /* \"#utility.yul\":3983:3986   */\n              dup2\n                /* \"#utility.yul\":3978:3981   */\n              dup4\n                /* \"#utility.yul\":3965:3995   */\n              calldatacopy\n                /* \"#utility.yul\":4029:4030   */\n              0x00\n                /* \"#utility.yul\":4020:4026   */\n              dup4\n                /* \"#utility.yul\":4015:4018   */\n              dup4\n                /* \"#utility.yul\":4011:4027   */\n              add\n                /* \"#utility.yul\":4004:4031   */\n              mstore\n                /* \"#utility.yul\":3890:4038   */\n              pop\n              pop\n              pop\n              jump\t// out\n                /* \"#utility.yul\":4044:4469   */\n            tag_65:\n                /* \"#utility.yul\":4122:4127   */\n              0x00\n                /* \"#utility.yul\":4147:4213   */\n              tag_131\n                /* \"#utility.yul\":4163:4212   */\n              tag_132\n                /* \"#utility.yul\":4205:4211   */\n              dup5\n                /* \"#utility.yul\":4163:4212   */\n              tag_63\n              jump\t// in\n            tag_132:\n                /* \"#utility.yul\":4147:4213   */\n              tag_62\n              jump\t// in\n            tag_131:\n                /* \"#utility.yul\":4138:4213   */\n              swap1\n              pop\n                /* \"#utility.yul\":4236:4242   */\n              dup3\n                /* \"#utility.yul\":4229:4234   */\n              dup2\n                /* \"#utility.yul\":4222:4243   */\n              mstore\n                /* \"#utility.yul\":4274:4278   */\n              0x20\n                /* \"#utility.yul\":4267:4272   */\n              dup2\n                /* \"#utility.yul\":4263:4279   */\n              add\n                /* \"#utility.yul\":4312:4315   */\n              dup5\n                /* \"#utility.yul\":4303:4309   */\n              dup5\n                /* \"#utility.yul\":4298:4301   */\n              dup5\n                /* \"#utility.yul\":4294:4310   */\n              add\n                /* \"#utility.yul\":4291:4316   */\n              gt\n                /* \"#utility.yul\":4288:4400   */\n              iszero\n              tag_133\n              jumpi\n                /* \"#utility.yul\":4319:4398   */\n              tag_134\n              tag_59\n              jump\t// in\n            tag_134:\n                /* \"#utility.yul\":4288:4400   */\n            tag_133:\n                /* \"#utility.yul\":4409:4463   */\n              tag_135\n                /* \"#utility.yul\":4456:4462   */\n              dup5\n                /* \"#utility.yul\":4451:4454   */\n              dup3\n                /* \"#utility.yul\":4446:4449   */\n              dup6\n                /* \"#utility.yul\":4409:4463   */\n              tag_64\n              jump\t// in\n            tag_135:\n                /* \"#utility.yul\":4128:4469   */\n              pop\n                /* \"#utility.yul\":4044:4469   */\n              swap4\n              swap3\n              pop\n              pop\n              pop\n              jump\t// out\n                /* \"#utility.yul\":4489:4829   */\n            tag_66:\n                /* \"#utility.yul\":4545:4550   */\n              0x00\n                /* \"#utility.yul\":4594:4597   */\n              dup3\n                /* \"#utility.yul\":4587:4591   */\n              0x1f\n                /* \"#utility.yul\":4579:4585   */\n              dup4\n                /* \"#utility.yul\":4575:4592   */\n              add\n                /* \"#utility.yul\":4571:4598   */\n              slt\n                /* \"#utility.yul\":4561:4683   */\n              tag_137\n              jumpi\n                /* \"#utility.yul\":4602:4681   */\n              tag_138\n              tag_58\n              jump\t// in\n            tag_138:\n                /* \"#utility.yul\":4561:4683   */\n            tag_137:\n                /* \"#utility.yul\":4719:4725   */\n              dup2\n                /* \"#utility.yul\":4706:4726   */\n              calldataload\n                /* \"#utility.yul\":4744:4823   */\n              tag_139\n                /* \"#utility.yul\":4819:4822   */\n              dup5\n                /* \"#utility.yul\":4811:4817   */\n              dup3\n                /* \"#utility.yul\":4804:4808   */\n              0x20\n                /* \"#utility.yul\":4796:4802   */\n              dup7\n                /* \"#utility.yul\":4792:4809   */\n              add\n                /* \"#utility.yul\":4744:4823   */\n              tag_65\n              jump\t// in\n            tag_139:\n                /* \"#utility.yul\":4735:4823   */\n              swap2\n              pop\n                /* \"#utility.yul\":4551:4829   */\n              pop\n                /* \"#utility.yul\":4489:4829   */\n              swap3\n              swap2\n              pop\n              pop\n              jump\t// out\n                /* \"#utility.yul\":4835:5489   */\n            tag_23:\n                /* \"#utility.yul\":4913:4919   */\n              0x00\n                /* \"#utility.yul\":4921:4927   */\n              0x00\n                /* \"#utility.yul\":4970:4972   */\n              0x40\n                /* \"#utility.yul\":4958:4967   */\n              dup4\n                /* \"#utility.yul\":4949:4956   */\n              dup6\n                /* \"#utility.yul\":4945:4968   */\n              sub\n                /* \"#utility.yul\":4941:4973   */\n              slt\n                /* \"#utility.yul\":4938:5057   */\n              iszero\n              tag_141\n              jumpi\n                /* \"#utility.yul\":4976:5055   */\n              tag_142\n              tag_49\n              jump\t// in\n            tag_142:\n                /* \"#utility.yul\":4938:5057   */\n            tag_141:\n                /* \"#utility.yul\":5124:5125   */\n              0x00\n                /* \"#utility.yul\":5113:5122   */\n              dup4\n                /* \"#utility.yul\":5109:5126   */\n              add\n                /* \"#utility.yul\":5096:5127   */\n              calldataload\n                /* \"#utility.yul\":5154:5172   */\n              0xffffffffffffffff\n                /* \"#utility.yul\":5146:5152   */\n              dup2\n                /* \"#utility.yul\":5143:5173   */\n              gt\n                /* \"#utility.yul\":5140:5257   */\n              iszero\n              tag_143\n              jumpi\n                /* \"#utility.yul\":5176:5255   */\n              tag_144\n              tag_50\n              jump\t// in\n            tag_144:\n                /* \"#utility.yul\":5140:5257   */\n            tag_143:\n                /* \"#utility.yul\":5281:5344   */\n              tag_145\n                /* \"#utility.yul\":5336:5343   */\n              dup6\n                /* \"#utility.yul\":5327:5333   */\n              dup3\n                /* \"#utility.yul\":5316:5325   */\n              dup7\n                /* \"#utility.yul\":5312:5334   */\n              add\n                /* \"#utility.yul\":5281:5344   */\n              tag_66\n              jump\t// in\n            tag_145:\n                /* \"#utility.yul\":5271:5344   */\n              swap3\n              pop\n                /* \"#utility.yul\":5067:5354   */\n              pop\n                /* \"#utility.yul\":5393:5395   */\n              0x20\n                /* \"#utility.yul\":5419:5472   */\n              tag_146\n                /* \"#utility.yul\":5464:5471   */\n              dup6\n                /* \"#utility.yul\":5455:5461   */\n              dup3\n                /* \"#utility.yul\":5444:5453   */\n              dup7\n                /* \"#utility.yul\":5440:5462   */\n              add\n                /* \"#utility.yul\":5419:5472   */\n              tag_52\n              jump\t// in\n            tag_146:\n                /* \"#utility.yul\":5409:5472   */\n              swap2\n              pop\n                /* \"#utility.yul\":5364:5482   */\n              pop\n                /* \"#utility.yul\":4835:5489   */\n              swap3\n              pop\n              swap3\n              swap1\n              pop\n              jump\t// out\n                /* \"#utility.yul\":5495:6004   */\n            tag_27:\n                /* \"#utility.yul\":5564:5570   */\n              0x00\n                /* \"#utility.yul\":5613:5615   */\n              0x20\n                /* \"#utility.yul\":5601:5610   */\n              dup3\n                /* \"#utility.yul\":5592:5599   */\n              dup5\n                /* \"#utility.yul\":5588:5611   */\n              sub\n                /* \"#utility.yul\":5584:5616   */\n              slt\n                /* \"#utility.yul\":5581:5700   */\n              iszero\n              tag_148\n              jumpi\n                /* \"#utility.yul\":5619:5698   */\n              tag_149\n              tag_49\n              jump\t// in\n            tag_149:\n                /* \"#utility.yul\":5581:5700   */\n            tag_148:\n                /* \"#utility.yul\":5767:5768   */\n              0x00\n                /* \"#utility.yul\":5756:5765   */\n              dup3\n                /* \"#utility.yul\":5752:5769   */\n              add\n                /* \"#utility.yul\":5739:5770   */\n              calldataload\n                /* \"#utility.yul\":5797:5815   */\n              0xffffffffffffffff\n                /* \"#utility.yul\":5789:5795   */\n              dup2\n                /* \"#utility.yul\":5786:5816   */\n              gt\n                /* \"#utility.yul\":5783:5900   */\n              iszero\n              tag_150\n              jumpi\n                /* \"#utility.yul\":5819:5898   */\n              tag_151\n              tag_50\n              jump\t// in\n            tag_151:\n                /* \"#utility.yul\":5783:5900   */\n            tag_150:\n                /* \"#utility.yul\":5924:5987   */\n              tag_152\n                /* \"#utility.yul\":5979:5986   */\n              dup5\n                /* \"#utility.yul\":5970:5976   */\n              dup3\n                /* \"#utility.yul\":5959:5968   */\n              dup6\n                /* \"#utility.yul\":5955:5977   */\n              add\n                /* \"#utility.yul\":5924:5987   */\n              tag_66\n              jump\t// in\n            tag_152:\n                /* \"#utility.yul\":5914:5987   */\n              swap2\n              pop\n                /* \"#utility.yul\":5710:5997   */\n              pop\n                /* \"#utility.yul\":5495:6004   */\n              swap3\n              swap2\n              pop\n              pop\n              jump\t// out\n                /* \"#utility.yul\":6010:6190   */\n            tag_67:\n                /* \"#utility.yul\":6058:6135   */\n              0x4e487b7100000000000000000000000000000000000000000000000000000000\n                /* \"#utility.yul\":6055:6056   */\n              0x00\n                /* \"#utility.yul\":6048:6136   */\n              mstore\n                /* \"#utility.yul\":6155:6159   */\n              0x22\n                /* \"#utility.yul\":6152:6153   */\n              0x04\n                /* \"#utility.yul\":6145:6160   */\n              mstore\n                /* \"#utility.yul\":6179:6183   */\n              0x24\n                /* \"#utility.yul\":6176:6177   */\n              0x00\n                /* \"#utility.yul\":6169:6184   */\n              revert\n                /* \"#utility.yul\":6196:6516   */\n            tag_34:\n                /* \"#utility.yul\":6240:6246   */\n              0x00\n                /* \"#utility.yul\":6277:6278   */\n              0x02\n                /* \"#utility.yul\":6271:6275   */\n              dup3\n                /* \"#utility.yul\":6267:6279   */\n              div\n                /* \"#utility.yul\":6257:6279   */\n              swap1\n              pop\n                /* \"#utility.yul\":6324:6325   */\n              0x01\n                /* \"#utility.yul\":6318:6322   */\n              dup3\n                /* \"#utility.yul\":6314:6326   */\n              and\n                /* \"#utility.yul\":6345:6363   */\n              dup1\n                /* \"#utility.yul\":6335:6416   */\n              tag_155\n              jumpi\n                /* \"#utility.yul\":6401:6405   */\n              0x7f\n                /* \"#utility.yul\":6393:6399   */\n              dup3\n                /* \"#utility.yul\":6389:6406   */\n              and\n                /* \"#utility.yul\":6379:6406   */\n              swap2\n              pop\n                /* \"#utility.yul\":6335:6416   */\n            tag_155:\n                /* \"#utility.yul\":6463:6465   */\n              0x20\n                /* \"#utility.yul\":6455:6461   */\n              dup3\n                /* \"#utility.yul\":6452:6466   */\n              lt\n                /* \"#utility.yul\":6432:6450   */\n              dup2\n                /* \"#utility.yul\":6429:6467   */\n              sub\n                /* \"#utility.yul\":6426:6510   */\n              tag_156\n              jumpi\n                /* \"#utility.yul\":6482:6500   */\n              tag_157\n              tag_67\n              jump\t// in\n            tag_157:\n                /* \"#utility.yul\":6426:6510   */\n            tag_156:\n                /* \"#utility.yul\":6247:6516   */\n              pop\n                /* \"#utility.yul\":6196:6516   */\n              swap2\n              swap1\n              pop\n              jump\t// out\n                /* \"#utility.yul\":6522:6663   */\n            tag_68:\n                /* \"#utility.yul\":6571:6575   */\n              0x00\n                /* \"#utility.yul\":6594:6597   */\n              dup2\n                /* \"#utility.yul\":6586:6597   */\n              swap1\n              pop\n                /* \"#utility.yul\":6617:6620   */\n              dup2\n                /* \"#utility.yul\":6614:6615   */\n              0x00\n                /* \"#utility.yul\":6607:6621   */\n              mstore\n                /* \"#utility.yul\":6651:6655   */\n              0x20\n                /* \"#utility.yul\":6648:6649   */\n              0x00\n                /* \"#utility.yul\":6638:6656   */\n              keccak256\n                /* \"#utility.yul\":6630:6656   */\n              swap1\n              pop\n                /* \"#utility.yul\":6522:6663   */\n              swap2\n              swap1\n              pop\n              jump\t// out\n                /* \"#utility.yul\":6669:6762   */\n            tag_69:\n                /* \"#utility.yul\":6706:6712   */\n              0x00\n                /* \"#utility.yul\":6753:6755   */\n              0x20\n                /* \"#utility.yul\":6748:6750   */\n              0x1f\n                /* \"#utility.yul\":6741:6746   */\n              dup4\n                /* \"#utility.yul\":6737:6751   */\n              add\n                /* \"#utility.yul\":6733:6756   */\n              div\n                /* \"#utility.yul\":6723:6756   */\n              swap1\n              pop\n                /* \"#utility.yul\":6669:6762   */\n              swap2\n              swap1\n              pop\n              jump\t// out\n                /* \"#utility.yul\":6768:6875   */\n            tag_70:\n                /* \"#utility.yul\":6812:6820   */\n              0x00\n                /* \"#utility.yul\":6862:6867   */\n              dup3\n                /* \"#utility.yul\":6856:6860   */\n              dup3\n                /* \"#utility.yul\":6852:6868   */\n              shl\n                /* \"#utility.yul\":6831:6868   */\n              swap1\n              pop\n                /* \"#utility.yul\":6768:6875   */\n              swap3\n              swap2\n              pop\n              pop\n              jump\t// out\n                /* \"#utility.yul\":6881:7274   */\n            tag_71:\n                /* \"#utility.yul\":6950:6956   */\n              0x00\n                /* \"#utility.yul\":7000:7001   */\n              0x08\n                /* \"#utility.yul\":6988:6998   */\n              dup4\n                /* \"#utility.yul\":6984:7002   */\n              mul\n                /* \"#utility.yul\":7023:7120   */\n              tag_162\n                /* \"#utility.yul\":7053:7119   */\n              0xffffffffffffffffffffffffffffffffffffffffffffffffffffffffffffffff\n                /* \"#utility.yul\":7042:7051   */\n              dup3\n                /* \"#utility.yul\":7023:7120   */\n              tag_70\n              jump\t// in\n            tag_162:\n                /* \"#utility.yul\":7141:7180   */\n              tag_163\n                /* \"#utility.yul\":7171:7179   */\n              dup7\n                /* \"#utility.yul\":7160:7169   */\n              dup4\n                /* \"#utility.yul\":7141:7180   */\n              tag_70\n              jump\t// in\n            tag_163:\n                /* \"#utility.yul\":7129:7180   */\n              swap6\n              pop\n                /* \"#utility.yul\":7213:7217   */\n              dup1\n                /* \"#utility.yul\":7209:7218   */\n              not\n                /* \"#utility.yul\":7202:7207   */\n              dup5\n                /* \"#utility.yul\":7198:7219   */\n              and\n                /* \"#utility.yul\":7189:7219   */\n              swap4\n              pop\n                /* \"#utility.yul\":7262:7266   */\n              dup1\n                /* \"#utility.yul\":7252:7260   */\n              dup7\n                /* \"#utility.yul\":7248:7267   */\n              and\n                /* \"#utility.yul\":7241:7246   */\n              dup5\n                /* \"#utility.yul\":7238:7268   */\n              or\n                /* \"#utility.yul\":7228:7268   */\n              swap3\n              pop\n                /* \"#utility.yul\":6957:7274   */\n              pop\n              pop\n                /* \"#utility.yul\":6881:7274   */\n              swap4\n              swap3\n              pop\n              pop\n              pop\n              jump\t// out\n                /* \"#utility.yul\":7280:7340   */\n            tag_72:\n                /* \"#utility.yul\":7308:7311   */\n              0x00\n                /* \"#utility.yul\":7329:7334   */\n              dup2\n                /* \"#utility.yul\":7322:7334   */\n              swap1\n              pop\n                /* \"#utility.yul\":7280:7340   */\n              swap2\n              swap1\n              pop\n              jump\t// out\n                /* \"#utility.yul\":7346:7488   */\n            tag_73:\n                /* \"#utility.yul\":7396:7405   */\n              0x00\n                /* \"#utility.yul\":7429:7482   */\n              tag_166\n                /* \"#utility.yul\":7447:7481   */\n              tag_167\n                /* \"#utility.yul\":7456:7480   */\n              tag_168\n                /* \"#utility.yul\":7474:7479   */\n              dup5\n                /* \"#utility.yul\":7456:7480   */\n              tag_46\n              jump\t// in\n            tag_168:\n                /* \"#utility.yul\":7447:7481   */\n              tag_72\n              jump\t// in\n            tag_167:\n                /* \"#utility.yul\":7429:7482   */\n              tag_46\n              jump\t// in\n            tag_166:\n                /* \"#utility.yul\":7416:7482   */\n              swap1\n              pop\n                /* \"#utility.yul\":7346:7488   */\n              swap2\n              swap1\n              pop\n              jump\t// out\n                /* \"#utility.yul\":7494:7569   */\n            tag_74:\n                /* \"#utility.yul\":7537:7540   */\n              0x00\n                /* \"#utility.yul\":7558:7563   */\n              dup2\n                /* \"#utility.yul\":7551:7563   */\n              swap1\n              pop\n                /* \"#utility.yul\":7494:7569   */\n              swap2\n              swap1\n              pop\n              jump\t// out\n                /* \"#utility.yul\":7575:7844   */\n            tag_75:\n                /* \"#utility.yul\":7685:7724   */\n              tag_171\n                /* \"#utility.yul\":7716:7723   */\n              dup4\n                /* \"#utility.yul\":7685:7724   */\n              tag_73\n              jump\t// in\n            tag_171:\n                /* \"#utility.yul\":7746:7837   */\n              tag_172\n                /* \"#utility.yul\":7795:7836   */\n              tag_173\n                /* \"#utility.yul\":7819:7835   */\n              dup3\n                /* \"#utility.yul\":7795:7836   */\n              tag_74\n              jump\t// in\n            tag_173:\n                /* \"#utility.yul\":7787:7793   */\n              dup5\n                /* \"#utility.yul\":7780:7784   */\n              dup5\n                /* \"#utility.yul\":7774:7785   */\n              sload\n                /* \"#utility.yul\":7746:7837   */\n              tag_71\n              jump\t// in\n            tag_172:\n                /* \"#utility.yul\":7740:7744   */\n              dup3\n                /* \"#utility.yul\":7733:7838   */\n              sstore\n                /* \"#utility.yul\":7651:7844   */\n              pop\n                /* \"#utility.yul\":7575:7844   */\n              pop\n              pop\n              pop\n              jump\t// out\n                /* \"#utility.yul\":7850:7923   */\n            tag_76:\n                /* \"#utility.yul\":7895:7898   */\n              0x00\n                /* \"#utility.yul\":7916:7917   */\n              0x00\n                /* \"#utility.yul\":7909:7917   */\n              swap1\n              pop\n                /* \"#utility.yul\":7850:7923   */\n              swap1\n              jump\t// out\n                /* \"#utility.yul\":7929:8118   */\n            tag_77:\n                /* \"#utility.yul\":8006:8038   */\n              tag_176\n              tag_76\n              jump\t// in\n            tag_176:\n                /* \"#utility.yul\":8047:8112   */\n              tag_177\n                /* \"#utility.yul\":8105:8111   */\n              dup2\n                /* \"#utility.yul\":8097:8103   */\n              dup5\n                /* \"#utility.yul\":8091:8095   */\n              dup5\n                /* \"#utility.yul\":8047:8112   */\n              tag_75\n              jump\t// in\n            tag_177:\n                /* \"#utility.yul\":7982:8118   */\n              pop\n                /* \"#utility.yul\":7929:8118   */\n              pop\n              pop\n              jump\t// out\n                /* \"#utility.yul\":8124:8310   */\n            tag_78:\n                /* \"#utility.yul\":8184:8304   */\n            tag_179:\n                /* \"#utility.yul\":8201:8204   */\n              dup2\n                /* \"#utility.yul\":8194:8199   */\n              dup2\n                /* \"#utility.yul\":8191:8205   */\n              lt\n                /* \"#utility.yul\":8184:8304   */\n              iszero\n              tag_181\n              jumpi\n                /* \"#utility.yul\":8255:8294   */\n              tag_182\n                /* \"#utility.yul\":8292:8293   */\n              0x00\n                /* \"#utility.yul\":8285:8290   */\n              dup3\n                /* \"#utility.yul\":8255:8294   */\n              tag_77\n              jump\t// in\n            tag_182:\n                /* \"#utility.yul\":8228:8229   */\n              0x01\n                /* \"#utility.yul\":8221:8226   */\n              dup2\n                /* \"#utility.yul\":8217:8230   */\n              add\n                /* \"#utility.yul\":8208:8230   */\n              swap1\n              pop\n                /* \"#utility.yul\":8184:8304   */\n              jump(tag_179)\n            tag_181:\n                /* \"#utility.yul\":8124:8310   */\n              pop\n              pop\n              jump\t// out\n                /* \"#utility.yul\":8316:8859   */\n            tag_79:\n                /* \"#utility.yul\":8417:8419   */\n              0x1f\n                /* \"#utility.yul\":8412:8415   */\n              dup3\n                /* \"#utility.yul\":8409:8420   */\n              gt\n                /* \"#utility.yul\":8406:8852   */\n              iszero\n              tag_184\n              jumpi\n                /* \"#utility.yul\":8451:8489   */\n              tag_185\n                /* \"#utility.yul\":8483:8488   */\n              dup2\n                /* \"#utility.yul\":8451:8489   */\n              tag_68\n              jump\t// in\n            tag_185:\n                /* \"#utility.yul\":8535:8564   */\n              tag_186\n                /* \"#utility.yul\":8553:8563   */\n              dup5\n                /* \"#utility.yul\":8535:8564   */\n              tag_69\n              jump\t// in\n            tag_186:\n                /* \"#utility.yul\":8525:8533   */\n              dup2\n                /* \"#utility.yul\":8521:8565   */\n              add\n                /* \"#utility.yul\":8718:8720   */\n              0x20\n                /* \"#utility.yul\":8706:8716   */\n              dup6\n                /* \"#utility.yul\":8703:8721   */\n              lt\n                /* \"#utility.yul\":8700:8749   */\n              iszero\n              tag_187\n              jumpi\n                /* \"#utility.yul\":8739:8747   */\n              dup2\n                /* \"#utility.yul\":8724:8747   */\n              swap1\n              pop\n                /* \"#utility.yul\":8700:8749   */\n            tag_187:\n                /* \"#utility.yul\":8762:8842   */\n              tag_188\n                /* \"#utility.yul\":8818:8840   */\n              tag_189\n                /* \"#utility.yul\":8836:8839   */\n              dup6\n                /* \"#utility.yul\":8818:8840   */\n              tag_69\n              jump\t// in\n            tag_189:\n                /* \"#utility.yul\":8808:8816   */\n              dup4\n                /* \"#utility.yul\":8804:8841   */\n              add\n                /* \"#utility.yul\":8791:8802   */\n              dup3\n                /* \"#utility.yul\":8762:8842   */\n              tag_78\n              jump\t// in\n            tag_188:\n                /* \"#utility.yul\":8421:8852   */\n              pop\n              pop\n                /* \"#utility.yul\":8406:8852   */\n            tag_184:\n                /* \"#utility.yul\":8316:8859   */\n              pop\n              pop\n              pop\n              jump\t// out\n                /* \"#utility.yul\":8865:8982   */\n            tag_80:\n                /* \"#utility.yul\":8919:8927   */\n              0x00\n                /* \"#utility.yul\":8969:8974   */\n              dup3\n                /* \"#utility.yul\":8963:8967   */\n              dup3\n                /* \"#utility.yul\":8959:8975   */\n              shr\n                /* \"#utility.yul\":8938:8975   */\n              swap1\n              pop\n                /* \"#utility.yul\":8865:8982   */\n              swap3\n              swap2\n              pop\n              pop\n              jump\t// out\n                /* \"#utility.yul\":8988:9157   */\n            tag_81:\n                /* \"#utility.yul\":9032:9038   */\n              0x00\n                /* \"#utility.yul\":9065:9116   */\n              tag_192\n                /* \"#utility.yul\":9113:9114   */\n              0x00\n                /* \"#utility.yul\":9109:9115   */\n              not\n                /* \"#utility.yul\":9101:9106   */\n              dup5\n                /* \"#utility.yul\":9098:9099   */\n              0x08\n                /* \"#utility.yul\":9094:9107   */\n              mul\n                /* \"#utility.yul\":9065:9116   */\n              tag_80\n              jump\t// in\n            tag_192:\n                /* \"#utility.yul\":9061:9117   */\n              not\n                /* \"#utility.yul\":9146:9150   */\n              dup1\n                /* \"#utility.yul\":9140:9144   */\n              dup4\n                /* \"#utility.yul\":9136:9151   */\n              and\n                /* \"#utility.yul\":9126:9151   */\n              swap2\n              pop\n                /* \"#utility.yul\":9039:9157   */\n              pop\n                /* \"#utility.yul\":8988:9157   */\n              swap3\n              swap2\n              pop\n              pop\n              jump\t// out\n                /* \"#utility.yul\":9162:9457   */\n            tag_82:\n                /* \"#utility.yul\":9238:9242   */\n              0x00\n                /* \"#utility.yul\":9384:9413   */\n              tag_194\n                /* \"#utility.yul\":9409:9412   */\n              dup4\n                /* \"#utility.yul\":9403:9407   */\n              dup4\n                /* \"#utility.yul\":9384:9413   */\n              tag_81\n              jump\t// in\n            tag_194:\n                /* \"#utility.yul\":9376:9413   */\n              swap2\n              pop\n                /* \"#utility.yul\":9446:9449   */\n              dup3\n                /* \"#utility.yul\":9443:9444   */\n              0x02\n                /* \"#utility.yul\":9439:9450   */\n              mul\n                /* \"#utility.yul\":9433:9437   */\n              dup3\n                /* \"#utility.yul\":9430:9451   */\n              or\n                /* \"#utility.yul\":9422:9451   */\n              swap1\n              pop\n                /* \"#utility.yul\":9162:9457   */\n              swap3\n              swap2\n              pop\n              pop\n              jump\t// out\n                /* \"#utility.yul\":9462:10857   */\n            tag_43:\n                /* \"#utility.yul\":9579:9616   */\n              tag_196\n                /* \"#utility.yul\":9612:9615   */\n              dup3\n                /* \"#utility.yul\":9579:9616   */\n              tag_53\n              jump\t// in\n            tag_196:\n                /* \"#utility.yul\":9681:9699   */\n              0xffffffffffffffff\n                /* \"#utility.yul\":9673:9679   */\n              dup2\n                /* \"#utility.yul\":9670:9700   */\n              gt\n                /* \"#utility.yul\":9667:9723   */\n              iszero\n              tag_197\n              jumpi\n                /* \"#utility.yul\":9703:9721   */\n              tag_198\n              tag_60\n              jump\t// in\n            tag_198:\n                /* \"#utility.yul\":9667:9723   */\n            tag_197:\n                /* \"#utility.yul\":9747:9785   */\n              tag_199\n                /* \"#utility.yul\":9779:9783   */\n              dup3\n                /* \"#utility.yul\":9773:9784   */\n              sload\n                /* \"#utility.yul\":9747:9785   */\n              tag_34\n              jump\t// in\n            tag_199:\n                /* \"#utility.yul\":9832:9899   */\n              tag_200\n                /* \"#utility.yul\":9892:9898   */\n              dup3\n                /* \"#utility.yul\":9884:9890   */\n              dup3\n                /* \"#utility.yul\":9878:9882   */\n              dup6\n                /* \"#utility.yul\":9832:9899   */\n              tag_79\n              jump\t// in\n            tag_200:\n                /* \"#utility.yul\":9926:9927   */\n              0x00\n                /* \"#utility.yul\":9950:9954   */\n              0x20\n                /* \"#utility.yul\":9937:9954   */\n              swap1\n              pop\n                /* \"#utility.yul\":9982:9984   */\n              0x1f\n                /* \"#utility.yul\":9974:9980   */\n              dup4\n                /* \"#utility.yul\":9971:9985   */\n              gt\n                /* \"#utility.yul\":9999:10000   */\n              0x01\n                /* \"#utility.yul\":9994:10612   */\n              dup2\n              eq\n              tag_202\n              jumpi\n                /* \"#utility.yul\":10656:10657   */\n              0x00\n                /* \"#utility.yul\":10673:10679   */\n              dup5\n                /* \"#utility.yul\":10670:10747   */\n              iszero\n              tag_203\n              jumpi\n                /* \"#utility.yul\":10722:10731   */\n              dup3\n                /* \"#utility.yul\":10717:10720   */\n              dup8\n                /* \"#utility.yul\":10713:10732   */\n              add\n                /* \"#utility.yul\":10707:10733   */\n              mload\n                /* \"#utility.yul\":10698:10733   */\n              swap1\n              pop\n                /* \"#utility.yul\":10670:10747   */\n            tag_203:\n                /* \"#utility.yul\":10773:10840   */\n              tag_204\n                /* \"#utility.yul\":10833:10839   */\n              dup6\n                /* \"#utility.yul\":10826:10831   */\n              dup3\n                /* \"#utility.yul\":10773:10840   */\n              tag_82\n              jump\t// in\n            tag_204:\n                /* \"#utility.yul\":10767:10771   */\n              dup7\n                /* \"#utility.yul\":10760:10841   */\n              sstore\n                /* \"#utility.yul\":10629:10851   */\n              pop\n                /* \"#utility.yul\":9964:10851   */\n              jump(tag_201)\n                /* \"#utility.yul\":9994:10612   */\n            tag_202:\n                /* \"#utility.yul\":10046:10050   */\n              0x1f\n                /* \"#utility.yul\":10042:10051   */\n              not\n                /* \"#utility.yul\":10034:10040   */\n              dup5\n                /* \"#utility.yul\":10030:10052   */\n              and\n                /* \"#utility.yul\":10080:10117   */\n              tag_205\n                /* \"#utility.yul\":10112:10116   */\n              dup7\n                /* \"#utility.yul\":10080:10117   */\n              tag_68\n              jump\t// in\n            tag_205:\n                /* \"#utility.yul\":10139:10140   */\n              0x00\n                /* \"#utility.yul\":10153:10361   */\n            tag_206:\n                /* \"#utility.yul\":10167:10174   */\n              dup3\n                /* \"#utility.yul\":10164:10165   */\n              dup2\n                /* \"#utility.yul\":10161:10175   */\n              lt\n                /* \"#utility.yul\":10153:10361   */\n              iszero\n              tag_208\n              jumpi\n                /* \"#utility.yul\":10246:10255   */\n              dup5\n                /* \"#utility.yul\":10241:10244   */\n              dup10\n                /* \"#utility.yul\":10237:10256   */\n              add\n                /* \"#utility.yul\":10231:10257   */\n              mload\n                /* \"#utility.yul\":10223:10229   */\n              dup3\n                /* \"#utility.yul\":10216:10258   */\n              sstore\n                /* \"#utility.yul\":10297:10298   */\n              0x01\n                /* \"#utility.yul\":10289:10295   */\n              dup3\n                /* \"#utility.yul\":10285:10299   */\n              add\n                /* \"#utility.yul\":10275:10299   */\n              swap2\n              pop\n                /* \"#utility.yul\":10344:10346   */\n              0x20\n                /* \"#utility.yul\":10333:10342   */\n              dup6\n                /* \"#utility.yul\":10329:10347   */\n              add\n                /* \"#utility.yul\":10316:10347   */\n              swap5\n              pop\n                /* \"#utility.yul\":10190:10194   */\n              0x20\n                /* \"#utility.yul\":10187:10188   */\n              dup2\n                /* \"#utility.yul\":10183:10195   */\n              add\n                /* \"#utility.yul\":10178:10195   */\n              swap1\n              pop\n                /* \"#utility.yul\":10153:10361   */\n              jump(tag_206)\n            tag_208:\n                /* \"#utility.yul\":10389:10395   */\n              dup7\n                /* \"#utility.yul\":10380:10387   */\n              dup4\n                /* \"#utility.yul\":10377:10396   */\n              lt\n                /* \"#utility.yul\":10374:10553   */\n              iszero\n              tag_209\n              jumpi\n                /* \"#utility.yul\":10447:10456   */\n              dup5\n                /* \"#utility.yul\":10442:10445   */\n              dup10\n                /* \"#utility.yul\":10438:10457   */\n              add\n                /* \"#utility.yul\":10432:10458   */\n              mload\n                /* \"#utility.yul\":10490:10538   */\n              tag_210\n                /* \"#utility.yul\":10532:10536   */\n              0x1f\n                /* \"#utility.yul\":10524:10530   */\n              dup10\n                /* \"#utility.yul\":10520:10537   */\n              and\n                /* \"#utility.yul\":10509:10518   */\n              dup3\n                /* \"#utility.yul\":10490:10538   */\n              tag_81\n              jump\t// in\n            tag_210:\n                /* \"#utility.yul\":10482:10488   */\n              dup4\n                /* \"#utility.yul\":10475:10539   */\n              sstore\n                /* \"#utility.yul\":10397:10553   */\n              pop\n                /* \"#utility.yul\":10374:10553   */\n            tag_209:\n                /* \"#utility.yul\":10599:10600   */\n              0x01\n                /* \"#utility.yul\":10595:10596   */\n              0x02\n                /* \"#utility.yul\":10587:10593   */\n              dup9\n                /* \"#utility.yul\":10583:10597   */\n              mul\n                /* \"#utility.yul\":10579:10601   */\n              add\n                /* \"#utility.yul\":10573:10577   */\n              dup9\n                /* \"#utility.yul\":10566:10602   */\n              sstore\n                /* \"#utility.yul\":10001:10612   */\n              pop\n              pop\n              pop\n                /* \"#utility.yul\":9964:10851   */\n            tag_201:\n              pop\n                /* \"#utility.yul\":9554:10857   */\n              pop\n              pop\n              pop\n                /* \"#utility.yul\":9462:10857   */\n              pop\n              pop\n              jump\t// out\n                /* \"#utility.yul\":10863:11011   */\n            tag_83:\n                /* \"#utility.yul\":10965:10976   */\n              0x00\n                /* \"#utility.yul\":11002:11005   */\n              dup2\n                /* \"#utility.yul\":10987:11005   */\n              swap1\n              pop\n                /* \"#utility.yul\":10863:11011   */\n              swap3\n              swap2\n              pop\n              pop\n              jump\t// out\n                /* \"#utility.yul\":11017:11407   */\n            tag_84:\n                /* \"#utility.yul\":11123:11126   */\n              0x00\n                /* \"#utility.yul\":11151:11190   */\n              tag_213\n                /* \"#utility.yul\":11184:11189   */\n              dup3\n                /* \"#utility.yul\":11151:11190   */\n              tag_53\n              jump\t// in\n            tag_213:\n                /* \"#utility.yul\":11206:11295   */\n              tag_214\n                /* \"#utility.yul\":11288:11294   */\n              dup2\n                /* \"#utility.yul\":11283:11286   */\n              dup6\n                /* \"#utility.yul\":11206:11295   */\n              tag_83\n              jump\t// in\n            tag_214:\n                /* \"#utility.yul\":11199:11295   */\n              swap4\n              pop\n                /* \"#utility.yul\":11304:11369   */\n              tag_215\n                /* \"#utility.yul\":11362:11368   */\n              dup2\n                /* \"#utility.yul\":11357:11360   */\n              dup6\n                /* \"#utility.yul\":11350:11354   */\n              0x20\n                /* \"#utility.yul\":11343:11348   */\n              dup7\n                /* \"#utility.yul\":11339:11355   */\n              add\n                /* \"#utility.yul\":11304:11369   */\n              tag_55\n              jump\t// in\n            tag_215:\n                /* \"#utility.yul\":11394:11400   */\n              dup1\n                /* \"#utility.yul\":11389:11392   */\n              dup5\n                /* \"#utility.yul\":11385:11401   */\n              add\n                /* \"#utility.yul\":11378:11401   */\n              swap2\n              pop\n                /* \"#utility.yul\":11127:11407   */\n              pop\n                /* \"#utility.yul\":11017:11407   */\n              swap3\n              swap2\n              pop\n              pop\n              jump\t// out\n                /* \"#utility.yul\":11413:11688   */\n            tag_45:\n                /* \"#utility.yul\":11545:11548   */\n              0x00\n                /* \"#utility.yul\":11567:11662   */\n              tag_217\n                /* \"#utility.yul\":11658:11661   */\n              dup3\n                /* \"#utility.yul\":11649:11655   */\n              dup5\n                /* \"#utility.yul\":11567:11662   */\n              tag_84\n              jump\t// in\n            tag_217:\n                /* \"#utility.yul\":11560:11662   */\n              swap2\n              pop\n                /* \"#utility.yul\":11679:11682   */\n              dup2\n                /* \"#utility.yul\":11672:11682   */\n              swap1\n              pop\n                /* \"#utility.yul\":11413:11688   */\n              swap3\n              swap2\n              pop\n              pop\n              jump\t// out\n\n            auxdata: 0xa26469706673582212206aecb56b52a7bb4c63fa78821c17f1062d755c9f16305dbaf3a5fa908f708eff64736f6c634300081e0033\n        }\n    }\n\n    auxdata: 0xa2646970667358221220677c65de6bfd82ee633a7ef3ffe604c6ac8d016ae4b3e3924fcbd546bef1fd7464736f6c634300081e0033\n}\n",
				"bytecode": {
					"linkReferences": {},
					"object": "6080604052348015600e575f5ffd5b50610ded8061001c5f395ff3fe608060405234801561000f575f5ffd5b506004361061004a575f3560e01c80636ed28ed01461004e5780639507d39a1461006a578063e89408881461009a578063eaa417ed146100a4575b5f5ffd5b61006860048036038101906100639190610330565b6100d4565b005b610084600480360381019061007f919061036e565b610178565b60405161009191906103a8565b60405180910390f35b6100a2610227565b005b6100be60048036038101906100b9919061036e565b6102b2565b6040516100cb919061043b565b60405180910390f35b5f82815481106100e7576100e6610454565b5b905f5260205f20015f9054906101000a900473ffffffffffffffffffffffffffffffffffffffff1673ffffffffffffffffffffffffffffffffffffffff16636057361d826040518263ffffffff1660e01b815260040161014791906103a8565b5f604051808303815f87803b15801561015e575f5ffd5b505af1158015610170573d5f5f3e3d5ffd5b505050505050565b5f5f828154811061018c5761018b610454565b5b905f5260205f20015f9054906101000a900473ffffffffffffffffffffffffffffffffffffffff1673ffffffffffffffffffffffffffffffffffffffff16632e64cec16040518163ffffffff1660e01b8152600401602060405180830381865afa1580156101fc573d5f5f3e3d5ffd5b505050506040513d601f19601f820116820180604052508101906102209190610495565b9050919050565b5f604051610234906102ec565b604051809103905ff08015801561024d573d5f5f3e3d5ffd5b5090505f81908060018154018082558091505060019003905f5260205f20015f9091909190916101000a81548173ffffffffffffffffffffffffffffffffffffffff021916908373ffffffffffffffffffffffffffffffffffffffff16021790555050565b5f81815481106102c0575f80fd5b905f5260205f20015f915054906101000a900473ffffffffffffffffffffffffffffffffffffffff1681565b6108f7806104c183390190565b5f5ffd5b5f819050919050565b61030f816102fd565b8114610319575f5ffd5b50565b5f8135905061032a81610306565b92915050565b5f5f60408385031215610346576103456102f9565b5b5f6103538582860161031c565b92505060206103648582860161031c565b9150509250929050565b5f60208284031215610383576103826102f9565b5b5f6103908482850161031c565b91505092915050565b6103a2816102fd565b82525050565b5f6020820190506103bb5f830184610399565b92915050565b5f73ffffffffffffffffffffffffffffffffffffffff82169050919050565b5f819050919050565b5f6104036103fe6103f9846103c1565b6103e0565b6103c1565b9050919050565b5f610414826103e9565b9050919050565b5f6104258261040a565b9050919050565b6104358161041b565b82525050565b5f60208201905061044e5f83018461042c565b92915050565b7f4e487b71000000000000000000000000000000000000000000000000000000005f52603260045260245ffd5b5f8151905061048f81610306565b92915050565b5f602082840312156104aa576104a96102f9565b5b5f6104b784828501610481565b9150509291505056fe6080604052348015600e575f5ffd5b506108db8061001c5f395ff3fe608060405234801561000f575f5ffd5b5060043610610055575f3560e01c80632e64cec1146100595780632ebce631146100775780636057361d146100a85780636f760f41146100c45780638bab8dd5146100e0575b5f5ffd5b610061610110565b60405161006e919061029f565b60405180910390f35b610091600480360381019061008c91906102f3565b610118565b60405161009f92919061038e565b60405180910390f35b6100c260048036038101906100bd91906102f3565b6101cd565b005b6100de60048036038101906100d991906104e8565b6101d6565b005b6100fa60048036038101906100f59190610542565b61025a565b604051610107919061029f565b60405180910390f35b5f5f54905090565b60018181548110610127575f80fd5b905f5260205f2090600202015f91509050805f01549080600101805461014c906105b6565b80601f0160208091040260200160405190810160405280929190818152602001828054610178906105b6565b80156101c35780601f1061019a576101008083540402835291602001916101c3565b820191905f5260205f20905b8154815290600101906020018083116101a657829003601f168201915b5050505050905082565b805f8190555050565b6001604051806040016040528083815260200184815250908060018154018082558091505060019003905f5260205f2090600202015f909190919091505f820151815f015560208201518160010190816102309190610786565b50505080600283604051610244919061088f565b9081526020016040518091039020819055505050565b6002818051602081018201805184825260208301602085012081835280955050505050505f915090505481565b5f819050919050565b61029981610287565b82525050565b5f6020820190506102b25f830184610290565b92915050565b5f604051905090565b5f5ffd5b5f5ffd5b6102d281610287565b81146102dc575f5ffd5b50565b5f813590506102ed816102c9565b92915050565b5f60208284031215610308576103076102c1565b5b5f610315848285016102df565b91505092915050565b5f81519050919050565b5f82825260208201905092915050565b8281835e5f83830152505050565b5f601f19601f8301169050919050565b5f6103608261031e565b61036a8185610328565b935061037a818560208601610338565b61038381610346565b840191505092915050565b5f6040820190506103a15f830185610290565b81810360208301526103b38184610356565b90509392505050565b5f5ffd5b5f5ffd5b7f4e487b71000000000000000000000000000000000000000000000000000000005f52604160045260245ffd5b6103fa82610346565b810181811067ffffffffffffffff82111715610419576104186103c4565b5b80604052505050565b5f61042b6102b8565b905061043782826103f1565b919050565b5f67ffffffffffffffff821115610456576104556103c4565b5b61045f82610346565b9050602081019050919050565b828183375f83830152505050565b5f61048c6104878461043c565b610422565b9050828152602081018484840111156104a8576104a76103c0565b5b6104b384828561046c565b509392505050565b5f82601f8301126104cf576104ce6103bc565b5b81356104df84826020860161047a565b91505092915050565b5f5f604083850312156104fe576104fd6102c1565b5b5f83013567ffffffffffffffff81111561051b5761051a6102c5565b5b610527858286016104bb565b9250506020610538858286016102df565b9150509250929050565b5f60208284031215610557576105566102c1565b5b5f82013567ffffffffffffffff811115610574576105736102c5565b5b610580848285016104bb565b91505092915050565b7f4e487b71000000000000000000000000000000000000000000000000000000005f52602260045260245ffd5b5f60028204905060018216806105cd57607f821691505b6020821081036105e0576105df610589565b5b50919050565b5f819050815f5260205f209050919050565b5f6020601f8301049050919050565b5f82821b905092915050565b5f600883026106427fffffffffffffffffffffffffffffffffffffffffffffffffffffffffffffffff82610607565b61064c8683610607565b95508019841693508086168417925050509392505050565b5f819050919050565b5f61068761068261067d84610287565b610664565b610287565b9050919050565b5f819050919050565b6106a08361066d565b6106b46106ac8261068e565b848454610613565b825550505050565b5f5f905090565b6106cb6106bc565b6106d6818484610697565b505050565b5b818110156106f9576106ee5f826106c3565b6001810190506106dc565b5050565b601f82111561073e5761070f816105e6565b610718846105f8565b81016020851015610727578190505b61073b610733856105f8565b8301826106db565b50505b505050565b5f82821c905092915050565b5f61075e5f1984600802610743565b1980831691505092915050565b5f610776838361074f565b9150826002028217905092915050565b61078f8261031e565b67ffffffffffffffff8111156107a8576107a76103c4565b5b6107b282546105b6565b6107bd8282856106fd565b5f60209050601f8311600181146107ee575f84156107dc578287015190505b6107e6858261076b565b86555061084d565b601f1984166107fc866105e6565b5f5b82811015610823578489015182556001820191506020850194506020810190506107fe565b86831015610840578489015161083c601f89168261074f565b8355505b6001600288020188555050505b505050505050565b5f81905092915050565b5f6108698261031e565b6108738185610855565b9350610883818560208601610338565b80840191505092915050565b5f61089a828461085f565b91508190509291505056fea26469706673582212206aecb56b52a7bb4c63fa78821c17f1062d755c9f16305dbaf3a5fa908f708eff64736f6c634300081e0033a2646970667358221220677c65de6bfd82ee633a7ef3ffe604c6ac8d016ae4b3e3924fcbd546bef1fd7464736f6c634300081e0033",
					"opcodes": "PUSH1 0x80 PUSH1 0x40 MSTORE CALLVALUE DUP1 ISZERO PUSH1 0xE JUMPI PUSH0 PUSH0 REVERT JUMPDEST POP PUSH2 0xDED DUP1 PUSH2 0x1C PUSH0 CODECOPY PUSH0 RETURN INVALID PUSH1 0x80 PUSH1 0x40 MSTORE CALLVALUE DUP1 ISZERO PUSH2 0xF JUMPI PUSH0 PUSH0 REVERT JUMPDEST POP PUSH1 0x4 CALLDATASIZE LT PUSH2 0x4A JUMPI PUSH0 CALLDATALOAD PUSH1 0xE0 SHR DUP1 PUSH4 0x6ED28ED0 EQ PUSH2 0x4E JUMPI DUP1 PUSH4 0x9507D39A EQ PUSH2 0x6A JUMPI DUP1 PUSH4 0xE8940888 EQ PUSH2 0x9A JUMPI DUP1 PUSH4 0xEAA417ED EQ PUSH2 0xA4 JUMPI JUMPDEST PUSH0 PUSH0 REVERT JUMPDEST PUSH2 0x68 PUSH1 0x4 DUP1 CALLDATASIZE SUB DUP2 ADD SWAP1 PUSH2 0x63 SWAP2 SWAP1 PUSH2 0x330 JUMP JUMPDEST PUSH2 0xD4 JUMP JUMPDEST STOP JUMPDEST PUSH2 0x84 PUSH1 0x4 DUP1 CALLDATASIZE SUB DUP2 ADD SWAP1 PUSH2 0x7F SWAP2 SWAP1 PUSH2 0x36E JUMP JUMPDEST PUSH2 0x178 JUMP JUMPDEST PUSH1 0x40 MLOAD PUSH2 0x91 SWAP2 SWAP1 PUSH2 0x3A8 JUMP JUMPDEST PUSH1 0x40 MLOAD DUP1 SWAP2 SUB SWAP1 RETURN JUMPDEST PUSH2 0xA2 PUSH2 0x227 JUMP JUMPDEST STOP JUMPDEST PUSH2 0xBE PUSH1 0x4 DUP1 CALLDATASIZE SUB DUP2 ADD SWAP1 PUSH2 0xB9 SWAP2 SWAP1 PUSH2 0x36E JUMP JUMPDEST PUSH2 0x2B2 JUMP JUMPDEST PUSH1 0x40 MLOAD PUSH2 0xCB SWAP2 SWAP1 PUSH2 0x43B JUMP JUMPDEST PUSH1 0x40 MLOAD DUP1 SWAP2 SUB SWAP1 RETURN JUMPDEST PUSH0 DUP3 DUP2 SLOAD DUP2 LT PUSH2 0xE7 JUMPI PUSH2 0xE6 PUSH2 0x454 JUMP JUMPDEST JUMPDEST SWAP1 PUSH0 MSTORE PUSH1 0x20 PUSH0 KECCAK256 ADD PUSH0 SWAP1 SLOAD SWAP1 PUSH2 0x100 EXP SWAP1 DIV PUSH20 0xFFFFFFFFFFFFFFFFFFFFFFFFFFFFFFFFFFFFFFFF AND PUSH20 0xFFFFFFFFFFFFFFFFFFFFFFFFFFFFFFFFFFFFFFFF AND PUSH4 0x6057361D DUP3 PUSH1 0x40 MLOAD DUP3 PUSH4 0xFFFFFFFF AND PUSH1 0xE0 SHL DUP2 MSTORE PUSH1 0x4 ADD PUSH2 0x147 SWAP2 SWAP1 PUSH2 0x3A8 JUMP JUMPDEST PUSH0 PUSH1 0x40 MLOAD DUP1 DUP4 SUB DUP2 PUSH0 DUP8 DUP1 EXTCODESIZE ISZERO DUP1 ISZERO PUSH2 0x15E JUMPI PUSH0 PUSH0 REVERT JUMPDEST POP GAS CALL ISZERO DUP1 ISZERO PUSH2 0x170 JUMPI RETURNDATASIZE PUSH0 PUSH0 RETURNDATACOPY RETURNDATASIZE PUSH0 REVERT JUMPDEST POP POP POP POP POP POP JUMP JUMPDEST PUSH0 PUSH0 DUP3 DUP2 SLOAD DUP2 LT PUSH2 0x18C JUMPI PUSH2 0x18B PUSH2 0x454 JUMP JUMPDEST JUMPDEST SWAP1 PUSH0 MSTORE PUSH1 0x20 PUSH0 KECCAK256 ADD PUSH0 SWAP1 SLOAD SWAP1 PUSH2 0x100 EXP SWAP1 DIV PUSH20 0xFFFFFFFFFFFFFFFFFFFFFFFFFFFFFFFFFFFFFFFF AND PUSH20 0xFFFFFFFFFFFFFFFFFFFFFFFFFFFFFFFFFFFFFFFF AND PUSH4 0x2E64CEC1 PUSH1 0x40 MLOAD DUP2 PUSH4 0xFFFFFFFF AND PUSH1 0xE0 SHL DUP2 MSTORE PUSH1 0x4 ADD PUSH1 0x20 PUSH1 0x40 MLOAD DUP1 DUP4 SUB DUP2 DUP7 GAS STATICCALL ISZERO DUP1 ISZERO PUSH2 0x1FC JUMPI RETURNDATASIZE PUSH0 PUSH0 RETURNDATACOPY RETURNDATASIZE PUSH0 REVERT JUMPDEST POP POP POP POP PUSH1 0x40 MLOAD RETURNDATASIZE PUSH1 0x1F NOT PUSH1 0x1F DUP3 ADD AND DUP3 ADD DUP1 PUSH1 0x40 MSTORE POP DUP2 ADD SWAP1 PUSH2 0x220 SWAP2 SWAP1 PUSH2 0x495 JUMP JUMPDEST SWAP1 POP SWAP2 SWAP1 POP JUMP JUMPDEST PUSH0 PUSH1 0x40 MLOAD PUSH2 0x234 SWAP1 PUSH2 0x2EC JUMP JUMPDEST PUSH1 0x40 MLOAD DUP1 SWAP2 SUB SWAP1 PUSH0 CREATE DUP1 ISZERO DUP1 ISZERO PUSH2 0x24D JUMPI RETURNDATASIZE PUSH0 PUSH0 RETURNDATACOPY RETURNDATASIZE PUSH0 REVERT JUMPDEST POP SWAP1 POP PUSH0 DUP2 SWAP1 DUP1 PUSH1 0x1 DUP2 SLOAD ADD DUP1 DUP3 SSTORE DUP1 SWAP2 POP POP PUSH1 0x1 SWAP1 SUB SWAP1 PUSH0 MSTORE PUSH1 0x20 PUSH0 KECCAK256 ADD PUSH0 SWAP1 SWAP2 SWAP1 SWAP2 SWAP1 SWAP2 PUSH2 0x100 EXP DUP2 SLOAD DUP2 PUSH20 0xFFFFFFFFFFFFFFFFFFFFFFFFFFFFFFFFFFFFFFFF MUL NOT AND SWAP1 DUP4 PUSH20 0xFFFFFFFFFFFFFFFFFFFFFFFFFFFFFFFFFFFFFFFF AND MUL OR SWAP1 SSTORE POP POP JUMP JUMPDEST PUSH0 DUP2 DUP2 SLOAD DUP2 LT PUSH2 0x2C0 JUMPI PUSH0 DUP1 REVERT JUMPDEST SWAP1 PUSH0 MSTORE PUSH1 0x20 PUSH0 KECCAK256 ADD PUSH0 SWAP2 POP SLOAD SWAP1 PUSH2 0x100 EXP SWAP1 DIV PUSH20 0xFFFFFFFFFFFFFFFFFFFFFFFFFFFFFFFFFFFFFFFF AND DUP2 JUMP JUMPDEST PUSH2 0x8F7 DUP1 PUSH2 0x4C1 DUP4 CODECOPY ADD SWAP1 JUMP JUMPDEST PUSH0 PUSH0 REVERT JUMPDEST PUSH0 DUP2 SWAP1 POP SWAP2 SWAP1 POP JUMP JUMPDEST PUSH2 0x30F DUP2 PUSH2 0x2FD JUMP JUMPDEST DUP2 EQ PUSH2 0x319 JUMPI PUSH0 PUSH0 REVERT JUMPDEST POP JUMP JUMPDEST PUSH0 DUP2 CALLDATALOAD SWAP1 POP PUSH2 0x32A DUP2 PUSH2 0x306 JUMP JUMPDEST SWAP3 SWAP2 POP POP JUMP JUMPDEST PUSH0 PUSH0 PUSH1 0x40 DUP4 DUP6 SUB SLT ISZERO PUSH2 0x346 JUMPI PUSH2 0x345 PUSH2 0x2F9 JUMP JUMPDEST JUMPDEST PUSH0 PUSH2 0x353 DUP6 DUP3 DUP7 ADD PUSH2 0x31C JUMP JUMPDEST SWAP3 POP POP PUSH1 0x20 PUSH2 0x364 DUP6 DUP3 DUP7 ADD PUSH2 0x31C JUMP JUMPDEST SWAP2 POP POP SWAP3 POP SWAP3 SWAP1 POP JUMP JUMPDEST PUSH0 PUSH1 0x20 DUP3 DUP5 SUB SLT ISZERO PUSH2 0x383 JUMPI PUSH2 0x382 PUSH2 0x2F9 JUMP JUMPDEST JUMPDEST PUSH0 PUSH2 0x390 DUP5 DUP3 DUP6 ADD PUSH2 0x31C JUMP JUMPDEST SWAP2 POP POP SWAP3 SWAP2 POP POP JUMP JUMPDEST PUSH2 0x3A2 DUP2 PUSH2 0x2FD JUMP JUMPDEST DUP3 MSTORE POP POP JUMP JUMPDEST PUSH0 PUSH1 0x20 DUP3 ADD SWAP1 POP PUSH2 0x3BB PUSH0 DUP4 ADD DUP5 PUSH2 0x399 JUMP JUMPDEST SWAP3 SWAP2 POP POP JUMP JUMPDEST PUSH0 PUSH20 0xFFFFFFFFFFFFFFFFFFFFFFFFFFFFFFFFFFFFFFFF DUP3 AND SWAP1 POP SWAP2 SWAP1 POP JUMP JUMPDEST PUSH0 DUP2 SWAP1 POP SWAP2 SWAP1 POP JUMP JUMPDEST PUSH0 PUSH2 0x403 PUSH2 0x3FE PUSH2 0x3F9 DUP5 PUSH2 0x3C1 JUMP JUMPDEST PUSH2 0x3E0 JUMP JUMPDEST PUSH2 0x3C1 JUMP JUMPDEST SWAP1 POP SWAP2 SWAP1 POP JUMP JUMPDEST PUSH0 PUSH2 0x414 DUP3 PUSH2 0x3E9 JUMP JUMPDEST SWAP1 POP SWAP2 SWAP1 POP JUMP JUMPDEST PUSH0 PUSH2 0x425 DUP3 PUSH2 0x40A JUMP JUMPDEST SWAP1 POP SWAP2 SWAP1 POP JUMP JUMPDEST PUSH2 0x435 DUP2 PUSH2 0x41B JUMP JUMPDEST DUP3 MSTORE POP POP JUMP JUMPDEST PUSH0 PUSH1 0x20 DUP3 ADD SWAP1 POP PUSH2 0x44E PUSH0 DUP4 ADD DUP5 PUSH2 0x42C JUMP JUMPDEST SWAP3 SWAP2 POP POP JUMP JUMPDEST PUSH32 0x4E487B7100000000000000000000000000000000000000000000000000000000 PUSH0 MSTORE PUSH1 0x32 PUSH1 0x4 MSTORE PUSH1 0x24 PUSH0 REVERT JUMPDEST PUSH0 DUP2 MLOAD SWAP1 POP PUSH2 0x48F DUP2 PUSH2 0x306 JUMP JUMPDEST SWAP3 SWAP2 POP POP JUMP JUMPDEST PUSH0 PUSH1 0x20 DUP3 DUP5 SUB SLT ISZERO PUSH2 0x4AA JUMPI PUSH2 0x4A9 PUSH2 0x2F9 JUMP JUMPDEST JUMPDEST PUSH0 PUSH2 0x4B7 DUP5 DUP3 DUP6 ADD PUSH2 0x481 JUMP JUMPDEST SWAP2 POP POP SWAP3 SWAP2 POP POP JUMP INVALID PUSH1 0x80 PUSH1 0x40 MSTORE CALLVALUE DUP1 ISZERO PUSH1 0xE JUMPI PUSH0 PUSH0 REVERT JUMPDEST POP PUSH2 0x8DB DUP1 PUSH2 0x1C PUSH0 CODECOPY PUSH0 RETURN INVALID PUSH1 0x80 PUSH1 0x40 MSTORE CALLVALUE DUP1 ISZERO PUSH2 0xF JUMPI PUSH0 PUSH0 REVERT JUMPDEST POP PUSH1 0x4 CALLDATASIZE LT PUSH2 0x55 JUMPI PUSH0 CALLDATALOAD PUSH1 0xE0 SHR DUP1 PUSH4 0x2E64CEC1 EQ PUSH2 0x59 JUMPI DUP1 PUSH4 0x2EBCE631 EQ PUSH2 0x77 JUMPI DUP1 PUSH4 0x6057361D EQ PUSH2 0xA8 JUMPI DUP1 PUSH4 0x6F760F41 EQ PUSH2 0xC4 JUMPI DUP1 PUSH4 0x8BAB8DD5 EQ PUSH2 0xE0 JUMPI JUMPDEST PUSH0 PUSH0 REVERT JUMPDEST PUSH2 0x61 PUSH2 0x110 JUMP JUMPDEST PUSH1 0x40 MLOAD PUSH2 0x6E SWAP2 SWAP1 PUSH2 0x29F JUMP JUMPDEST PUSH1 0x40 MLOAD DUP1 SWAP2 SUB SWAP1 RETURN JUMPDEST PUSH2 0x91 PUSH1 0x4 DUP1 CALLDATASIZE SUB DUP2 ADD SWAP1 PUSH2 0x8C SWAP2 SWAP1 PUSH2 0x2F3 JUMP JUMPDEST PUSH2 0x118 JUMP JUMPDEST PUSH1 0x40 MLOAD PUSH2 0x9F SWAP3 SWAP2 SWAP1 PUSH2 0x38E JUMP JUMPDEST PUSH1 0x40 MLOAD DUP1 SWAP2 SUB SWAP1 RETURN JUMPDEST PUSH2 0xC2 PUSH1 0x4 DUP1 CALLDATASIZE SUB DUP2 ADD SWAP1 PUSH2 0xBD SWAP2 SWAP1 PUSH2 0x2F3 JUMP JUMPDEST PUSH2 0x1CD JUMP JUMPDEST STOP JUMPDEST PUSH2 0xDE PUSH1 0x4 DUP1 CALLDATASIZE SUB DUP2 ADD SWAP1 PUSH2 0xD9 SWAP2 SWAP1 PUSH2 0x4E8 JUMP JUMPDEST PUSH2 0x1D6 JUMP JUMPDEST STOP JUMPDEST PUSH2 0xFA PUSH1 0x4 DUP1 CALLDATASIZE SUB DUP2 ADD SWAP1 PUSH2 0xF5 SWAP2 SWAP1 PUSH2 0x542 JUMP JUMPDEST PUSH2 0x25A JUMP JUMPDEST PUSH1 0x40 MLOAD PUSH2 0x107 SWAP2 SWAP1 PUSH2 0x29F JUMP JUMPDEST PUSH1 0x40 MLOAD DUP1 SWAP2 SUB SWAP1 RETURN JUMPDEST PUSH0 PUSH0 SLOAD SWAP1 POP SWAP1 JUMP JUMPDEST PUSH1 0x1 DUP2 DUP2 SLOAD DUP2 LT PUSH2 0x127 JUMPI PUSH0 DUP1 REVERT JUMPDEST SWAP1 PUSH0 MSTORE PUSH1 0x20 PUSH0 KECCAK256 SWAP1 PUSH1 0x2 MUL ADD PUSH0 SWAP2 POP SWAP1 POP DUP1 PUSH0 ADD SLOAD SWAP1 DUP1 PUSH1 0x1 ADD DUP1 SLOAD PUSH2 0x14C SWAP1 PUSH2 0x5B6 JUMP JUMPDEST DUP1 PUSH1 0x1F ADD PUSH1 0x20 DUP1 SWAP2 DIV MUL PUSH1 0x20 ADD PUSH1 0x40 MLOAD SWAP1 DUP2 ADD PUSH1 0x40 MSTORE DUP1 SWAP3 SWAP2 SWAP1 DUP2 DUP2 MSTORE PUSH1 0x20 ADD DUP3 DUP1 SLOAD PUSH2 0x178 SWAP1 PUSH2 0x5B6 JUMP JUMPDEST DUP1 ISZERO PUSH2 0x1C3 JUMPI DUP1 PUSH1 0x1F LT PUSH2 0x19A JUMPI PUSH2 0x100 DUP1 DUP4 SLOAD DIV MUL DUP4 MSTORE SWAP2 PUSH1 0x20 ADD SWAP2 PUSH2 0x1C3 JUMP JUMPDEST DUP3 ADD SWAP2 SWAP1 PUSH0 MSTORE PUSH1 0x20 PUSH0 KECCAK256 SWAP1 JUMPDEST DUP2 SLOAD DUP2 MSTORE SWAP1 PUSH1 0x1 ADD SWAP1 PUSH1 0x20 ADD DUP1 DUP4 GT PUSH2 0x1A6 JUMPI DUP3 SWAP1 SUB PUSH1 0x1F AND DUP3 ADD SWAP2 JUMPDEST POP POP POP POP POP SWAP1 POP DUP3 JUMP JUMPDEST DUP1 PUSH0 DUP2 SWAP1 SSTORE POP POP JUMP JUMPDEST PUSH1 0x1 PUSH1 0x40 MLOAD DUP1 PUSH1 0x40 ADD PUSH1 0x40 MSTORE DUP1 DUP4 DUP2 MSTORE PUSH1 0x20 ADD DUP5 DUP2 MSTORE POP SWAP1 DUP1 PUSH1 0x1 DUP2 SLOAD ADD DUP1 DUP3 SSTORE DUP1 SWAP2 POP POP PUSH1 0x1 SWAP1 SUB SWAP1 PUSH0 MSTORE PUSH1 0x20 PUSH0 KECCAK256 SWAP1 PUSH1 0x2 MUL ADD PUSH0 SWAP1 SWAP2 SWAP1 SWAP2 SWAP1 SWAP2 POP PUSH0 DUP3 ADD MLOAD DUP2 PUSH0 ADD SSTORE PUSH1 0x20 DUP3 ADD MLOAD DUP2 PUSH1 0x1 ADD SWAP1 DUP2 PUSH2 0x230 SWAP2 SWAP1 PUSH2 0x786 JUMP JUMPDEST POP POP POP DUP1 PUSH1 0x2 DUP4 PUSH1 0x40 MLOAD PUSH2 0x244 SWAP2 SWAP1 PUSH2 0x88F JUMP JUMPDEST SWAP1 DUP2 MSTORE PUSH1 0x20 ADD PUSH1 0x40 MLOAD DUP1 SWAP2 SUB SWAP1 KECCAK256 DUP2 SWAP1 SSTORE POP POP POP JUMP JUMPDEST PUSH1 0x2 DUP2 DUP1 MLOAD PUSH1 0x20 DUP2 ADD DUP3 ADD DUP1 MLOAD DUP5 DUP3 MSTORE PUSH1 0x20 DUP4 ADD PUSH1 0x20 DUP6 ADD KECCAK256 DUP2 DUP4 MSTORE DUP1 SWAP6 POP POP POP POP POP POP PUSH0 SWAP2 POP SWAP1 POP SLOAD DUP2 JUMP JUMPDEST PUSH0 DUP2 SWAP1 POP SWAP2 SWAP1 POP JUMP JUMPDEST PUSH2 0x299 DUP2 PUSH2 0x287 JUMP JUMPDEST DUP3 MSTORE POP POP JUMP JUMPDEST PUSH0 PUSH1 0x20 DUP3 ADD SWAP1 POP PUSH2 0x2B2 PUSH0 DUP4 ADD DUP5 PUSH2 0x290 JUMP JUMPDEST SWAP3 SWAP2 POP POP JUMP JUMPDEST PUSH0 PUSH1 0x40 MLOAD SWAP1 POP SWAP1 JUMP JUMPDEST PUSH0 PUSH0 REVERT JUMPDEST PUSH0 PUSH0 REVERT JUMPDEST PUSH2 0x2D2 DUP2 PUSH2 0x287 JUMP JUMPDEST DUP2 EQ PUSH2 0x2DC JUMPI PUSH0 PUSH0 REVERT JUMPDEST POP JUMP JUMPDEST PUSH0 DUP2 CALLDATALOAD SWAP1 POP PUSH2 0x2ED DUP2 PUSH2 0x2C9 JUMP JUMPDEST SWAP3 SWAP2 POP POP JUMP JUMPDEST PUSH0 PUSH1 0x20 DUP3 DUP5 SUB SLT ISZERO PUSH2 0x308 JUMPI PUSH2 0x307 PUSH2 0x2C1 JUMP JUMPDEST JUMPDEST PUSH0 PUSH2 0x315 DUP5 DUP3 DUP6 ADD PUSH2 0x2DF JUMP JUMPDEST SWAP2 POP POP SWAP3 SWAP2 POP POP JUMP JUMPDEST PUSH0 DUP2 MLOAD SWAP1 POP SWAP2 SWAP1 POP JUMP JUMPDEST PUSH0 DUP3 DUP3 MSTORE PUSH1 0x20 DUP3 ADD SWAP1 POP SWAP3 SWAP2 POP POP JUMP JUMPDEST DUP3 DUP2 DUP4 MCOPY PUSH0 DUP4 DUP4 ADD MSTORE POP POP POP JUMP JUMPDEST PUSH0 PUSH1 0x1F NOT PUSH1 0x1F DUP4 ADD AND SWAP1 POP SWAP2 SWAP1 POP JUMP JUMPDEST PUSH0 PUSH2 0x360 DUP3 PUSH2 0x31E JUMP JUMPDEST PUSH2 0x36A DUP2 DUP6 PUSH2 0x328 JUMP JUMPDEST SWAP4 POP PUSH2 0x37A DUP2 DUP6 PUSH1 0x20 DUP7 ADD PUSH2 0x338 JUMP JUMPDEST PUSH2 0x383 DUP2 PUSH2 0x346 JUMP JUMPDEST DUP5 ADD SWAP2 POP POP SWAP3 SWAP2 POP POP JUMP JUMPDEST PUSH0 PUSH1 0x40 DUP3 ADD SWAP1 POP PUSH2 0x3A1 PUSH0 DUP4 ADD DUP6 PUSH2 0x290 JUMP JUMPDEST DUP2 DUP2 SUB PUSH1 0x20 DUP4 ADD MSTORE PUSH2 0x3B3 DUP2 DUP5 PUSH2 0x356 JUMP JUMPDEST SWAP1 POP SWAP4 SWAP3 POP POP POP JUMP JUMPDEST PUSH0 PUSH0 REVERT JUMPDEST PUSH0 PUSH0 REVERT JUMPDEST PUSH32 0x4E487B7100000000000000000000000000000000000000000000000000000000 PUSH0 MSTORE PUSH1 0x41 PUSH1 0x4 MSTORE PUSH1 0x24 PUSH0 REVERT JUMPDEST PUSH2 0x3FA DUP3 PUSH2 0x346 JUMP JUMPDEST DUP2 ADD DUP2 DUP2 LT PUSH8 0xFFFFFFFFFFFFFFFF DUP3 GT OR ISZERO PUSH2 0x419 JUMPI PUSH2 0x418 PUSH2 0x3C4 JUMP JUMPDEST JUMPDEST DUP1 PUSH1 0x40 MSTORE POP POP POP JUMP JUMPDEST PUSH0 PUSH2 0x42B PUSH2 0x2B8 JUMP JUMPDEST SWAP1 POP PUSH2 0x437 DUP3 DUP3 PUSH2 0x3F1 JUMP JUMPDEST SWAP2 SWAP1 POP JUMP JUMPDEST PUSH0 PUSH8 0xFFFFFFFFFFFFFFFF DUP3 GT ISZERO PUSH2 0x456 JUMPI PUSH2 0x455 PUSH2 0x3C4 JUMP JUMPDEST JUMPDEST PUSH2 0x45F DUP3 PUSH2 0x346 JUMP JUMPDEST SWAP1 POP PUSH1 0x20 DUP2 ADD SWAP1 POP SWAP2 SWAP1 POP JUMP JUMPDEST DUP3 DUP2 DUP4 CALLDATACOPY PUSH0 DUP4 DUP4 ADD MSTORE POP POP POP JUMP JUMPDEST PUSH0 PUSH2 0x48C PUSH2 0x487 DUP5 PUSH2 0x43C JUMP JUMPDEST PUSH2 0x422 JUMP JUMPDEST SWAP1 POP DUP3 DUP2 MSTORE PUSH1 0x20 DUP2 ADD DUP5 DUP5 DUP5 ADD GT ISZERO PUSH2 0x4A8 JUMPI PUSH2 0x4A7 PUSH2 0x3C0 JUMP JUMPDEST JUMPDEST PUSH2 0x4B3 DUP5 DUP3 DUP6 PUSH2 0x46C JUMP JUMPDEST POP SWAP4 SWAP3 POP POP POP JUMP JUMPDEST PUSH0 DUP3 PUSH1 0x1F DUP4 ADD SLT PUSH2 0x4CF JUMPI PUSH2 0x4CE PUSH2 0x3BC JUMP JUMPDEST JUMPDEST DUP2 CALLDATALOAD PUSH2 0x4DF DUP5 DUP3 PUSH1 0x20 DUP7 ADD PUSH2 0x47A JUMP JUMPDEST SWAP2 POP POP SWAP3 SWAP2 POP POP JUMP JUMPDEST PUSH0 PUSH0 PUSH1 0x40 DUP4 DUP6 SUB SLT ISZERO PUSH2 0x4FE JUMPI PUSH2 0x4FD PUSH2 0x2C1 JUMP JUMPDEST JUMPDEST PUSH0 DUP4 ADD CALLDATALOAD PUSH8 0xFFFFFFFFFFFFFFFF DUP2 GT ISZERO PUSH2 0x51B JUMPI PUSH2 0x51A PUSH2 0x2C5 JUMP JUMPDEST JUMPDEST PUSH2 0x527 DUP6 DUP3 DUP7 ADD PUSH2 0x4BB JUMP JUMPDEST SWAP3 POP POP PUSH1 0x20 PUSH2 0x538 DUP6 DUP3 DUP7 ADD PUSH2 0x2DF JUMP JUMPDEST SWAP2 POP POP SWAP3 POP SWAP3 SWAP1 POP JUMP JUMPDEST PUSH0 PUSH1 0x20 DUP3 DUP5 SUB SLT ISZERO PUSH2 0x557 JUMPI PUSH2 0x556 PUSH2 0x2C1 JUMP JUMPDEST JUMPDEST PUSH0 DUP3 ADD CALLDATALOAD PUSH8 0xFFFFFFFFFFFFFFFF DUP2 GT ISZERO PUSH2 0x574 JUMPI PUSH2 0x573 PUSH2 0x2C5 JUMP JUMPDEST JUMPDEST PUSH2 0x580 DUP5 DUP3 DUP6 ADD PUSH2 0x4BB JUMP JUMPDEST SWAP2 POP POP SWAP3 SWAP2 POP POP JUMP JUMPDEST PUSH32 0x4E487B7100000000000000000000000000000000000000000000000000000000 PUSH0 MSTORE PUSH1 0x22 PUSH1 0x4 MSTORE PUSH1 0x24 PUSH0 REVERT JUMPDEST PUSH0 PUSH1 0x2 DUP3 DIV SWAP1 POP PUSH1 0x1 DUP3 AND DUP1 PUSH2 0x5CD JUMPI PUSH1 0x7F DUP3 AND SWAP2 POP JUMPDEST PUSH1 0x20 DUP3 LT DUP2 SUB PUSH2 0x5E0 JUMPI PUSH2 0x5DF PUSH2 0x589 JUMP JUMPDEST JUMPDEST POP SWAP2 SWAP1 POP JUMP JUMPDEST PUSH0 DUP2 SWAP1 POP DUP2 PUSH0 MSTORE PUSH1 0x20 PUSH0 KECCAK256 SWAP1 POP SWAP2 SWAP1 POP JUMP JUMPDEST PUSH0 PUSH1 0x20 PUSH1 0x1F DUP4 ADD DIV SWAP1 POP SWAP2 SWAP1 POP JUMP JUMPDEST PUSH0 DUP3 DUP3 SHL SWAP1 POP SWAP3 SWAP2 POP POP JUMP JUMPDEST PUSH0 PUSH1 0x8 DUP4 MUL PUSH2 0x642 PUSH32 0xFFFFFFFFFFFFFFFFFFFFFFFFFFFFFFFFFFFFFFFFFFFFFFFFFFFFFFFFFFFFFFFF DUP3 PUSH2 0x607 JUMP JUMPDEST PUSH2 0x64C DUP7 DUP4 PUSH2 0x607 JUMP JUMPDEST SWAP6 POP DUP1 NOT DUP5 AND SWAP4 POP DUP1 DUP7 AND DUP5 OR SWAP3 POP POP POP SWAP4 SWAP3 POP POP POP JUMP JUMPDEST PUSH0 DUP2 SWAP1 POP SWAP2 SWAP1 POP JUMP JUMPDEST PUSH0 PUSH2 0x687 PUSH2 0x682 PUSH2 0x67D DUP5 PUSH2 0x287 JUMP JUMPDEST PUSH2 0x664 JUMP JUMPDEST PUSH2 0x287 JUMP JUMPDEST SWAP1 POP SWAP2 SWAP1 POP JUMP JUMPDEST PUSH0 DUP2 SWAP1 POP SWAP2 SWAP1 POP JUMP JUMPDEST PUSH2 0x6A0 DUP4 PUSH2 0x66D JUMP JUMPDEST PUSH2 0x6B4 PUSH2 0x6AC DUP3 PUSH2 0x68E JUMP JUMPDEST DUP5 DUP5 SLOAD PUSH2 0x613 JUMP JUMPDEST DUP3 SSTORE POP POP POP POP JUMP JUMPDEST PUSH0 PUSH0 SWAP1 POP SWAP1 JUMP JUMPDEST PUSH2 0x6CB PUSH2 0x6BC JUMP JUMPDEST PUSH2 0x6D6 DUP2 DUP5 DUP5 PUSH2 0x697 JUMP JUMPDEST POP POP POP JUMP JUMPDEST JUMPDEST DUP2 DUP2 LT ISZERO PUSH2 0x6F9 JUMPI PUSH2 0x6EE PUSH0 DUP3 PUSH2 0x6C3 JUMP JUMPDEST PUSH1 0x1 DUP2 ADD SWAP1 POP PUSH2 0x6DC JUMP JUMPDEST POP POP JUMP JUMPDEST PUSH1 0x1F DUP3 GT ISZERO PUSH2 0x73E JUMPI PUSH2 0x70F DUP2 PUSH2 0x5E6 JUMP JUMPDEST PUSH2 0x718 DUP5 PUSH2 0x5F8 JUMP JUMPDEST DUP2 ADD PUSH1 0x20 DUP6 LT ISZERO PUSH2 0x727 JUMPI DUP2 SWAP1 POP JUMPDEST PUSH2 0x73B PUSH2 0x733 DUP6 PUSH2 0x5F8 JUMP JUMPDEST DUP4 ADD DUP3 PUSH2 0x6DB JUMP JUMPDEST POP POP JUMPDEST POP POP POP JUMP JUMPDEST PUSH0 DUP3 DUP3 SHR SWAP1 POP SWAP3 SWAP2 POP POP JUMP JUMPDEST PUSH0 PUSH2 0x75E PUSH0 NOT DUP5 PUSH1 0x8 MUL PUSH2 0x743 JUMP JUMPDEST NOT DUP1 DUP4 AND SWAP2 POP POP SWAP3 SWAP2 POP POP JUMP JUMPDEST PUSH0 PUSH2 0x776 DUP4 DUP4 PUSH2 0x74F JUMP JUMPDEST SWAP2 POP DUP3 PUSH1 0x2 MUL DUP3 OR SWAP1 POP SWAP3 SWAP2 POP POP JUMP JUMPDEST PUSH2 0x78F DUP3 PUSH2 0x31E JUMP JUMPDEST PUSH8 0xFFFFFFFFFFFFFFFF DUP2 GT ISZERO PUSH2 0x7A8 JUMPI PUSH2 0x7A7 PUSH2 0x3C4 JUMP JUMPDEST JUMPDEST PUSH2 0x7B2 DUP3 SLOAD PUSH2 0x5B6 JUMP JUMPDEST PUSH2 0x7BD DUP3 DUP3 DUP6 PUSH2 0x6FD JUMP JUMPDEST PUSH0 PUSH1 0x20 SWAP1 POP PUSH1 0x1F DUP4 GT PUSH1 0x1 DUP2 EQ PUSH2 0x7EE JUMPI PUSH0 DUP5 ISZERO PUSH2 0x7DC JUMPI DUP3 DUP8 ADD MLOAD SWAP1 POP JUMPDEST PUSH2 0x7E6 DUP6 DUP3 PUSH2 0x76B JUMP JUMPDEST DUP7 SSTORE POP PUSH2 0x84D JUMP JUMPDEST PUSH1 0x1F NOT DUP5 AND PUSH2 0x7FC DUP7 PUSH2 0x5E6 JUMP JUMPDEST PUSH0 JUMPDEST DUP3 DUP2 LT ISZERO PUSH2 0x823 JUMPI DUP5 DUP10 ADD MLOAD DUP3 SSTORE PUSH1 0x1 DUP3 ADD SWAP2 POP PUSH1 0x20 DUP6 ADD SWAP5 POP PUSH1 0x20 DUP2 ADD SWAP1 POP PUSH2 0x7FE JUMP JUMPDEST DUP7 DUP4 LT ISZERO PUSH2 0x840 JUMPI DUP5 DUP10 ADD MLOAD PUSH2 0x83C PUSH1 0x1F DUP10 AND DUP3 PUSH2 0x74F JUMP JUMPDEST DUP4 SSTORE POP JUMPDEST PUSH1 0x1 PUSH1 0x2 DUP9 MUL ADD DUP9 SSTORE POP POP POP JUMPDEST POP POP POP POP POP POP JUMP JUMPDEST PUSH0 DUP2 SWAP1 POP SWAP3 SWAP2 POP POP JUMP JUMPDEST PUSH0 PUSH2 0x869 DUP3 PUSH2 0x31E JUMP JUMPDEST PUSH2 0x873 DUP2 DUP6 PUSH2 0x855 JUMP JUMPDEST SWAP4 POP PUSH2 0x883 DUP2 DUP6 PUSH1 0x20 DUP7 ADD PUSH2 0x338 JUMP JUMPDEST DUP1 DUP5 ADD SWAP2 POP POP SWAP3 SWAP2 POP POP JUMP JUMPDEST PUSH0 PUSH2 0x89A DUP3 DUP5 PUSH2 0x85F JUMP JUMPDEST SWAP2 POP DUP2 SWAP1 POP SWAP3 SWAP2 POP POP JUMP INVALID LOG2 PUSH5 0x6970667358 0x22 SLT KECCAK256 PUSH11 0xECB56B52A7BB4C63FA7882 SHR OR CALL MOD 0x2D PUSH22 0x5C9F16305DBAF3A5FA908F708EFF64736F6C63430008 0x1E STOP CALLER LOG2 PUSH5 0x6970667358 0x22 SLT KECCAK256 PUSH8 0x7C65DE6BFD82EE63 GASPRICE PUSH31 0xF3FFE604C6AC8D016AE4B3E3924FCBD546BEF1FD7464736F6C634300081E00 CALLER "
				},
				"gasEstimates": {
					"creation": {
						"codeDepositCost": "713000",
						"executionCost": "745",
						"totalCost": "713745"
					},
					"external": {
						"get(uint256)": "infinite",
						"getcontract()": "infinite",
						"simplestorage(uint256)": "infinite",
						"store(uint256,uint256)": "infinite"
					}
				},
				"methodIdentifiers": {
					"get(uint256)": "9507d39a",
					"getcontract()": "e8940888",
					"simplestorage(uint256)": "eaa417ed",
					"store(uint256,uint256)": "6ed28ed0"
				}
			},
			"storageLayout": {
				"storage": [
					{
						"astId": 7,
						"contract": "contracts/Recreatelist.sol:Recreatelist",
						"label": "simplestorage",
						"offset": 0,
						"slot": "0",
						"type": "t_array(t_contract(SimpleStorage)114)dyn_storage"
					}
				],
				"types": {
					"t_array(t_contract(SimpleStorage)114)dyn_storage": {
						"base": "t_contract(SimpleStorage)114",
						"encoding": "dynamic_array",
						"label": "contract SimpleStorage[]",
						"numberOfBytes": "32"
					},
					"t_contract(SimpleStorage)114": {
						"encoding": "inplace",
						"label": "contract SimpleStorage",
						"numberOfBytes": "20"
					}
				}
			},
			"userdoc": {
				"kind": "user",
				"methods": {},
				"version": 1
			}
		}
	}
}