{
	"contracts/FundChecker.sol": {
		"FundChecker": {
			"abi": [
				{
					"inputs": [],
					"stateMutability": "nonpayable",
					"type": "constructor"
				},
				{
					"inputs": [],
					"name": "MINIMUM_USD",
					"outputs": [
						{
							"internalType": "uint256",
							"name": "",
							"type": "uint256"
						}
					],
					"stateMutability": "view",
					"type": "function"
				},
				{
					"inputs": [],
					"name": "deposit",
					"outputs": [],
					"stateMutability": "payable",
					"type": "function"
				},
				{
					"inputs": [
						{
							"internalType": "uint256",
							"name": "_ethAmount",
							"type": "uint256"
						}
					],
					"name": "getUsdValue",
					"outputs": [
						{
							"internalType": "uint256",
							"name": "",
							"type": "uint256"
						}
					],
					"stateMutability": "view",
					"type": "function"
				}
			],
			"devdoc": {
				"kind": "dev",
				"methods": {},
				"version": 1
			},
			"evm": {
				"assembly": "    /* \"contracts/FundChecker.sol\":170:1742  contract FundChecker {... */\n  mstore(0x40, 0x80)\n    /* \"contracts/FundChecker.sol\":557:755  constructor() {... */\n  callvalue\n  dup1\n  iszero\n  tag_1\n  jumpi\n  revert(0x00, 0x00)\ntag_1:\n  pop\n    /* \"contracts/FundChecker.sol\":694:736  0x694AA1769357215DE4FAC081bf1f309aDC325306 */\n  0x694aa1769357215de4fac081bf1f309adc325306\n    /* \"contracts/FundChecker.sol\":646:655  priceFeed */\n  0x00\n  0x00\n    /* \"contracts/FundChecker.sol\":646:747  priceFeed = AggregatorV3Interface(... */\n  0x0100\n  exp\n  dup2\n  sload\n  dup2\n  0xffffffffffffffffffffffffffffffffffffffff\n  mul\n  not\n  and\n  swap1\n  dup4\n  0xffffffffffffffffffffffffffffffffffffffff\n  and\n  mul\n  or\n  swap1\n  sstore\n  pop\n    /* \"contracts/FundChecker.sol\":170:1742  contract FundChecker {... */\n  dataSize(sub_0)\n  dup1\n  dataOffset(sub_0)\n  0x00\n  codecopy\n  0x00\n  return\nstop\n\nsub_0: assembly {\n        /* \"contracts/FundChecker.sol\":170:1742  contract FundChecker {... */\n      mstore(0x40, 0x80)\n      jumpi(tag_1, lt(calldatasize, 0x04))\n      shr(0xe0, calldataload(0x00))\n      dup1\n      0x073789e2\n      eq\n      tag_2\n      jumpi\n      dup1\n      0x6b69a592\n      eq\n      tag_3\n      jumpi\n      dup1\n      0xd0e30db0\n      eq\n      tag_4\n      jumpi\n    tag_1:\n      revert(0x00, 0x00)\n        /* \"contracts/FundChecker.sol\":1337:1739  function getUsdValue(uint256 _ethAmount) public view returns (uint256) {... */\n    tag_2:\n      callvalue\n      dup1\n      iszero\n      tag_5\n      jumpi\n      revert(0x00, 0x00)\n    tag_5:\n      pop\n      tag_6\n      0x04\n      dup1\n      calldatasize\n      sub\n      dup2\n      add\n      swap1\n      tag_7\n      swap2\n      swap1\n      tag_8\n      jump\t// in\n    tag_7:\n      tag_9\n      jump\t// in\n    tag_6:\n      mload(0x40)\n      tag_10\n      swap2\n      swap1\n      tag_11\n      jump\t// in\n    tag_10:\n      mload(0x40)\n      dup1\n      swap2\n      sub\n      swap1\n      return\n        /* \"contracts/FundChecker.sol\":374:417  uint256 public constant MINIMUM_USD = 15e18 */\n    tag_3:\n      callvalue\n      dup1\n      iszero\n      tag_12\n      jumpi\n      revert(0x00, 0x00)\n    tag_12:\n      pop\n      tag_13\n      tag_14\n      jump\t// in\n    tag_13:\n      mload(0x40)\n      tag_15\n      swap2\n      swap1\n      tag_11\n      jump\t// in\n    tag_15:\n      mload(0x40)\n      dup1\n      swap2\n      sub\n      swap1\n      return\n        /* \"contracts/FundChecker.sol\":882:1210  function deposit() public payable {... */\n    tag_4:\n      tag_16\n      tag_17\n      jump\t// in\n    tag_16:\n      stop\n        /* \"contracts/FundChecker.sol\":1337:1739  function getUsdValue(uint256 _ethAmount) public view returns (uint256) {... */\n    tag_9:\n        /* \"contracts/FundChecker.sol\":1399:1406  uint256 */\n      0x00\n        /* \"contracts/FundChecker.sol\":1422:1434  int256 price */\n      0x00\n        /* \"contracts/FundChecker.sol\":1444:1453  priceFeed */\n      0x00\n      0x00\n      swap1\n      sload\n      swap1\n      0x0100\n      exp\n      swap1\n      div\n      0xffffffffffffffffffffffffffffffffffffffff\n      and\n        /* \"contracts/FundChecker.sol\":1444:1469  priceFeed.latestRoundData */\n      0xffffffffffffffffffffffffffffffffffffffff\n      and\n      0xfeaf968c\n        /* \"contracts/FundChecker.sol\":1444:1471  priceFeed.latestRoundData() */\n      mload(0x40)\n      dup2\n      0xffffffff\n      and\n      0xe0\n      shl\n      dup2\n      mstore\n      0x04\n      add\n      0xa0\n      mload(0x40)\n      dup1\n      dup4\n      sub\n      dup2\n      dup7\n      gas\n      staticcall\n      iszero\n      dup1\n      iszero\n      tag_20\n      jumpi\n      returndatacopy(0x00, 0x00, returndatasize)\n      revert(0x00, returndatasize)\n    tag_20:\n      pop\n      pop\n      pop\n      pop\n      mload(0x40)\n      returndatasize\n      not(0x1f)\n      0x1f\n      dup3\n      add\n      and\n      dup3\n      add\n      dup1\n      0x40\n      mstore\n      pop\n      dup2\n      add\n      swap1\n      tag_21\n      swap2\n      swap1\n      tag_22\n      jump\t// in\n    tag_21:\n        /* \"contracts/FundChecker.sol\":1419:1471  (, int256 price, , , ) = priceFeed.latestRoundData() */\n      pop\n      pop\n      pop\n      swap2\n      pop\n      pop\n        /* \"contracts/FundChecker.sol\":1482:1496  uint8 decimals */\n      0x00\n        /* \"contracts/FundChecker.sol\":1499:1508  priceFeed */\n      0x00\n      0x00\n      swap1\n      sload\n      swap1\n      0x0100\n      exp\n      swap1\n      div\n      0xffffffffffffffffffffffffffffffffffffffff\n      and\n        /* \"contracts/FundChecker.sol\":1499:1517  priceFeed.decimals */\n      0xffffffffffffffffffffffffffffffffffffffff\n      and\n      0x313ce567\n        /* \"contracts/FundChecker.sol\":1499:1519  priceFeed.decimals() */\n      mload(0x40)\n      dup2\n      0xffffffff\n      and\n      0xe0\n      shl\n      dup2\n      mstore\n      0x04\n      add\n      0x20\n      mload(0x40)\n      dup1\n      dup4\n      sub\n      dup2\n      dup7\n      gas\n      staticcall\n      iszero\n      dup1\n      iszero\n      tag_24\n      jumpi\n      returndatacopy(0x00, 0x00, returndatasize)\n      revert(0x00, returndatasize)\n    tag_24:\n      pop\n      pop\n      pop\n      pop\n      mload(0x40)\n      returndatasize\n      not(0x1f)\n      0x1f\n      dup3\n      add\n      and\n      dup3\n      add\n      dup1\n      0x40\n      mstore\n      pop\n      dup2\n      add\n      swap1\n      tag_25\n      swap2\n      swap1\n      tag_26\n      jump\t// in\n    tag_25:\n        /* \"contracts/FundChecker.sol\":1482:1519  uint8 decimals = priceFeed.decimals() */\n      swap1\n      pop\n        /* \"contracts/FundChecker.sol\":1727:1731  1e18 */\n      0x0de0b6b3a7640000\n        /* \"contracts/FundChecker.sol\":1717:1723  10**10 */\n      0x02540be400\n        /* \"contracts/FundChecker.sol\":1703:1713  _ethAmount */\n      dup6\n        /* \"contracts/FundChecker.sol\":1694:1699  price */\n      dup5\n        /* \"contracts/FundChecker.sol\":1686:1713  uint256(price) * _ethAmount */\n      tag_27\n      swap2\n      swap1\n      tag_28\n      jump\t// in\n    tag_27:\n        /* \"contracts/FundChecker.sol\":1685:1723  (uint256(price) * _ethAmount) * 10**10 */\n      tag_29\n      swap2\n      swap1\n      tag_28\n      jump\t// in\n    tag_29:\n        /* \"contracts/FundChecker.sol\":1684:1731  ((uint256(price) * _ethAmount) * 10**10) / 1e18 */\n      tag_30\n      swap2\n      swap1\n      tag_31\n      jump\t// in\n    tag_30:\n        /* \"contracts/FundChecker.sol\":1677:1731  return ((uint256(price) * _ethAmount) * 10**10) / 1e18 */\n      swap3\n      pop\n      pop\n      pop\n        /* \"contracts/FundChecker.sol\":1337:1739  function getUsdValue(uint256 _ethAmount) public view returns (uint256) {... */\n      swap2\n      swap1\n      pop\n      jump\t// out\n        /* \"contracts/FundChecker.sol\":374:417  uint256 public constant MINIMUM_USD = 15e18 */\n    tag_14:\n        /* \"contracts/FundChecker.sol\":412:417  15e18 */\n      0xd02ab486cedc0000\n        /* \"contracts/FundChecker.sol\":374:417  uint256 public constant MINIMUM_USD = 15e18 */\n      dup2\n      jump\t// out\n        /* \"contracts/FundChecker.sol\":882:1210  function deposit() public payable {... */\n    tag_17:\n        /* \"contracts/FundChecker.sol\":412:417  15e18 */\n      0xd02ab486cedc0000\n        /* \"contracts/FundChecker.sol\":1023:1045  getUsdValue(msg.value) */\n      tag_33\n        /* \"contracts/FundChecker.sol\":1035:1044  msg.value */\n      callvalue\n        /* \"contracts/FundChecker.sol\":1023:1034  getUsdValue */\n      tag_9\n        /* \"contracts/FundChecker.sol\":1023:1045  getUsdValue(msg.value) */\n      jump\t// in\n    tag_33:\n        /* \"contracts/FundChecker.sol\":1023:1060  getUsdValue(msg.value) >= MINIMUM_USD */\n      lt\n      iszero\n        /* \"contracts/FundChecker.sol\":1001:1131  require(... */\n      tag_34\n      jumpi\n      mload(0x40)\n      0x08c379a000000000000000000000000000000000000000000000000000000000\n      dup2\n      mstore\n      0x04\n      add\n      tag_35\n      swap1\n      tag_36\n      jump\t// in\n    tag_35:\n      mload(0x40)\n      dup1\n      swap2\n      sub\n      swap1\n      revert\n    tag_34:\n        /* \"contracts/FundChecker.sol\":882:1210  function deposit() public payable {... */\n      jump\t// out\n        /* \"#utility.yul\":88:205   */\n    tag_38:\n        /* \"#utility.yul\":197:198   */\n      0x00\n        /* \"#utility.yul\":194:195   */\n      0x00\n        /* \"#utility.yul\":187:199   */\n      revert\n        /* \"#utility.yul\":334:411   */\n    tag_40:\n        /* \"#utility.yul\":371:378   */\n      0x00\n        /* \"#utility.yul\":400:405   */\n      dup2\n        /* \"#utility.yul\":389:405   */\n      swap1\n      pop\n        /* \"#utility.yul\":334:411   */\n      swap2\n      swap1\n      pop\n      jump\t// out\n        /* \"#utility.yul\":417:539   */\n    tag_41:\n        /* \"#utility.yul\":490:514   */\n      tag_65\n        /* \"#utility.yul\":508:513   */\n      dup2\n        /* \"#utility.yul\":490:514   */\n      tag_40\n      jump\t// in\n    tag_65:\n        /* \"#utility.yul\":483:488   */\n      dup2\n        /* \"#utility.yul\":480:515   */\n      eq\n        /* \"#utility.yul\":470:533   */\n      tag_66\n      jumpi\n        /* \"#utility.yul\":529:530   */\n      0x00\n        /* \"#utility.yul\":526:527   */\n      0x00\n        /* \"#utility.yul\":519:531   */\n      revert\n        /* \"#utility.yul\":470:533   */\n    tag_66:\n        /* \"#utility.yul\":417:539   */\n      pop\n      jump\t// out\n        /* \"#utility.yul\":545:684   */\n    tag_42:\n        /* \"#utility.yul\":591:596   */\n      0x00\n        /* \"#utility.yul\":629:635   */\n      dup2\n        /* \"#utility.yul\":616:636   */\n      calldataload\n        /* \"#utility.yul\":607:636   */\n      swap1\n      pop\n        /* \"#utility.yul\":645:678   */\n      tag_68\n        /* \"#utility.yul\":672:677   */\n      dup2\n        /* \"#utility.yul\":645:678   */\n      tag_41\n      jump\t// in\n    tag_68:\n        /* \"#utility.yul\":545:684   */\n      swap3\n      swap2\n      pop\n      pop\n      jump\t// out\n        /* \"#utility.yul\":690:1019   */\n    tag_8:\n        /* \"#utility.yul\":749:755   */\n      0x00\n        /* \"#utility.yul\":798:800   */\n      0x20\n        /* \"#utility.yul\":786:795   */\n      dup3\n        /* \"#utility.yul\":777:784   */\n      dup5\n        /* \"#utility.yul\":773:796   */\n      sub\n        /* \"#utility.yul\":769:801   */\n      slt\n        /* \"#utility.yul\":766:885   */\n      iszero\n      tag_70\n      jumpi\n        /* \"#utility.yul\":804:883   */\n      tag_71\n      tag_38\n      jump\t// in\n    tag_71:\n        /* \"#utility.yul\":766:885   */\n    tag_70:\n        /* \"#utility.yul\":924:925   */\n      0x00\n        /* \"#utility.yul\":949:1002   */\n      tag_72\n        /* \"#utility.yul\":994:1001   */\n      dup5\n        /* \"#utility.yul\":985:991   */\n      dup3\n        /* \"#utility.yul\":974:983   */\n      dup6\n        /* \"#utility.yul\":970:992   */\n      add\n        /* \"#utility.yul\":949:1002   */\n      tag_42\n      jump\t// in\n    tag_72:\n        /* \"#utility.yul\":939:1002   */\n      swap2\n      pop\n        /* \"#utility.yul\":895:1012   */\n      pop\n        /* \"#utility.yul\":690:1019   */\n      swap3\n      swap2\n      pop\n      pop\n      jump\t// out\n        /* \"#utility.yul\":1025:1143   */\n    tag_43:\n        /* \"#utility.yul\":1112:1136   */\n      tag_74\n        /* \"#utility.yul\":1130:1135   */\n      dup2\n        /* \"#utility.yul\":1112:1136   */\n      tag_40\n      jump\t// in\n    tag_74:\n        /* \"#utility.yul\":1107:1110   */\n      dup3\n        /* \"#utility.yul\":1100:1137   */\n      mstore\n        /* \"#utility.yul\":1025:1143   */\n      pop\n      pop\n      jump\t// out\n        /* \"#utility.yul\":1149:1371   */\n    tag_11:\n        /* \"#utility.yul\":1242:1246   */\n      0x00\n        /* \"#utility.yul\":1280:1282   */\n      0x20\n        /* \"#utility.yul\":1269:1278   */\n      dup3\n        /* \"#utility.yul\":1265:1283   */\n      add\n        /* \"#utility.yul\":1257:1283   */\n      swap1\n      pop\n        /* \"#utility.yul\":1293:1364   */\n      tag_76\n        /* \"#utility.yul\":1361:1362   */\n      0x00\n        /* \"#utility.yul\":1350:1359   */\n      dup4\n        /* \"#utility.yul\":1346:1363   */\n      add\n        /* \"#utility.yul\":1337:1343   */\n      dup5\n        /* \"#utility.yul\":1293:1364   */\n      tag_43\n      jump\t// in\n    tag_76:\n        /* \"#utility.yul\":1149:1371   */\n      swap3\n      swap2\n      pop\n      pop\n      jump\t// out\n        /* \"#utility.yul\":1377:1482   */\n    tag_44:\n        /* \"#utility.yul\":1413:1420   */\n      0x00\n        /* \"#utility.yul\":1453:1475   */\n      0xffffffffffffffffffff\n        /* \"#utility.yul\":1446:1451   */\n      dup3\n        /* \"#utility.yul\":1442:1476   */\n      and\n        /* \"#utility.yul\":1431:1476   */\n      swap1\n      pop\n        /* \"#utility.yul\":1377:1482   */\n      swap2\n      swap1\n      pop\n      jump\t// out\n        /* \"#utility.yul\":1488:1608   */\n    tag_45:\n        /* \"#utility.yul\":1560:1583   */\n      tag_79\n        /* \"#utility.yul\":1577:1582   */\n      dup2\n        /* \"#utility.yul\":1560:1583   */\n      tag_44\n      jump\t// in\n    tag_79:\n        /* \"#utility.yul\":1553:1558   */\n      dup2\n        /* \"#utility.yul\":1550:1584   */\n      eq\n        /* \"#utility.yul\":1540:1602   */\n      tag_80\n      jumpi\n        /* \"#utility.yul\":1598:1599   */\n      0x00\n        /* \"#utility.yul\":1595:1596   */\n      0x00\n        /* \"#utility.yul\":1588:1600   */\n      revert\n        /* \"#utility.yul\":1540:1602   */\n    tag_80:\n        /* \"#utility.yul\":1488:1608   */\n      pop\n      jump\t// out\n        /* \"#utility.yul\":1614:1755   */\n    tag_46:\n        /* \"#utility.yul\":1670:1675   */\n      0x00\n        /* \"#utility.yul\":1701:1707   */\n      dup2\n        /* \"#utility.yul\":1695:1708   */\n      mload\n        /* \"#utility.yul\":1686:1708   */\n      swap1\n      pop\n        /* \"#utility.yul\":1717:1749   */\n      tag_82\n        /* \"#utility.yul\":1743:1748   */\n      dup2\n        /* \"#utility.yul\":1717:1749   */\n      tag_45\n      jump\t// in\n    tag_82:\n        /* \"#utility.yul\":1614:1755   */\n      swap3\n      swap2\n      pop\n      pop\n      jump\t// out\n        /* \"#utility.yul\":1761:1837   */\n    tag_47:\n        /* \"#utility.yul\":1797:1804   */\n      0x00\n        /* \"#utility.yul\":1826:1831   */\n      dup2\n        /* \"#utility.yul\":1815:1831   */\n      swap1\n      pop\n        /* \"#utility.yul\":1761:1837   */\n      swap2\n      swap1\n      pop\n      jump\t// out\n        /* \"#utility.yul\":1843:1963   */\n    tag_48:\n        /* \"#utility.yul\":1915:1938   */\n      tag_85\n        /* \"#utility.yul\":1932:1937   */\n      dup2\n        /* \"#utility.yul\":1915:1938   */\n      tag_47\n      jump\t// in\n    tag_85:\n        /* \"#utility.yul\":1908:1913   */\n      dup2\n        /* \"#utility.yul\":1905:1939   */\n      eq\n        /* \"#utility.yul\":1895:1957   */\n      tag_86\n      jumpi\n        /* \"#utility.yul\":1953:1954   */\n      0x00\n        /* \"#utility.yul\":1950:1951   */\n      0x00\n        /* \"#utility.yul\":1943:1955   */\n      revert\n        /* \"#utility.yul\":1895:1957   */\n    tag_86:\n        /* \"#utility.yul\":1843:1963   */\n      pop\n      jump\t// out\n        /* \"#utility.yul\":1969:2110   */\n    tag_49:\n        /* \"#utility.yul\":2025:2030   */\n      0x00\n        /* \"#utility.yul\":2056:2062   */\n      dup2\n        /* \"#utility.yul\":2050:2063   */\n      mload\n        /* \"#utility.yul\":2041:2063   */\n      swap1\n      pop\n        /* \"#utility.yul\":2072:2104   */\n      tag_88\n        /* \"#utility.yul\":2098:2103   */\n      dup2\n        /* \"#utility.yul\":2072:2104   */\n      tag_48\n      jump\t// in\n    tag_88:\n        /* \"#utility.yul\":1969:2110   */\n      swap3\n      swap2\n      pop\n      pop\n      jump\t// out\n        /* \"#utility.yul\":2116:2259   */\n    tag_50:\n        /* \"#utility.yul\":2173:2178   */\n      0x00\n        /* \"#utility.yul\":2204:2210   */\n      dup2\n        /* \"#utility.yul\":2198:2211   */\n      mload\n        /* \"#utility.yul\":2189:2211   */\n      swap1\n      pop\n        /* \"#utility.yul\":2220:2253   */\n      tag_90\n        /* \"#utility.yul\":2247:2252   */\n      dup2\n        /* \"#utility.yul\":2220:2253   */\n      tag_41\n      jump\t// in\n    tag_90:\n        /* \"#utility.yul\":2116:2259   */\n      swap3\n      swap2\n      pop\n      pop\n      jump\t// out\n        /* \"#utility.yul\":2265:3236   */\n    tag_22:\n        /* \"#utility.yul\":2368:2374   */\n      0x00\n        /* \"#utility.yul\":2376:2382   */\n      0x00\n        /* \"#utility.yul\":2384:2390   */\n      0x00\n        /* \"#utility.yul\":2392:2398   */\n      0x00\n        /* \"#utility.yul\":2400:2406   */\n      0x00\n        /* \"#utility.yul\":2449:2452   */\n      0xa0\n        /* \"#utility.yul\":2437:2446   */\n      dup7\n        /* \"#utility.yul\":2428:2435   */\n      dup9\n        /* \"#utility.yul\":2424:2447   */\n      sub\n        /* \"#utility.yul\":2420:2453   */\n      slt\n        /* \"#utility.yul\":2417:2537   */\n      iszero\n      tag_92\n      jumpi\n        /* \"#utility.yul\":2456:2535   */\n      tag_93\n      tag_38\n      jump\t// in\n    tag_93:\n        /* \"#utility.yul\":2417:2537   */\n    tag_92:\n        /* \"#utility.yul\":2576:2577   */\n      0x00\n        /* \"#utility.yul\":2601:2664   */\n      tag_94\n        /* \"#utility.yul\":2656:2663   */\n      dup9\n        /* \"#utility.yul\":2647:2653   */\n      dup3\n        /* \"#utility.yul\":2636:2645   */\n      dup10\n        /* \"#utility.yul\":2632:2654   */\n      add\n        /* \"#utility.yul\":2601:2664   */\n      tag_46\n      jump\t// in\n    tag_94:\n        /* \"#utility.yul\":2591:2664   */\n      swap6\n      pop\n        /* \"#utility.yul\":2547:2674   */\n      pop\n        /* \"#utility.yul\":2713:2715   */\n      0x20\n        /* \"#utility.yul\":2739:2802   */\n      tag_95\n        /* \"#utility.yul\":2794:2801   */\n      dup9\n        /* \"#utility.yul\":2785:2791   */\n      dup3\n        /* \"#utility.yul\":2774:2783   */\n      dup10\n        /* \"#utility.yul\":2770:2792   */\n      add\n        /* \"#utility.yul\":2739:2802   */\n      tag_49\n      jump\t// in\n    tag_95:\n        /* \"#utility.yul\":2729:2802   */\n      swap5\n      pop\n        /* \"#utility.yul\":2684:2812   */\n      pop\n        /* \"#utility.yul\":2851:2853   */\n      0x40\n        /* \"#utility.yul\":2877:2941   */\n      tag_96\n        /* \"#utility.yul\":2933:2940   */\n      dup9\n        /* \"#utility.yul\":2924:2930   */\n      dup3\n        /* \"#utility.yul\":2913:2922   */\n      dup10\n        /* \"#utility.yul\":2909:2931   */\n      add\n        /* \"#utility.yul\":2877:2941   */\n      tag_50\n      jump\t// in\n    tag_96:\n        /* \"#utility.yul\":2867:2941   */\n      swap4\n      pop\n        /* \"#utility.yul\":2822:2951   */\n      pop\n        /* \"#utility.yul\":2990:2992   */\n      0x60\n        /* \"#utility.yul\":3016:3080   */\n      tag_97\n        /* \"#utility.yul\":3072:3079   */\n      dup9\n        /* \"#utility.yul\":3063:3069   */\n      dup3\n        /* \"#utility.yul\":3052:3061   */\n      dup10\n        /* \"#utility.yul\":3048:3070   */\n      add\n        /* \"#utility.yul\":3016:3080   */\n      tag_50\n      jump\t// in\n    tag_97:\n        /* \"#utility.yul\":3006:3080   */\n      swap3\n      pop\n        /* \"#utility.yul\":2961:3090   */\n      pop\n        /* \"#utility.yul\":3129:3132   */\n      0x80\n        /* \"#utility.yul\":3156:3219   */\n      tag_98\n        /* \"#utility.yul\":3211:3218   */\n      dup9\n        /* \"#utility.yul\":3202:3208   */\n      dup3\n        /* \"#utility.yul\":3191:3200   */\n      dup10\n        /* \"#utility.yul\":3187:3209   */\n      add\n        /* \"#utility.yul\":3156:3219   */\n      tag_46\n      jump\t// in\n    tag_98:\n        /* \"#utility.yul\":3146:3219   */\n      swap2\n      pop\n        /* \"#utility.yul\":3100:3229   */\n      pop\n        /* \"#utility.yul\":2265:3236   */\n      swap3\n      swap6\n      pop\n      swap3\n      swap6\n      swap1\n      swap4\n      pop\n      jump\t// out\n        /* \"#utility.yul\":3242:3328   */\n    tag_51:\n        /* \"#utility.yul\":3277:3284   */\n      0x00\n        /* \"#utility.yul\":3317:3321   */\n      0xff\n        /* \"#utility.yul\":3310:3315   */\n      dup3\n        /* \"#utility.yul\":3306:3322   */\n      and\n        /* \"#utility.yul\":3295:3322   */\n      swap1\n      pop\n        /* \"#utility.yul\":3242:3328   */\n      swap2\n      swap1\n      pop\n      jump\t// out\n        /* \"#utility.yul\":3334:3452   */\n    tag_52:\n        /* \"#utility.yul\":3405:3427   */\n      tag_101\n        /* \"#utility.yul\":3421:3426   */\n      dup2\n        /* \"#utility.yul\":3405:3427   */\n      tag_51\n      jump\t// in\n    tag_101:\n        /* \"#utility.yul\":3398:3403   */\n      dup2\n        /* \"#utility.yul\":3395:3428   */\n      eq\n        /* \"#utility.yul\":3385:3446   */\n      tag_102\n      jumpi\n        /* \"#utility.yul\":3442:3443   */\n      0x00\n        /* \"#utility.yul\":3439:3440   */\n      0x00\n        /* \"#utility.yul\":3432:3444   */\n      revert\n        /* \"#utility.yul\":3385:3446   */\n    tag_102:\n        /* \"#utility.yul\":3334:3452   */\n      pop\n      jump\t// out\n        /* \"#utility.yul\":3458:3597   */\n    tag_53:\n        /* \"#utility.yul\":3513:3518   */\n      0x00\n        /* \"#utility.yul\":3544:3550   */\n      dup2\n        /* \"#utility.yul\":3538:3551   */\n      mload\n        /* \"#utility.yul\":3529:3551   */\n      swap1\n      pop\n        /* \"#utility.yul\":3560:3591   */\n      tag_104\n        /* \"#utility.yul\":3585:3590   */\n      dup2\n        /* \"#utility.yul\":3560:3591   */\n      tag_52\n      jump\t// in\n    tag_104:\n        /* \"#utility.yul\":3458:3597   */\n      swap3\n      swap2\n      pop\n      pop\n      jump\t// out\n        /* \"#utility.yul\":3603:3950   */\n    tag_26:\n        /* \"#utility.yul\":3671:3677   */\n      0x00\n        /* \"#utility.yul\":3720:3722   */\n      0x20\n        /* \"#utility.yul\":3708:3717   */\n      dup3\n        /* \"#utility.yul\":3699:3706   */\n      dup5\n        /* \"#utility.yul\":3695:3718   */\n      sub\n        /* \"#utility.yul\":3691:3723   */\n      slt\n        /* \"#utility.yul\":3688:3807   */\n      iszero\n      tag_106\n      jumpi\n        /* \"#utility.yul\":3726:3805   */\n      tag_107\n      tag_38\n      jump\t// in\n    tag_107:\n        /* \"#utility.yul\":3688:3807   */\n    tag_106:\n        /* \"#utility.yul\":3846:3847   */\n      0x00\n        /* \"#utility.yul\":3871:3933   */\n      tag_108\n        /* \"#utility.yul\":3925:3932   */\n      dup5\n        /* \"#utility.yul\":3916:3922   */\n      dup3\n        /* \"#utility.yul\":3905:3914   */\n      dup6\n        /* \"#utility.yul\":3901:3923   */\n      add\n        /* \"#utility.yul\":3871:3933   */\n      tag_53\n      jump\t// in\n    tag_108:\n        /* \"#utility.yul\":3861:3933   */\n      swap2\n      pop\n        /* \"#utility.yul\":3817:3943   */\n      pop\n        /* \"#utility.yul\":3603:3950   */\n      swap3\n      swap2\n      pop\n      pop\n      jump\t// out\n        /* \"#utility.yul\":3956:4136   */\n    tag_54:\n        /* \"#utility.yul\":4004:4081   */\n      0x4e487b7100000000000000000000000000000000000000000000000000000000\n        /* \"#utility.yul\":4001:4002   */\n      0x00\n        /* \"#utility.yul\":3994:4082   */\n      mstore\n        /* \"#utility.yul\":4101:4105   */\n      0x11\n        /* \"#utility.yul\":4098:4099   */\n      0x04\n        /* \"#utility.yul\":4091:4106   */\n      mstore\n        /* \"#utility.yul\":4125:4129   */\n      0x24\n        /* \"#utility.yul\":4122:4123   */\n      0x00\n        /* \"#utility.yul\":4115:4130   */\n      revert\n        /* \"#utility.yul\":4142:4552   */\n    tag_28:\n        /* \"#utility.yul\":4182:4189   */\n      0x00\n        /* \"#utility.yul\":4205:4225   */\n      tag_111\n        /* \"#utility.yul\":4223:4224   */\n      dup3\n        /* \"#utility.yul\":4205:4225   */\n      tag_40\n      jump\t// in\n    tag_111:\n        /* \"#utility.yul\":4200:4225   */\n      swap2\n      pop\n        /* \"#utility.yul\":4239:4259   */\n      tag_112\n        /* \"#utility.yul\":4257:4258   */\n      dup4\n        /* \"#utility.yul\":4239:4259   */\n      tag_40\n      jump\t// in\n    tag_112:\n        /* \"#utility.yul\":4234:4259   */\n      swap3\n      pop\n        /* \"#utility.yul\":4294:4295   */\n      dup3\n        /* \"#utility.yul\":4291:4292   */\n      dup3\n        /* \"#utility.yul\":4287:4296   */\n      mul\n        /* \"#utility.yul\":4316:4346   */\n      tag_113\n        /* \"#utility.yul\":4334:4345   */\n      dup2\n        /* \"#utility.yul\":4316:4346   */\n      tag_40\n      jump\t// in\n    tag_113:\n        /* \"#utility.yul\":4305:4346   */\n      swap2\n      pop\n        /* \"#utility.yul\":4495:4496   */\n      dup3\n        /* \"#utility.yul\":4486:4493   */\n      dup3\n        /* \"#utility.yul\":4482:4497   */\n      div\n        /* \"#utility.yul\":4479:4480   */\n      dup5\n        /* \"#utility.yul\":4476:4498   */\n      eq\n        /* \"#utility.yul\":4456:4457   */\n      dup4\n        /* \"#utility.yul\":4449:4458   */\n      iszero\n        /* \"#utility.yul\":4429:4512   */\n      or\n        /* \"#utility.yul\":4406:4545   */\n      tag_114\n      jumpi\n        /* \"#utility.yul\":4525:4543   */\n      tag_115\n      tag_54\n      jump\t// in\n    tag_115:\n        /* \"#utility.yul\":4406:4545   */\n    tag_114:\n        /* \"#utility.yul\":4190:4552   */\n      pop\n        /* \"#utility.yul\":4142:4552   */\n      swap3\n      swap2\n      pop\n      pop\n      jump\t// out\n        /* \"#utility.yul\":4558:4738   */\n    tag_55:\n        /* \"#utility.yul\":4606:4683   */\n      0x4e487b7100000000000000000000000000000000000000000000000000000000\n        /* \"#utility.yul\":4603:4604   */\n      0x00\n        /* \"#utility.yul\":4596:4684   */\n      mstore\n        /* \"#utility.yul\":4703:4707   */\n      0x12\n        /* \"#utility.yul\":4700:4701   */\n      0x04\n        /* \"#utility.yul\":4693:4708   */\n      mstore\n        /* \"#utility.yul\":4727:4731   */\n      0x24\n        /* \"#utility.yul\":4724:4725   */\n      0x00\n        /* \"#utility.yul\":4717:4732   */\n      revert\n        /* \"#utility.yul\":4744:4929   */\n    tag_31:\n        /* \"#utility.yul\":4784:4785   */\n      0x00\n        /* \"#utility.yul\":4801:4821   */\n      tag_118\n        /* \"#utility.yul\":4819:4820   */\n      dup3\n        /* \"#utility.yul\":4801:4821   */\n      tag_40\n      jump\t// in\n    tag_118:\n        /* \"#utility.yul\":4796:4821   */\n      swap2\n      pop\n        /* \"#utility.yul\":4835:4855   */\n      tag_119\n        /* \"#utility.yul\":4853:4854   */\n      dup4\n        /* \"#utility.yul\":4835:4855   */\n      tag_40\n      jump\t// in\n    tag_119:\n        /* \"#utility.yul\":4830:4855   */\n      swap3\n      pop\n        /* \"#utility.yul\":4874:4875   */\n      dup3\n        /* \"#utility.yul\":4864:4899   */\n      tag_120\n      jumpi\n        /* \"#utility.yul\":4879:4897   */\n      tag_121\n      tag_55\n      jump\t// in\n    tag_121:\n        /* \"#utility.yul\":4864:4899   */\n    tag_120:\n        /* \"#utility.yul\":4921:4922   */\n      dup3\n        /* \"#utility.yul\":4918:4919   */\n      dup3\n        /* \"#utility.yul\":4914:4923   */\n      div\n        /* \"#utility.yul\":4909:4923   */\n      swap1\n      pop\n        /* \"#utility.yul\":4744:4929   */\n      swap3\n      swap2\n      pop\n      pop\n      jump\t// out\n        /* \"#utility.yul\":4935:5104   */\n    tag_56:\n        /* \"#utility.yul\":5019:5030   */\n      0x00\n        /* \"#utility.yul\":5053:5059   */\n      dup3\n        /* \"#utility.yul\":5048:5051   */\n      dup3\n        /* \"#utility.yul\":5041:5060   */\n      mstore\n        /* \"#utility.yul\":5093:5097   */\n      0x20\n        /* \"#utility.yul\":5088:5091   */\n      dup3\n        /* \"#utility.yul\":5084:5098   */\n      add\n        /* \"#utility.yul\":5069:5098   */\n      swap1\n      pop\n        /* \"#utility.yul\":4935:5104   */\n      swap3\n      swap2\n      pop\n      pop\n      jump\t// out\n        /* \"#utility.yul\":5110:5340   */\n    tag_57:\n        /* \"#utility.yul\":5250:5284   */\n      0x596f75206d7573742073656e64206174206c656173742031352055534420776f\n        /* \"#utility.yul\":5246:5247   */\n      0x00\n        /* \"#utility.yul\":5238:5244   */\n      dup3\n        /* \"#utility.yul\":5234:5248   */\n      add\n        /* \"#utility.yul\":5227:5285   */\n      mstore\n        /* \"#utility.yul\":5319:5332   */\n      0x727468206f662045544821000000000000000000000000000000000000000000\n        /* \"#utility.yul\":5314:5316   */\n      0x20\n        /* \"#utility.yul\":5306:5312   */\n      dup3\n        /* \"#utility.yul\":5302:5317   */\n      add\n        /* \"#utility.yul\":5295:5333   */\n      mstore\n        /* \"#utility.yul\":5110:5340   */\n      pop\n      jump\t// out\n        /* \"#utility.yul\":5346:5712   */\n    tag_58:\n        /* \"#utility.yul\":5488:5491   */\n      0x00\n        /* \"#utility.yul\":5509:5576   */\n      tag_125\n        /* \"#utility.yul\":5573:5575   */\n      0x2b\n        /* \"#utility.yul\":5568:5571   */\n      dup4\n        /* \"#utility.yul\":5509:5576   */\n      tag_56\n      jump\t// in\n    tag_125:\n        /* \"#utility.yul\":5502:5576   */\n      swap2\n      pop\n        /* \"#utility.yul\":5585:5678   */\n      tag_126\n        /* \"#utility.yul\":5674:5677   */\n      dup3\n        /* \"#utility.yul\":5585:5678   */\n      tag_57\n      jump\t// in\n    tag_126:\n        /* \"#utility.yul\":5703:5705   */\n      0x40\n        /* \"#utility.yul\":5698:5701   */\n      dup3\n        /* \"#utility.yul\":5694:5706   */\n      add\n        /* \"#utility.yul\":5687:5706   */\n      swap1\n      pop\n        /* \"#utility.yul\":5346:5712   */\n      swap2\n      swap1\n      pop\n      jump\t// out\n        /* \"#utility.yul\":5718:6137   */\n    tag_36:\n        /* \"#utility.yul\":5884:5888   */\n      0x00\n        /* \"#utility.yul\":5922:5924   */\n      0x20\n        /* \"#utility.yul\":5911:5920   */\n      dup3\n        /* \"#utility.yul\":5907:5925   */\n      add\n        /* \"#utility.yul\":5899:5925   */\n      swap1\n      pop\n        /* \"#utility.yul\":5971:5980   */\n      dup2\n        /* \"#utility.yul\":5965:5969   */\n      dup2\n        /* \"#utility.yul\":5961:5981   */\n      sub\n        /* \"#utility.yul\":5957:5958   */\n      0x00\n        /* \"#utility.yul\":5946:5955   */\n      dup4\n        /* \"#utility.yul\":5942:5959   */\n      add\n        /* \"#utility.yul\":5935:5982   */\n      mstore\n        /* \"#utility.yul\":5999:6130   */\n      tag_128\n        /* \"#utility.yul\":6125:6129   */\n      dup2\n        /* \"#utility.yul\":5999:6130   */\n      tag_58\n      jump\t// in\n    tag_128:\n        /* \"#utility.yul\":5991:6130   */\n      swap1\n      pop\n        /* \"#utility.yul\":5718:6137   */\n      swap2\n      swap1\n      pop\n      jump\t// out\n\n    auxdata: 0xa264697066735822122068a232efccea81a309fdefe1f2f1dce24c52a99216fc05b73fbedf8df3985c7b64736f6c634300081e0033\n}\n",
				"bytecode": {
					"linkReferences": {},
					"object": "6080604052348015600e575f5ffd5b5073694aa1769357215de4fac081bf1f309adc3253065f5f6101000a81548173ffffffffffffffffffffffffffffffffffffffff021916908373ffffffffffffffffffffffffffffffffffffffff1602179055506105ec8061006f5f395ff3fe608060405260043610610033575f3560e01c8063073789e2146100375780636b69a59214610073578063d0e30db01461009d575b5f5ffd5b348015610042575f5ffd5b5061005d6004803603810190610058919061029c565b6100a7565b60405161006a91906102d6565b60405180910390f35b34801561007e575f5ffd5b50610087610204565b60405161009491906102d6565b60405180910390f35b6100a5610210565b005b5f5f5f5f9054906101000a900473ffffffffffffffffffffffffffffffffffffffff1673ffffffffffffffffffffffffffffffffffffffff1663feaf968c6040518163ffffffff1660e01b815260040160a060405180830381865afa158015610112573d5f5f3e3d5ffd5b505050506040513d601f19601f820116820180604052508101906101369190610375565b5050509150505f5f5f9054906101000a900473ffffffffffffffffffffffffffffffffffffffff1673ffffffffffffffffffffffffffffffffffffffff1663313ce5676040518163ffffffff1660e01b8152600401602060405180830381865afa1580156101a6573d5f5f3e3d5ffd5b505050506040513d601f19601f820116820180604052508101906101ca9190610422565b9050670de0b6b3a76400006402540be40085846101e7919061047a565b6101f1919061047a565b6101fb91906104e8565b92505050919050565b67d02ab486cedc000081565b67d02ab486cedc0000610222346100a7565b1015610263576040517f08c379a000000000000000000000000000000000000000000000000000000000815260040161025a90610598565b60405180910390fd5b565b5f5ffd5b5f819050919050565b61027b81610269565b8114610285575f5ffd5b50565b5f8135905061029681610272565b92915050565b5f602082840312156102b1576102b0610265565b5b5f6102be84828501610288565b91505092915050565b6102d081610269565b82525050565b5f6020820190506102e95f8301846102c7565b92915050565b5f69ffffffffffffffffffff82169050919050565b61030d816102ef565b8114610317575f5ffd5b50565b5f8151905061032881610304565b92915050565b5f819050919050565b6103408161032e565b811461034a575f5ffd5b50565b5f8151905061035b81610337565b92915050565b5f8151905061036f81610272565b92915050565b5f5f5f5f5f60a0868803121561038e5761038d610265565b5b5f61039b8882890161031a565b95505060206103ac8882890161034d565b94505060406103bd88828901610361565b93505060606103ce88828901610361565b92505060806103df8882890161031a565b9150509295509295909350565b5f60ff82169050919050565b610401816103ec565b811461040b575f5ffd5b50565b5f8151905061041c816103f8565b92915050565b5f6020828403121561043757610436610265565b5b5f6104448482850161040e565b91505092915050565b7f4e487b71000000000000000000000000000000000000000000000000000000005f52601160045260245ffd5b5f61048482610269565b915061048f83610269565b925082820261049d81610269565b915082820484148315176104b4576104b361044d565b5b5092915050565b7f4e487b71000000000000000000000000000000000000000000000000000000005f52601260045260245ffd5b5f6104f282610269565b91506104fd83610269565b92508261050d5761050c6104bb565b5b828204905092915050565b5f82825260208201905092915050565b7f596f75206d7573742073656e64206174206c656173742031352055534420776f5f8201527f727468206f662045544821000000000000000000000000000000000000000000602082015250565b5f610582602b83610518565b915061058d82610528565b604082019050919050565b5f6020820190508181035f8301526105af81610576565b905091905056fea264697066735822122068a232efccea81a309fdefe1f2f1dce24c52a99216fc05b73fbedf8df3985c7b64736f6c634300081e0033",
					"opcodes": "PUSH1 0x80 PUSH1 0x40 MSTORE CALLVALUE DUP1 ISZERO PUSH1 0xE JUMPI PUSH0 PUSH0 REVERT JUMPDEST POP PUSH20 0x694AA1769357215DE4FAC081BF1F309ADC325306 PUSH0 PUSH0 PUSH2 0x100 EXP DUP2 SLOAD DUP2 PUSH20 0xFFFFFFFFFFFFFFFFFFFFFFFFFFFFFFFFFFFFFFFF MUL NOT AND SWAP1 DUP4 PUSH20 0xFFFFFFFFFFFFFFFFFFFFFFFFFFFFFFFFFFFFFFFF AND MUL OR SWAP1 SSTORE POP PUSH2 0x5EC DUP1 PUSH2 0x6F PUSH0 CODECOPY PUSH0 RETURN INVALID PUSH1 0x80 PUSH1 0x40 MSTORE PUSH1 0x4 CALLDATASIZE LT PUSH2 0x33 JUMPI PUSH0 CALLDATALOAD PUSH1 0xE0 SHR DUP1 PUSH4 0x73789E2 EQ PUSH2 0x37 JUMPI DUP1 PUSH4 0x6B69A592 EQ PUSH2 0x73 JUMPI DUP1 PUSH4 0xD0E30DB0 EQ PUSH2 0x9D JUMPI JUMPDEST PUSH0 PUSH0 REVERT JUMPDEST CALLVALUE DUP1 ISZERO PUSH2 0x42 JUMPI PUSH0 PUSH0 REVERT JUMPDEST POP PUSH2 0x5D PUSH1 0x4 DUP1 CALLDATASIZE SUB DUP2 ADD SWAP1 PUSH2 0x58 SWAP2 SWAP1 PUSH2 0x29C JUMP JUMPDEST PUSH2 0xA7 JUMP JUMPDEST PUSH1 0x40 MLOAD PUSH2 0x6A SWAP2 SWAP1 PUSH2 0x2D6 JUMP JUMPDEST PUSH1 0x40 MLOAD DUP1 SWAP2 SUB SWAP1 RETURN JUMPDEST CALLVALUE DUP1 ISZERO PUSH2 0x7E JUMPI PUSH0 PUSH0 REVERT JUMPDEST POP PUSH2 0x87 PUSH2 0x204 JUMP JUMPDEST PUSH1 0x40 MLOAD PUSH2 0x94 SWAP2 SWAP1 PUSH2 0x2D6 JUMP JUMPDEST PUSH1 0x40 MLOAD DUP1 SWAP2 SUB SWAP1 RETURN JUMPDEST PUSH2 0xA5 PUSH2 0x210 JUMP JUMPDEST STOP JUMPDEST PUSH0 PUSH0 PUSH0 PUSH0 SWAP1 SLOAD SWAP1 PUSH2 0x100 EXP SWAP1 DIV PUSH20 0xFFFFFFFFFFFFFFFFFFFFFFFFFFFFFFFFFFFFFFFF AND PUSH20 0xFFFFFFFFFFFFFFFFFFFFFFFFFFFFFFFFFFFFFFFF AND PUSH4 0xFEAF968C PUSH1 0x40 MLOAD DUP2 PUSH4 0xFFFFFFFF AND PUSH1 0xE0 SHL DUP2 MSTORE PUSH1 0x4 ADD PUSH1 0xA0 PUSH1 0x40 MLOAD DUP1 DUP4 SUB DUP2 DUP7 GAS STATICCALL ISZERO DUP1 ISZERO PUSH2 0x112 JUMPI RETURNDATASIZE PUSH0 PUSH0 RETURNDATACOPY RETURNDATASIZE PUSH0 REVERT JUMPDEST POP POP POP POP PUSH1 0x40 MLOAD RETURNDATASIZE PUSH1 0x1F NOT PUSH1 0x1F DUP3 ADD AND DUP3 ADD DUP1 PUSH1 0x40 MSTORE POP DUP2 ADD SWAP1 PUSH2 0x136 SWAP2 SWAP1 PUSH2 0x375 JUMP JUMPDEST POP POP POP SWAP2 POP POP PUSH0 PUSH0 PUSH0 SWAP1 SLOAD SWAP1 PUSH2 0x100 EXP SWAP1 DIV PUSH20 0xFFFFFFFFFFFFFFFFFFFFFFFFFFFFFFFFFFFFFFFF AND PUSH20 0xFFFFFFFFFFFFFFFFFFFFFFFFFFFFFFFFFFFFFFFF AND PUSH4 0x313CE567 PUSH1 0x40 MLOAD DUP2 PUSH4 0xFFFFFFFF AND PUSH1 0xE0 SHL DUP2 MSTORE PUSH1 0x4 ADD PUSH1 0x20 PUSH1 0x40 MLOAD DUP1 DUP4 SUB DUP2 DUP7 GAS STATICCALL ISZERO DUP1 ISZERO PUSH2 0x1A6 JUMPI RETURNDATASIZE PUSH0 PUSH0 RETURNDATACOPY RETURNDATASIZE PUSH0 REVERT JUMPDEST POP POP POP POP PUSH1 0x40 MLOAD RETURNDATASIZE PUSH1 0x1F NOT PUSH1 0x1F DUP3 ADD AND DUP3 ADD DUP1 PUSH1 0x40 MSTORE POP DUP2 ADD SWAP1 PUSH2 0x1CA SWAP2 SWAP1 PUSH2 0x422 JUMP JUMPDEST SWAP1 POP PUSH8 0xDE0B6B3A7640000 PUSH5 0x2540BE400 DUP6 DUP5 PUSH2 0x1E7 SWAP2 SWAP1 PUSH2 0x47A JUMP JUMPDEST PUSH2 0x1F1 SWAP2 SWAP1 PUSH2 0x47A JUMP JUMPDEST PUSH2 0x1FB SWAP2 SWAP1 PUSH2 0x4E8 JUMP JUMPDEST SWAP3 POP POP POP SWAP2 SWAP1 POP JUMP JUMPDEST PUSH8 0xD02AB486CEDC0000 DUP2 JUMP JUMPDEST PUSH8 0xD02AB486CEDC0000 PUSH2 0x222 CALLVALUE PUSH2 0xA7 JUMP JUMPDEST LT ISZERO PUSH2 0x263 JUMPI PUSH1 0x40 MLOAD PUSH32 0x8C379A000000000000000000000000000000000000000000000000000000000 DUP2 MSTORE PUSH1 0x4 ADD PUSH2 0x25A SWAP1 PUSH2 0x598 JUMP JUMPDEST PUSH1 0x40 MLOAD DUP1 SWAP2 SUB SWAP1 REVERT JUMPDEST JUMP JUMPDEST PUSH0 PUSH0 REVERT JUMPDEST PUSH0 DUP2 SWAP1 POP SWAP2 SWAP1 POP JUMP JUMPDEST PUSH2 0x27B DUP2 PUSH2 0x269 JUMP JUMPDEST DUP2 EQ PUSH2 0x285 JUMPI PUSH0 PUSH0 REVERT JUMPDEST POP JUMP JUMPDEST PUSH0 DUP2 CALLDATALOAD SWAP1 POP PUSH2 0x296 DUP2 PUSH2 0x272 JUMP JUMPDEST SWAP3 SWAP2 POP POP JUMP JUMPDEST PUSH0 PUSH1 0x20 DUP3 DUP5 SUB SLT ISZERO PUSH2 0x2B1 JUMPI PUSH2 0x2B0 PUSH2 0x265 JUMP JUMPDEST JUMPDEST PUSH0 PUSH2 0x2BE DUP5 DUP3 DUP6 ADD PUSH2 0x288 JUMP JUMPDEST SWAP2 POP POP SWAP3 SWAP2 POP POP JUMP JUMPDEST PUSH2 0x2D0 DUP2 PUSH2 0x269 JUMP JUMPDEST DUP3 MSTORE POP POP JUMP JUMPDEST PUSH0 PUSH1 0x20 DUP3 ADD SWAP1 POP PUSH2 0x2E9 PUSH0 DUP4 ADD DUP5 PUSH2 0x2C7 JUMP JUMPDEST SWAP3 SWAP2 POP POP JUMP JUMPDEST PUSH0 PUSH10 0xFFFFFFFFFFFFFFFFFFFF DUP3 AND SWAP1 POP SWAP2 SWAP1 POP JUMP JUMPDEST PUSH2 0x30D DUP2 PUSH2 0x2EF JUMP JUMPDEST DUP2 EQ PUSH2 0x317 JUMPI PUSH0 PUSH0 REVERT JUMPDEST POP JUMP JUMPDEST PUSH0 DUP2 MLOAD SWAP1 POP PUSH2 0x328 DUP2 PUSH2 0x304 JUMP JUMPDEST SWAP3 SWAP2 POP POP JUMP JUMPDEST PUSH0 DUP2 SWAP1 POP SWAP2 SWAP1 POP JUMP JUMPDEST PUSH2 0x340 DUP2 PUSH2 0x32E JUMP JUMPDEST DUP2 EQ PUSH2 0x34A JUMPI PUSH0 PUSH0 REVERT JUMPDEST POP JUMP JUMPDEST PUSH0 DUP2 MLOAD SWAP1 POP PUSH2 0x35B DUP2 PUSH2 0x337 JUMP JUMPDEST SWAP3 SWAP2 POP POP JUMP JUMPDEST PUSH0 DUP2 MLOAD SWAP1 POP PUSH2 0x36F DUP2 PUSH2 0x272 JUMP JUMPDEST SWAP3 SWAP2 POP POP JUMP JUMPDEST PUSH0 PUSH0 PUSH0 PUSH0 PUSH0 PUSH1 0xA0 DUP7 DUP9 SUB SLT ISZERO PUSH2 0x38E JUMPI PUSH2 0x38D PUSH2 0x265 JUMP JUMPDEST JUMPDEST PUSH0 PUSH2 0x39B DUP9 DUP3 DUP10 ADD PUSH2 0x31A JUMP JUMPDEST SWAP6 POP POP PUSH1 0x20 PUSH2 0x3AC DUP9 DUP3 DUP10 ADD PUSH2 0x34D JUMP JUMPDEST SWAP5 POP POP PUSH1 0x40 PUSH2 0x3BD DUP9 DUP3 DUP10 ADD PUSH2 0x361 JUMP JUMPDEST SWAP4 POP POP PUSH1 0x60 PUSH2 0x3CE DUP9 DUP3 DUP10 ADD PUSH2 0x361 JUMP JUMPDEST SWAP3 POP POP PUSH1 0x80 PUSH2 0x3DF DUP9 DUP3 DUP10 ADD PUSH2 0x31A JUMP JUMPDEST SWAP2 POP POP SWAP3 SWAP6 POP SWAP3 SWAP6 SWAP1 SWAP4 POP JUMP JUMPDEST PUSH0 PUSH1 0xFF DUP3 AND SWAP1 POP SWAP2 SWAP1 POP JUMP JUMPDEST PUSH2 0x401 DUP2 PUSH2 0x3EC JUMP JUMPDEST DUP2 EQ PUSH2 0x40B JUMPI PUSH0 PUSH0 REVERT JUMPDEST POP JUMP JUMPDEST PUSH0 DUP2 MLOAD SWAP1 POP PUSH2 0x41C DUP2 PUSH2 0x3F8 JUMP JUMPDEST SWAP3 SWAP2 POP POP JUMP JUMPDEST PUSH0 PUSH1 0x20 DUP3 DUP5 SUB SLT ISZERO PUSH2 0x437 JUMPI PUSH2 0x436 PUSH2 0x265 JUMP JUMPDEST JUMPDEST PUSH0 PUSH2 0x444 DUP5 DUP3 DUP6 ADD PUSH2 0x40E JUMP JUMPDEST SWAP2 POP POP SWAP3 SWAP2 POP POP JUMP JUMPDEST PUSH32 0x4E487B7100000000000000000000000000000000000000000000000000000000 PUSH0 MSTORE PUSH1 0x11 PUSH1 0x4 MSTORE PUSH1 0x24 PUSH0 REVERT JUMPDEST PUSH0 PUSH2 0x484 DUP3 PUSH2 0x269 JUMP JUMPDEST SWAP2 POP PUSH2 0x48F DUP4 PUSH2 0x269 JUMP JUMPDEST SWAP3 POP DUP3 DUP3 MUL PUSH2 0x49D DUP2 PUSH2 0x269 JUMP JUMPDEST SWAP2 POP DUP3 DUP3 DIV DUP5 EQ DUP4 ISZERO OR PUSH2 0x4B4 JUMPI PUSH2 0x4B3 PUSH2 0x44D JUMP JUMPDEST JUMPDEST POP SWAP3 SWAP2 POP POP JUMP JUMPDEST PUSH32 0x4E487B7100000000000000000000000000000000000000000000000000000000 PUSH0 MSTORE PUSH1 0x12 PUSH1 0x4 MSTORE PUSH1 0x24 PUSH0 REVERT JUMPDEST PUSH0 PUSH2 0x4F2 DUP3 PUSH2 0x269 JUMP JUMPDEST SWAP2 POP PUSH2 0x4FD DUP4 PUSH2 0x269 JUMP JUMPDEST SWAP3 POP DUP3 PUSH2 0x50D JUMPI PUSH2 0x50C PUSH2 0x4BB JUMP JUMPDEST JUMPDEST DUP3 DUP3 DIV SWAP1 POP SWAP3 SWAP2 POP POP JUMP JUMPDEST PUSH0 DUP3 DUP3 MSTORE PUSH1 0x20 DUP3 ADD SWAP1 POP SWAP3 SWAP2 POP POP JUMP JUMPDEST PUSH32 0x596F75206D7573742073656E64206174206C656173742031352055534420776F PUSH0 DUP3 ADD MSTORE PUSH32 0x727468206F662045544821000000000000000000000000000000000000000000 PUSH1 0x20 DUP3 ADD MSTORE POP JUMP JUMPDEST PUSH0 PUSH2 0x582 PUSH1 0x2B DUP4 PUSH2 0x518 JUMP JUMPDEST SWAP2 POP PUSH2 0x58D DUP3 PUSH2 0x528 JUMP JUMPDEST PUSH1 0x40 DUP3 ADD SWAP1 POP SWAP2 SWAP1 POP JUMP JUMPDEST PUSH0 PUSH1 0x20 DUP3 ADD SWAP1 POP DUP2 DUP2 SUB PUSH0 DUP4 ADD MSTORE PUSH2 0x5AF DUP2 PUSH2 0x576 JUMP JUMPDEST SWAP1 POP SWAP2 SWAP1 POP JUMP INVALID LOG2 PUSH5 0x6970667358 0x22 SLT KECCAK256 PUSH9 0xA232EFCCEA81A309FD 0xEF RJUMPI 0xF2F1 0xDC 0xE2 0x4C MSTORE 0xA9 SWAP3 AND 0xFC SDIV 0xB7 EXTCODEHASH 0xBE 0xDF DUP14 RETURN SWAP9 TLOAD PUSH28 0x64736F6C634300081E00330000000000000000000000000000000000 "
				},
				"gasEstimates": {
					"creation": {
						"codeDepositCost": "303200",
						"executionCost": "24606",
						"totalCost": "327806"
					},
					"external": {
						"MINIMUM_USD()": "325",
						"deposit()": "infinite",
						"getUsdValue(uint256)": "infinite"
					}
				},
				"methodIdentifiers": {
					"MINIMUM_USD()": "6b69a592",
					"deposit()": "d0e30db0",
					"getUsdValue(uint256)": "073789e2"
				}
			},
			"storageLayout": {
				"storage": [
					{
						"astId": 52,
						"contract": "contracts/FundChecker.sol:FundChecker",
						"label": "priceFeed",
						"offset": 0,
						"slot": "0",
						"type": "t_contract(AggregatorV3Interface)45"
					}
				],
				"types": {
					"t_contract(AggregatorV3Interface)45": {
						"encoding": "inplace",
						"label": "contract AggregatorV3Interface",
						"numberOfBytes": "20"
					}
				}
			},
			"userdoc": {
				"kind": "user",
				"methods": {
					"constructor": {
						"notice": "Network: Sepolia Aggregator: ETH/USD Address: 0x6930533C4E6f6D74c2998b350a311646B0389062"
					},
					"deposit()": {
						"notice": "A function to receive funds, which reverts if the value is less than 15 USD."
					},
					"getUsdValue(uint256)": {
						"notice": "Converts a given amount of ETH (in wei) to its USD value (with 18 decimals)."
					}
				},
				"version": 1
			}
		}
	}
}