{
	"data": {
		"bytecode": {
			"linkReferences": {},
			"object": "608060405267d02ab486cedc00005f553480156019575f5ffd5b50610585806100275f395ff3fe60806040526004361061003e575f3560e01c80630fcb59841461004257806369bd01c41461006c578063caeb220614610076578063d49f0fa5146100a0575b5f5ffd5b34801561004d575f5ffd5b506100566100dc565b6040516100639190610227565b60405180910390f35b610074610184565b005b348015610081575f5ffd5b5061008a6101d2565b6040516100979190610227565b60405180910390f35b3480156100ab575f5ffd5b506100c660048036038101906100c1919061026e565b6101d7565b6040516100d39190610227565b60405180910390f35b5f5f73694aa1769357215de4fac081bf1f309adc32530690505f8173ffffffffffffffffffffffffffffffffffffffff1663feaf968c6040518163ffffffff1660e01b815260040160a060405180830381865afa15801561013f573d5f5f3e3d5ffd5b505050506040513d601f19601f82011682018060405250810190610163919061031f565b505050915050670de0b6b3a76400008161017d91906103c3565b9250505090565b5f5461018f346101d7565b10156101d0576040517f08c379a00000000000000000000000000000000000000000000000000000000081526004016101c790610493565b60405180910390fd5b565b5f5481565b5f5f6101e16100dc565b90505f670de0b6b3a764000082856101f991906104b1565b610203919061051f565b90508092505050919050565b5f819050919050565b6102218161020f565b82525050565b5f60208201905061023a5f830184610218565b92915050565b5f5ffd5b61024d8161020f565b8114610257575f5ffd5b50565b5f8135905061026881610244565b92915050565b5f6020828403121561028357610282610240565b5b5f6102908482850161025a565b91505092915050565b5f69ffffffffffffffffffff82169050919050565b6102b781610299565b81146102c1575f5ffd5b50565b5f815190506102d2816102ae565b92915050565b5f819050919050565b6102ea816102d8565b81146102f4575f5ffd5b50565b5f81519050610305816102e1565b92915050565b5f8151905061031981610244565b92915050565b5f5f5f5f5f60a0868803121561033857610337610240565b5b5f610345888289016102c4565b9550506020610356888289016102f7565b94505060406103678882890161030b565b93505060606103788882890161030b565b9250506080610389888289016102c4565b9150509295509295909350565b7f4e487b71000000000000000000000000000000000000000000000000000000005f52601160045260245ffd5b5f6103cd826102d8565b91506103d8836102d8565b92508282026103e6816102d8565b91507f800000000000000000000000000000000000000000000000000000000000000084145f8412161561041d5761041c610396565b5b828205841483151761043257610431610396565b5b5092915050565b5f82825260208201905092915050565b7f796f752068617665206e6f7420656e756665206d6f6e792021000000000000005f82015250565b5f61047d601983610439565b915061048882610449565b602082019050919050565b5f6020820190508181035f8301526104aa81610471565b9050919050565b5f6104bb8261020f565b91506104c68361020f565b92508282026104d48161020f565b915082820484148315176104eb576104ea610396565b5b5092915050565b7f4e487b71000000000000000000000000000000000000000000000000000000005f52601260045260245ffd5b5f6105298261020f565b91506105348361020f565b925082610544576105436104f2565b5b82820490509291505056fea26469706673582212209da94cdb9632173b37d8f30aeefbcb110da1dcc690cc69a5f52d38081c8a669a64736f6c634300081e0033",
			"opcodes": "PUSH1 0x80 PUSH1 0x40 MSTORE PUSH8 0xD02AB486CEDC0000 PUSH0 SSTORE CALLVALUE DUP1 ISZERO PUSH1 0x19 JUMPI PUSH0 PUSH0 REVERT JUMPDEST POP PUSH2 0x585 DUP1 PUSH2 0x27 PUSH0 CODECOPY PUSH0 RETURN INVALID PUSH1 0x80 PUSH1 0x40 MSTORE PUSH1 0x4 CALLDATASIZE LT PUSH2 0x3E JUMPI PUSH0 CALLDATALOAD PUSH1 0xE0 SHR DUP1 PUSH4 0xFCB5984 EQ PUSH2 0x42 JUMPI DUP1 PUSH4 0x69BD01C4 EQ PUSH2 0x6C JUMPI DUP1 PUSH4 0xCAEB2206 EQ PUSH2 0x76 JUMPI DUP1 PUSH4 0xD49F0FA5 EQ PUSH2 0xA0 JUMPI JUMPDEST PUSH0 PUSH0 REVERT JUMPDEST CALLVALUE DUP1 ISZERO PUSH2 0x4D JUMPI PUSH0 PUSH0 REVERT JUMPDEST POP PUSH2 0x56 PUSH2 0xDC JUMP JUMPDEST PUSH1 0x40 MLOAD PUSH2 0x63 SWAP2 SWAP1 PUSH2 0x227 JUMP JUMPDEST PUSH1 0x40 MLOAD DUP1 SWAP2 SUB SWAP1 RETURN JUMPDEST PUSH2 0x74 PUSH2 0x184 JUMP JUMPDEST STOP JUMPDEST CALLVALUE DUP1 ISZERO PUSH2 0x81 JUMPI PUSH0 PUSH0 REVERT JUMPDEST POP PUSH2 0x8A PUSH2 0x1D2 JUMP JUMPDEST PUSH1 0x40 MLOAD PUSH2 0x97 SWAP2 SWAP1 PUSH2 0x227 JUMP JUMPDEST PUSH1 0x40 MLOAD DUP1 SWAP2 SUB SWAP1 RETURN JUMPDEST CALLVALUE DUP1 ISZERO PUSH2 0xAB JUMPI PUSH0 PUSH0 REVERT JUMPDEST POP PUSH2 0xC6 PUSH1 0x4 DUP1 CALLDATASIZE SUB DUP2 ADD SWAP1 PUSH2 0xC1 SWAP2 SWAP1 PUSH2 0x26E JUMP JUMPDEST PUSH2 0x1D7 JUMP JUMPDEST PUSH1 0x40 MLOAD PUSH2 0xD3 SWAP2 SWAP1 PUSH2 0x227 JUMP JUMPDEST PUSH1 0x40 MLOAD DUP1 SWAP2 SUB SWAP1 RETURN JUMPDEST PUSH0 PUSH0 PUSH20 0x694AA1769357215DE4FAC081BF1F309ADC325306 SWAP1 POP PUSH0 DUP2 PUSH20 0xFFFFFFFFFFFFFFFFFFFFFFFFFFFFFFFFFFFFFFFF AND PUSH4 0xFEAF968C PUSH1 0x40 MLOAD DUP2 PUSH4 0xFFFFFFFF AND PUSH1 0xE0 SHL DUP2 MSTORE PUSH1 0x4 ADD PUSH1 0xA0 PUSH1 0x40 MLOAD DUP1 DUP4 SUB DUP2 DUP7 GAS STATICCALL ISZERO DUP1 ISZERO PUSH2 0x13F JUMPI RETURNDATASIZE PUSH0 PUSH0 RETURNDATACOPY RETURNDATASIZE PUSH0 REVERT JUMPDEST POP POP POP POP PUSH1 0x40 MLOAD RETURNDATASIZE PUSH1 0x1F NOT PUSH1 0x1F DUP3 ADD AND DUP3 ADD DUP1 PUSH1 0x40 MSTORE POP DUP2 ADD SWAP1 PUSH2 0x163 SWAP2 SWAP1 PUSH2 0x31F JUMP JUMPDEST POP POP POP SWAP2 POP POP PUSH8 0xDE0B6B3A7640000 DUP2 PUSH2 0x17D SWAP2 SWAP1 PUSH2 0x3C3 JUMP JUMPDEST SWAP3 POP POP POP SWAP1 JUMP JUMPDEST PUSH0 SLOAD PUSH2 0x18F CALLVALUE PUSH2 0x1D7 JUMP JUMPDEST LT ISZERO PUSH2 0x1D0 JUMPI PUSH1 0x40 MLOAD PUSH32 0x8C379A000000000000000000000000000000000000000000000000000000000 DUP2 MSTORE PUSH1 0x4 ADD PUSH2 0x1C7 SWAP1 PUSH2 0x493 JUMP JUMPDEST PUSH1 0x40 MLOAD DUP1 SWAP2 SUB SWAP1 REVERT JUMPDEST JUMP JUMPDEST PUSH0 SLOAD DUP2 JUMP JUMPDEST PUSH0 PUSH0 PUSH2 0x1E1 PUSH2 0xDC JUMP JUMPDEST SWAP1 POP PUSH0 PUSH8 0xDE0B6B3A7640000 DUP3 DUP6 PUSH2 0x1F9 SWAP2 SWAP1 PUSH2 0x4B1 JUMP JUMPDEST PUSH2 0x203 SWAP2 SWAP1 PUSH2 0x51F JUMP JUMPDEST SWAP1 POP DUP1 SWAP3 POP POP POP SWAP2 SWAP1 POP JUMP JUMPDEST PUSH0 DUP2 SWAP1 POP SWAP2 SWAP1 POP JUMP JUMPDEST PUSH2 0x221 DUP2 PUSH2 0x20F JUMP JUMPDEST DUP3 MSTORE POP POP JUMP JUMPDEST PUSH0 PUSH1 0x20 DUP3 ADD SWAP1 POP PUSH2 0x23A PUSH0 DUP4 ADD DUP5 PUSH2 0x218 JUMP JUMPDEST SWAP3 SWAP2 POP POP JUMP JUMPDEST PUSH0 PUSH0 REVERT JUMPDEST PUSH2 0x24D DUP2 PUSH2 0x20F JUMP JUMPDEST DUP2 EQ PUSH2 0x257 JUMPI PUSH0 PUSH0 REVERT JUMPDEST POP JUMP JUMPDEST PUSH0 DUP2 CALLDATALOAD SWAP1 POP PUSH2 0x268 DUP2 PUSH2 0x244 JUMP JUMPDEST SWAP3 SWAP2 POP POP JUMP JUMPDEST PUSH0 PUSH1 0x20 DUP3 DUP5 SUB SLT ISZERO PUSH2 0x283 JUMPI PUSH2 0x282 PUSH2 0x240 JUMP JUMPDEST JUMPDEST PUSH0 PUSH2 0x290 DUP5 DUP3 DUP6 ADD PUSH2 0x25A JUMP JUMPDEST SWAP2 POP POP SWAP3 SWAP2 POP POP JUMP JUMPDEST PUSH0 PUSH10 0xFFFFFFFFFFFFFFFFFFFF DUP3 AND SWAP1 POP SWAP2 SWAP1 POP JUMP JUMPDEST PUSH2 0x2B7 DUP2 PUSH2 0x299 JUMP JUMPDEST DUP2 EQ PUSH2 0x2C1 JUMPI PUSH0 PUSH0 REVERT JUMPDEST POP JUMP JUMPDEST PUSH0 DUP2 MLOAD SWAP1 POP PUSH2 0x2D2 DUP2 PUSH2 0x2AE JUMP JUMPDEST SWAP3 SWAP2 POP POP JUMP JUMPDEST PUSH0 DUP2 SWAP1 POP SWAP2 SWAP1 POP JUMP JUMPDEST PUSH2 0x2EA DUP2 PUSH2 0x2D8 JUMP JUMPDEST DUP2 EQ PUSH2 0x2F4 JUMPI PUSH0 PUSH0 REVERT JUMPDEST POP JUMP JUMPDEST PUSH0 DUP2 MLOAD SWAP1 POP PUSH2 0x305 DUP2 PUSH2 0x2E1 JUMP JUMPDEST SWAP3 SWAP2 POP POP JUMP JUMPDEST PUSH0 DUP2 MLOAD SWAP1 POP PUSH2 0x319 DUP2 PUSH2 0x244 JUMP JUMPDEST SWAP3 SWAP2 POP POP JUMP JUMPDEST PUSH0 PUSH0 PUSH0 PUSH0 PUSH0 PUSH1 0xA0 DUP7 DUP9 SUB SLT ISZERO PUSH2 0x338 JUMPI PUSH2 0x337 PUSH2 0x240 JUMP JUMPDEST JUMPDEST PUSH0 PUSH2 0x345 DUP9 DUP3 DUP10 ADD PUSH2 0x2C4 JUMP JUMPDEST SWAP6 POP POP PUSH1 0x20 PUSH2 0x356 DUP9 DUP3 DUP10 ADD PUSH2 0x2F7 JUMP JUMPDEST SWAP5 POP POP PUSH1 0x40 PUSH2 0x367 DUP9 DUP3 DUP10 ADD PUSH2 0x30B JUMP JUMPDEST SWAP4 POP POP PUSH1 0x60 PUSH2 0x378 DUP9 DUP3 DUP10 ADD PUSH2 0x30B JUMP JUMPDEST SWAP3 POP POP PUSH1 0x80 PUSH2 0x389 DUP9 DUP3 DUP10 ADD PUSH2 0x2C4 JUMP JUMPDEST SWAP2 POP POP SWAP3 SWAP6 POP SWAP3 SWAP6 SWAP1 SWAP4 POP JUMP JUMPDEST PUSH32 0x4E487B7100000000000000000000000000000000000000000000000000000000 PUSH0 MSTORE PUSH1 0x11 PUSH1 0x4 MSTORE PUSH1 0x24 PUSH0 REVERT JUMPDEST PUSH0 PUSH2 0x3CD DUP3 PUSH2 0x2D8 JUMP JUMPDEST SWAP2 POP PUSH2 0x3D8 DUP4 PUSH2 0x2D8 JUMP JUMPDEST SWAP3 POP DUP3 DUP3 MUL PUSH2 0x3E6 DUP2 PUSH2 0x2D8 JUMP JUMPDEST SWAP2 POP PUSH32 0x8000000000000000000000000000000000000000000000000000000000000000 DUP5 EQ PUSH0 DUP5 SLT AND ISZERO PUSH2 0x41D JUMPI PUSH2 0x41C PUSH2 0x396 JUMP JUMPDEST JUMPDEST DUP3 DUP3 SDIV DUP5 EQ DUP4 ISZERO OR PUSH2 0x432 JUMPI PUSH2 0x431 PUSH2 0x396 JUMP JUMPDEST JUMPDEST POP SWAP3 SWAP2 POP POP JUMP JUMPDEST PUSH0 DUP3 DUP3 MSTORE PUSH1 0x20 DUP3 ADD SWAP1 POP SWAP3 SWAP2 POP POP JUMP JUMPDEST PUSH32 0x796F752068617665206E6F7420656E756665206D6F6E79202100000000000000 PUSH0 DUP3 ADD MSTORE POP JUMP JUMPDEST PUSH0 PUSH2 0x47D PUSH1 0x19 DUP4 PUSH2 0x439 JUMP JUMPDEST SWAP2 POP PUSH2 0x488 DUP3 PUSH2 0x449 JUMP JUMPDEST PUSH1 0x20 DUP3 ADD SWAP1 POP SWAP2 SWAP1 POP JUMP JUMPDEST PUSH0 PUSH1 0x20 DUP3 ADD SWAP1 POP DUP2 DUP2 SUB PUSH0 DUP4 ADD MSTORE PUSH2 0x4AA DUP2 PUSH2 0x471 JUMP JUMPDEST SWAP1 POP SWAP2 SWAP1 POP JUMP JUMPDEST PUSH0 PUSH2 0x4BB DUP3 PUSH2 0x20F JUMP JUMPDEST SWAP2 POP PUSH2 0x4C6 DUP4 PUSH2 0x20F JUMP JUMPDEST SWAP3 POP DUP3 DUP3 MUL PUSH2 0x4D4 DUP2 PUSH2 0x20F JUMP JUMPDEST SWAP2 POP DUP3 DUP3 DIV DUP5 EQ DUP4 ISZERO OR PUSH2 0x4EB JUMPI PUSH2 0x4EA PUSH2 0x396 JUMP JUMPDEST JUMPDEST POP SWAP3 SWAP2 POP POP JUMP JUMPDEST PUSH32 0x4E487B7100000000000000000000000000000000000000000000000000000000 PUSH0 MSTORE PUSH1 0x12 PUSH1 0x4 MSTORE PUSH1 0x24 PUSH0 REVERT JUMPDEST PUSH0 PUSH2 0x529 DUP3 PUSH2 0x20F JUMP JUMPDEST SWAP2 POP PUSH2 0x534 DUP4 PUSH2 0x20F JUMP JUMPDEST SWAP3 POP DUP3 PUSH2 0x544 JUMPI PUSH2 0x543 PUSH2 0x4F2 JUMP JUMPDEST JUMPDEST DUP3 DUP3 DIV SWAP1 POP SWAP3 SWAP2 POP POP JUMP INVALID LOG2 PUSH5 0x6970667358 0x22 SLT KECCAK256 SWAP14 0xA9 0x4C 0xDB SWAP7 ORIGIN OR EXTCODESIZE CALLDATACOPY 0xD8 RETURN EXP RETURNCONTRACT 0xFB 0xCB GT 0xD LOG1 0xDC 0xC6 SWAP1 0xCC PUSH10 0xA5F52D38081C8A669A64 PUSH20 0x6F6C634300081E00330000000000000000000000 "
		},
		"gasEstimates": {
			"creation": {
				"codeDepositCost": "282600",
				"executionCost": "22427",
				"totalCost": "305027"
			},
			"external": {
				"USD_price()": "2446",
				"getprice()": "infinite",
				"getvalue()": "infinite",
				"setprice(uint256)": "infinite"
			}
		},
		"methodIdentifiers": {
			"USD_price()": "caeb2206",
			"getprice()": "0fcb5984",
			"getvalue()": "69bd01c4",
			"setprice(uint256)": "d49f0fa5"
		}
	},
	"abi": [
		{
			"inputs": [],
			"name": "USD_price",
			"outputs": [
				{
					"internalType": "uint256",
					"name": "",
					"type": "uint256"
				}
			],
			"stateMutability": "view",
			"type": "function"
		},
		{
			"inputs": [],
			"name": "getprice",
			"outputs": [
				{
					"internalType": "uint256",
					"name": "",
					"type": "uint256"
				}
			],
			"stateMutability": "view",
			"type": "function"
		},
		{
			"inputs": [],
			"name": "getvalue",
			"outputs": [],
			"stateMutability": "payable",
			"type": "function"
		},
		{
			"inputs": [
				{
					"internalType": "uint256",
					"name": "eth",
					"type": "uint256"
				}
			],
			"name": "setprice",
			"outputs": [
				{
					"internalType": "uint256",
					"name": "",
					"type": "uint256"
				}
			],
			"stateMutability": "view",
			"type": "function"
		}
	]
}