{
	"data": {
		"bytecode": {
			"linkReferences": {},
			"object": "6080604052348015600e575f5ffd5b5073694aa1769357215de4fac081bf1f309adc3253065f5f6101000a81548173ffffffffffffffffffffffffffffffffffffffff021916908373ffffffffffffffffffffffffffffffffffffffff1602179055506105ec8061006f5f395ff3fe608060405260043610610033575f3560e01c8063073789e2146100375780636b69a59214610073578063d0e30db01461009d575b5f5ffd5b348015610042575f5ffd5b5061005d6004803603810190610058919061029c565b6100a7565b60405161006a91906102d6565b60405180910390f35b34801561007e575f5ffd5b50610087610204565b60405161009491906102d6565b60405180910390f35b6100a5610210565b005b5f5f5f5f9054906101000a900473ffffffffffffffffffffffffffffffffffffffff1673ffffffffffffffffffffffffffffffffffffffff1663feaf968c6040518163ffffffff1660e01b815260040160a060405180830381865afa158015610112573d5f5f3e3d5ffd5b505050506040513d601f19601f820116820180604052508101906101369190610375565b5050509150505f5f5f9054906101000a900473ffffffffffffffffffffffffffffffffffffffff1673ffffffffffffffffffffffffffffffffffffffff1663313ce5676040518163ffffffff1660e01b8152600401602060405180830381865afa1580156101a6573d5f5f3e3d5ffd5b505050506040513d601f19601f820116820180604052508101906101ca9190610422565b9050670de0b6b3a76400006402540be40085846101e7919061047a565b6101f1919061047a565b6101fb91906104e8565b92505050919050565b67d02ab486cedc000081565b67d02ab486cedc0000610222346100a7565b1015610263576040517f08c379a000000000000000000000000000000000000000000000000000000000815260040161025a90610598565b60405180910390fd5b565b5f5ffd5b5f819050919050565b61027b81610269565b8114610285575f5ffd5b50565b5f8135905061029681610272565b92915050565b5f602082840312156102b1576102b0610265565b5b5f6102be84828501610288565b91505092915050565b6102d081610269565b82525050565b5f6020820190506102e95f8301846102c7565b92915050565b5f69ffffffffffffffffffff82169050919050565b61030d816102ef565b8114610317575f5ffd5b50565b5f8151905061032881610304565b92915050565b5f819050919050565b6103408161032e565b811461034a575f5ffd5b50565b5f8151905061035b81610337565b92915050565b5f8151905061036f81610272565b92915050565b5f5f5f5f5f60a0868803121561038e5761038d610265565b5b5f61039b8882890161031a565b95505060206103ac8882890161034d565b94505060406103bd88828901610361565b93505060606103ce88828901610361565b92505060806103df8882890161031a565b9150509295509295909350565b5f60ff82169050919050565b610401816103ec565b811461040b575f5ffd5b50565b5f8151905061041c816103f8565b92915050565b5f6020828403121561043757610436610265565b5b5f6104448482850161040e565b91505092915050565b7f4e487b71000000000000000000000000000000000000000000000000000000005f52601160045260245ffd5b5f61048482610269565b915061048f83610269565b925082820261049d81610269565b915082820484148315176104b4576104b361044d565b5b5092915050565b7f4e487b71000000000000000000000000000000000000000000000000000000005f52601260045260245ffd5b5f6104f282610269565b91506104fd83610269565b92508261050d5761050c6104bb565b5b828204905092915050565b5f82825260208201905092915050565b7f596f75206d7573742073656e64206174206c656173742031352055534420776f5f8201527f727468206f662045544821000000000000000000000000000000000000000000602082015250565b5f610582602b83610518565b915061058d82610528565b604082019050919050565b5f6020820190508181035f8301526105af81610576565b905091905056fea264697066735822122026b15fc10c753c0c3aa3e6e91d8b569f7ab7abb10b95e4f3ca34c252dc66765764736f6c634300081e0033",
			"opcodes": "PUSH1 0x80 PUSH1 0x40 MSTORE CALLVALUE DUP1 ISZERO PUSH1 0xE JUMPI PUSH0 PUSH0 REVERT JUMPDEST POP PUSH20 0x694AA1769357215DE4FAC081BF1F309ADC325306 PUSH0 PUSH0 PUSH2 0x100 EXP DUP2 SLOAD DUP2 PUSH20 0xFFFFFFFFFFFFFFFFFFFFFFFFFFFFFFFFFFFFFFFF MUL NOT AND SWAP1 DUP4 PUSH20 0xFFFFFFFFFFFFFFFFFFFFFFFFFFFFFFFFFFFFFFFF AND MUL OR SWAP1 SSTORE POP PUSH2 0x5EC DUP1 PUSH2 0x6F PUSH0 CODECOPY PUSH0 RETURN INVALID PUSH1 0x80 PUSH1 0x40 MSTORE PUSH1 0x4 CALLDATASIZE LT PUSH2 0x33 JUMPI PUSH0 CALLDATALOAD PUSH1 0xE0 SHR DUP1 PUSH4 0x73789E2 EQ PUSH2 0x37 JUMPI DUP1 PUSH4 0x6B69A592 EQ PUSH2 0x73 JUMPI DUP1 PUSH4 0xD0E30DB0 EQ PUSH2 0x9D JUMPI JUMPDEST PUSH0 PUSH0 REVERT JUMPDEST CALLVALUE DUP1 ISZERO PUSH2 0x42 JUMPI PUSH0 PUSH0 REVERT JUMPDEST POP PUSH2 0x5D PUSH1 0x4 DUP1 CALLDATASIZE SUB DUP2 ADD SWAP1 PUSH2 0x58 SWAP2 SWAP1 PUSH2 0x29C JUMP JUMPDEST PUSH2 0xA7 JUMP JUMPDEST PUSH1 0x40 MLOAD PUSH2 0x6A SWAP2 SWAP1 PUSH2 0x2D6 JUMP JUMPDEST PUSH1 0x40 MLOAD DUP1 SWAP2 SUB SWAP1 RETURN JUMPDEST CALLVALUE DUP1 ISZERO PUSH2 0x7E JUMPI PUSH0 PUSH0 REVERT JUMPDEST POP PUSH2 0x87 PUSH2 0x204 JUMP JUMPDEST PUSH1 0x40 MLOAD PUSH2 0x94 SWAP2 SWAP1 PUSH2 0x2D6 JUMP JUMPDEST PUSH1 0x40 MLOAD DUP1 SWAP2 SUB SWAP1 RETURN JUMPDEST PUSH2 0xA5 PUSH2 0x210 JUMP JUMPDEST STOP JUMPDEST PUSH0 PUSH0 PUSH0 PUSH0 SWAP1 SLOAD SWAP1 PUSH2 0x100 EXP SWAP1 DIV PUSH20 0xFFFFFFFFFFFFFFFFFFFFFFFFFFFFFFFFFFFFFFFF AND PUSH20 0xFFFFFFFFFFFFFFFFFFFFFFFFFFFFFFFFFFFFFFFF AND PUSH4 0xFEAF968C PUSH1 0x40 MLOAD DUP2 PUSH4 0xFFFFFFFF AND PUSH1 0xE0 SHL DUP2 MSTORE PUSH1 0x4 ADD PUSH1 0xA0 PUSH1 0x40 MLOAD DUP1 DUP4 SUB DUP2 DUP7 GAS STATICCALL ISZERO DUP1 ISZERO PUSH2 0x112 JUMPI RETURNDATASIZE PUSH0 PUSH0 RETURNDATACOPY RETURNDATASIZE PUSH0 REVERT JUMPDEST POP POP POP POP PUSH1 0x40 MLOAD RETURNDATASIZE PUSH1 0x1F NOT PUSH1 0x1F DUP3 ADD AND DUP3 ADD DUP1 PUSH1 0x40 MSTORE POP DUP2 ADD SWAP1 PUSH2 0x136 SWAP2 SWAP1 PUSH2 0x375 JUMP JUMPDEST POP POP POP SWAP2 POP POP PUSH0 PUSH0 PUSH0 SWAP1 SLOAD SWAP1 PUSH2 0x100 EXP SWAP1 DIV PUSH20 0xFFFFFFFFFFFFFFFFFFFFFFFFFFFFFFFFFFFFFFFF AND PUSH20 0xFFFFFFFFFFFFFFFFFFFFFFFFFFFFFFFFFFFFFFFF AND PUSH4 0x313CE567 PUSH1 0x40 MLOAD DUP2 PUSH4 0xFFFFFFFF AND PUSH1 0xE0 SHL DUP2 MSTORE PUSH1 0x4 ADD PUSH1 0x20 PUSH1 0x40 MLOAD DUP1 DUP4 SUB DUP2 DUP7 GAS STATICCALL ISZERO DUP1 ISZERO PUSH2 0x1A6 JUMPI RETURNDATASIZE PUSH0 PUSH0 RETURNDATACOPY RETURNDATASIZE PUSH0 REVERT JUMPDEST POP POP POP POP PUSH1 0x40 MLOAD RETURNDATASIZE PUSH1 0x1F NOT PUSH1 0x1F DUP3 ADD AND DUP3 ADD DUP1 PUSH1 0x40 MSTORE POP DUP2 ADD SWAP1 PUSH2 0x1CA SWAP2 SWAP1 PUSH2 0x422 JUMP JUMPDEST SWAP1 POP PUSH8 0xDE0B6B3A7640000 PUSH5 0x2540BE400 DUP6 DUP5 PUSH2 0x1E7 SWAP2 SWAP1 PUSH2 0x47A JUMP JUMPDEST PUSH2 0x1F1 SWAP2 SWAP1 PUSH2 0x47A JUMP JUMPDEST PUSH2 0x1FB SWAP2 SWAP1 PUSH2 0x4E8 JUMP JUMPDEST SWAP3 POP POP POP SWAP2 SWAP1 POP JUMP JUMPDEST PUSH8 0xD02AB486CEDC0000 DUP2 JUMP JUMPDEST PUSH8 0xD02AB486CEDC0000 PUSH2 0x222 CALLVALUE PUSH2 0xA7 JUMP JUMPDEST LT ISZERO PUSH2 0x263 JUMPI PUSH1 0x40 MLOAD PUSH32 0x8C379A000000000000000000000000000000000000000000000000000000000 DUP2 MSTORE PUSH1 0x4 ADD PUSH2 0x25A SWAP1 PUSH2 0x598 JUMP JUMPDEST PUSH1 0x40 MLOAD DUP1 SWAP2 SUB SWAP1 REVERT JUMPDEST JUMP JUMPDEST PUSH0 PUSH0 REVERT JUMPDEST PUSH0 DUP2 SWAP1 POP SWAP2 SWAP1 POP JUMP JUMPDEST PUSH2 0x27B DUP2 PUSH2 0x269 JUMP JUMPDEST DUP2 EQ PUSH2 0x285 JUMPI PUSH0 PUSH0 REVERT JUMPDEST POP JUMP JUMPDEST PUSH0 DUP2 CALLDATALOAD SWAP1 POP PUSH2 0x296 DUP2 PUSH2 0x272 JUMP JUMPDEST SWAP3 SWAP2 POP POP JUMP JUMPDEST PUSH0 PUSH1 0x20 DUP3 DUP5 SUB SLT ISZERO PUSH2 0x2B1 JUMPI PUSH2 0x2B0 PUSH2 0x265 JUMP JUMPDEST JUMPDEST PUSH0 PUSH2 0x2BE DUP5 DUP3 DUP6 ADD PUSH2 0x288 JUMP JUMPDEST SWAP2 POP POP SWAP3 SWAP2 POP POP JUMP JUMPDEST PUSH2 0x2D0 DUP2 PUSH2 0x269 JUMP JUMPDEST DUP3 MSTORE POP POP JUMP JUMPDEST PUSH0 PUSH1 0x20 DUP3 ADD SWAP1 POP PUSH2 0x2E9 PUSH0 DUP4 ADD DUP5 PUSH2 0x2C7 JUMP JUMPDEST SWAP3 SWAP2 POP POP JUMP JUMPDEST PUSH0 PUSH10 0xFFFFFFFFFFFFFFFFFFFF DUP3 AND SWAP1 POP SWAP2 SWAP1 POP JUMP JUMPDEST PUSH2 0x30D DUP2 PUSH2 0x2EF JUMP JUMPDEST DUP2 EQ PUSH2 0x317 JUMPI PUSH0 PUSH0 REVERT JUMPDEST POP JUMP JUMPDEST PUSH0 DUP2 MLOAD SWAP1 POP PUSH2 0x328 DUP2 PUSH2 0x304 JUMP JUMPDEST SWAP3 SWAP2 POP POP JUMP JUMPDEST PUSH0 DUP2 SWAP1 POP SWAP2 SWAP1 POP JUMP JUMPDEST PUSH2 0x340 DUP2 PUSH2 0x32E JUMP JUMPDEST DUP2 EQ PUSH2 0x34A JUMPI PUSH0 PUSH0 REVERT JUMPDEST POP JUMP JUMPDEST PUSH0 DUP2 MLOAD SWAP1 POP PUSH2 0x35B DUP2 PUSH2 0x337 JUMP JUMPDEST SWAP3 SWAP2 POP POP JUMP JUMPDEST PUSH0 DUP2 MLOAD SWAP1 POP PUSH2 0x36F DUP2 PUSH2 0x272 JUMP JUMPDEST SWAP3 SWAP2 POP POP JUMP JUMPDEST PUSH0 PUSH0 PUSH0 PUSH0 PUSH0 PUSH1 0xA0 DUP7 DUP9 SUB SLT ISZERO PUSH2 0x38E JUMPI PUSH2 0x38D PUSH2 0x265 JUMP JUMPDEST JUMPDEST PUSH0 PUSH2 0x39B DUP9 DUP3 DUP10 ADD PUSH2 0x31A JUMP JUMPDEST SWAP6 POP POP PUSH1 0x20 PUSH2 0x3AC DUP9 DUP3 DUP10 ADD PUSH2 0x34D JUMP JUMPDEST SWAP5 POP POP PUSH1 0x40 PUSH2 0x3BD DUP9 DUP3 DUP10 ADD PUSH2 0x361 JUMP JUMPDEST SWAP4 POP POP PUSH1 0x60 PUSH2 0x3CE DUP9 DUP3 DUP10 ADD PUSH2 0x361 JUMP JUMPDEST SWAP3 POP POP PUSH1 0x80 PUSH2 0x3DF DUP9 DUP3 DUP10 ADD PUSH2 0x31A JUMP JUMPDEST SWAP2 POP POP SWAP3 SWAP6 POP SWAP3 SWAP6 SWAP1 SWAP4 POP JUMP JUMPDEST PUSH0 PUSH1 0xFF DUP3 AND SWAP1 POP SWAP2 SWAP1 POP JUMP JUMPDEST PUSH2 0x401 DUP2 PUSH2 0x3EC JUMP JUMPDEST DUP2 EQ PUSH2 0x40B JUMPI PUSH0 PUSH0 REVERT JUMPDEST POP JUMP JUMPDEST PUSH0 DUP2 MLOAD SWAP1 POP PUSH2 0x41C DUP2 PUSH2 0x3F8 JUMP JUMPDEST SWAP3 SWAP2 POP POP JUMP JUMPDEST PUSH0 PUSH1 0x20 DUP3 DUP5 SUB SLT ISZERO PUSH2 0x437 JUMPI PUSH2 0x436 PUSH2 0x265 JUMP JUMPDEST JUMPDEST PUSH0 PUSH2 0x444 DUP5 DUP3 DUP6 ADD PUSH2 0x40E JUMP JUMPDEST SWAP2 POP POP SWAP3 SWAP2 POP POP JUMP JUMPDEST PUSH32 0x4E487B7100000000000000000000000000000000000000000000000000000000 PUSH0 MSTORE PUSH1 0x11 PUSH1 0x4 MSTORE PUSH1 0x24 PUSH0 REVERT JUMPDEST PUSH0 PUSH2 0x484 DUP3 PUSH2 0x269 JUMP JUMPDEST SWAP2 POP PUSH2 0x48F DUP4 PUSH2 0x269 JUMP JUMPDEST SWAP3 POP DUP3 DUP3 MUL PUSH2 0x49D DUP2 PUSH2 0x269 JUMP JUMPDEST SWAP2 POP DUP3 DUP3 DIV DUP5 EQ DUP4 ISZERO OR PUSH2 0x4B4 JUMPI PUSH2 0x4B3 PUSH2 0x44D JUMP JUMPDEST JUMPDEST POP SWAP3 SWAP2 POP POP JUMP JUMPDEST PUSH32 0x4E487B7100000000000000000000000000000000000000000000000000000000 PUSH0 MSTORE PUSH1 0x12 PUSH1 0x4 MSTORE PUSH1 0x24 PUSH0 REVERT JUMPDEST PUSH0 PUSH2 0x4F2 DUP3 PUSH2 0x269 JUMP JUMPDEST SWAP2 POP PUSH2 0x4FD DUP4 PUSH2 0x269 JUMP JUMPDEST SWAP3 POP DUP3 PUSH2 0x50D JUMPI PUSH2 0x50C PUSH2 0x4BB JUMP JUMPDEST JUMPDEST DUP3 DUP3 DIV SWAP1 POP SWAP3 SWAP2 POP POP JUMP JUMPDEST PUSH0 DUP3 DUP3 MSTORE PUSH1 0x20 DUP3 ADD SWAP1 POP SWAP3 SWAP2 POP POP JUMP JUMPDEST PUSH32 0x596F75206D7573742073656E64206174206C656173742031352055534420776F PUSH0 DUP3 ADD MSTORE PUSH32 0x727468206F662045544821000000000000000000000000000000000000000000 PUSH1 0x20 DUP3 ADD MSTORE POP JUMP JUMPDEST PUSH0 PUSH2 0x582 PUSH1 0x2B DUP4 PUSH2 0x518 JUMP JUMPDEST SWAP2 POP PUSH2 0x58D DUP3 PUSH2 0x528 JUMP JUMPDEST PUSH1 0x40 DUP3 ADD SWAP1 POP SWAP2 SWAP1 POP JUMP JUMPDEST PUSH0 PUSH1 0x20 DUP3 ADD SWAP1 POP DUP2 DUP2 SUB PUSH0 DUP4 ADD MSTORE PUSH2 0x5AF DUP2 PUSH2 0x576 JUMP JUMPDEST SWAP1 POP SWAP2 SWAP1 POP JUMP INVALID LOG2 PUSH5 0x6970667358 0x22 SLT KECCAK256 0x26 0xB1 PUSH0 0xC1 0xC PUSH22 0x3C0C3AA3E6E91D8B569F7AB7ABB10B95E4F3CA34C252 0xDC PUSH7 0x765764736F6C63 NUMBER STOP ADDMOD 0x1E STOP CALLER "
		},
		"gasEstimates": {
			"creation": {
				"codeDepositCost": "303200",
				"executionCost": "24606",
				"totalCost": "327806"
			},
			"external": {
				"MINIMUM_USD()": "325",
				"deposit()": "infinite",
				"getUsdValue(uint256)": "infinite"
			}
		},
		"methodIdentifiers": {
			"MINIMUM_USD()": "6b69a592",
			"deposit()": "d0e30db0",
			"getUsdValue(uint256)": "073789e2"
		}
	},
	"abi": [
		{
			"inputs": [],
			"stateMutability": "nonpayable",
			"type": "constructor"
		},
		{
			"inputs": [],
			"name": "MINIMUM_USD",
			"outputs": [
				{
					"internalType": "uint256",
					"name": "",
					"type": "uint256"
				}
			],
			"stateMutability": "view",
			"type": "function"
		},
		{
			"inputs": [],
			"name": "deposit",
			"outputs": [],
			"stateMutability": "payable",
			"type": "function"
		},
		{
			"inputs": [
				{
					"internalType": "uint256",
					"name": "_ethAmount",
					"type": "uint256"
				}
			],
			"name": "getUsdValue",
			"outputs": [
				{
					"internalType": "uint256",
					"name": "",
					"type": "uint256"
				}
			],
			"stateMutability": "view",
			"type": "function"
		}
	]
}